:1000000000000120750300005D030000C10E000028
:1000100061030000630300006503000000000000AE
:100020000000000000000000000000006703000066
:1000300069030000000000006B0300006D03000076
:10004000AD3D00006F030000453E0000153E00007E
:10005000213E00006F030000BD3900002541000073
:10006000114300002543000039430000ED4000002B
:100070006F030000114000006F0300006F030000D9
:10008000C54C0000A1040000513F0000393E0000B3
:100090009D420000A3420000A9420000AF420000C0
:1000A000B5420000BB4200004D4300006143000028
:1000B000213F0000313C0000000000000000000073
:1000C0006F030000313F0000413F00002D3E000063
:1000D000FD400000093B00006F030000000000002D
:1000E0000000000000000000000000000000000010
:1000F0000000000000000000000000000000000000
:1001000000000000000000000000000000000000EF
:1001100000000000000000000000000000000000DF
:1001200000000000000000000000000000000000CF
:1001300000000000000000000000000000000000BF
:1001400000000000000000000000000000000000AF
:10015000000000000000000000000000000000009F
:10016000000000000000000000000000000000008F
:10017000000000000000000000000000000000007F
:10018000000000000000000000000000000000006F
:10019000000000000000000000000000000000005F
:1001A000000000000000000000000000000000004F
:1001B000000000000000000000000000000000003F
:1001C000000000000000000000000000000000002F
:1001D000000000000000000000000000000000001F
:1001E000000000000000000000000000000000000F
:1001F00000000000000000000000000000000000FF
:10020000354936480A1A02D0072291438D463449AF
:1002100034480A1A06D00722914381F30988022242
:1002200082F3148830483149314A00F044F83148AB
:100230003149324A00F03FF831483249324A00F041
:100240003AF832483249334A00F035F832483349F7
:10025000334A00F030F833483349344A00F02BF881
:1002600033483449344A00F026F8344834490022EF
:1002700000F02CF833483449002200F027F83348C6
:100280003349091A082902DB002202604160314A21
:1002900090471F481F49884205D00268043003B4C4
:1002A000904703BCF7E700208646EC46002000217B
:1002B000294A9047FEE7884207D0521A05D00378B2
:1002C00001300B700131013AF9D17047884202D0F8
:1002D00002700130FAE770470000012000E00020C2
:1002E000000001200000012070730000BC0100200C
:1002F00004020020D0030000D0030000A25200003E
:1003000070730000BC010020BC010020705600008A
:1003100070560000705600007056000070560000C5
:100320007056000070560000705600006E7300009A
:10033000B873000004020020040200200402002020
:10034000181A0020181A0020181A0020181A002065
:10035000183A00209D030000F14C0000FEE7FEE784
:10036000FEE7FEE7FEE7FEE7FEE7FEE7FEE7FEE765
:1003700000F002B8FFF7FCBF0F484FF007018843B9
:1003800085460E4880470E48016841F470010160BF
:10039000BFF34F8FBFF36F8FFFF732BF09480A4992
:1003A0000A4A884207D0521A05D0037801300B70F0
:1003B0000131013AF9D1704700000120B94D000028
:1003C00088ED00E0B454000000000020BC010020D3
:1003D0001FB50021039001AA44F20100CDE90111EB
:1003E00000F004F805B05DF804FB000010B572B62B
:1003F00002F036FF02F060FD0028FBD1164C638846
:100400004BB11648164B1749C01AC008000440F0FB
:10041000010002F0BDFE144BD3F8F030DB0700D52D
:1004200000BE6388012B09D90C480D4B0F49C01A37
:10043000C008000440F0020002F0AAFEBFF34F8F94
:1004400009490B4BCA6802F4E0621343CB60BFF367
:100450004F8F00BFFDE700BF6C000020705300000D
:10046000C05200000657000000ED00E012570000E7
:100470000400FA0572B6024A13680133136070472C
:1004800004020020034A1368013B136003B962B6FB
:10049000704700BF04020020FFF7ECBFFFF7F2BF78
:1004A000024B034A1B681068184700BF1002002067
:1004B0000802002070B5064D0646002455F8043B9E
:1004C0000BB1304698470134042CF7D170BD00BF02
:1004D000200200204388033300EB830399420BD3AF
:1004E00082884FF6FF739A4208D0038833B1806840
:1004F000431C584258417047022070470120704702
:10050000033080B240F2FE33984230B51FD8134B0F
:100510001A783AB91C895D892C440444A4B2B4F514
:10052000806F0AD91A7DAAB99A8BDC8B22440244C7
:1005300092B2B2F5806F0DD801220A8014461422BF
:1005400002FB04335A8910445881002030BD48F220
:100550000860FBE748F20660F8E700BF540200209D
:100560000B4A0C495388142000FB0311CB6833B9A4
:100570000420496810700122074801F04DBE074968
:100580000523137002238B80012209680023F3E7FF
:1005900038020020540200200000002080020020C9
:1005A00007B5002305490093054A09680548082353
:1005B00001F06EFD03B05DF804FB00BF8002002077
:1005C000585700000000002007B5002301460093A3
:1005D000034A0448082301F05BFD03B05DF804FB07
:1005E000505700000000002013B500230C46009374
:1005F0000146084A0848042301F04AFD38B9074B70
:10060000142101FB043101230B7402B010BD48F228
:100610000D60FAE74C570000000000205402002053
:1006200037B50A480A4B42689C88196853880325E5
:10063000033305709BB2002000909B0001EB840106
:10064000044801F025FD03B030BD00BF3802002092
:10065000800200200000002010B50146044800F090
:10066000EDFC1C220446002104F091FD204610BD43
:10067000BC01002038B5144B14220D4602FB00309B
:100680002B68446804F58051A3B15C88033403EB04
:1006900084048C4215D22368013312D02046FFF720
:1006A00019FF012808D002280BD00028F1D12C60B6
:1006B000012038BD0834ECE76388033304EB83047E
:1006C000E7E70020F5E700BF54020020426873B559
:1006D00004460D466AB3234BD9688A4229D31B6965
:1006E0009A4226D812F0030323D11F4900890989B1
:1006F00088421ED12068916888421AD11B484168FF
:100700008A4203D901F580518A420DD381698A4218
:100710000CD901F580518A4208D201222A80B3FA0D
:1007200083F0400902B070BD1A46F7E748F209634A
:10073000F5E700262E800196288801A9FFF79AFF89
:1007400030B92B8801339BB2012B2B80F3D9E9E719
:10075000019B226899689142EED16360024B1B892C
:100760002381DFE70000002038020020540200202F
:100770002DE9F8431C461D4B1B7806460F461546CF
:1007800073B382B37CB3DFF86C804FF01409A38895
:10079000012B02D948F2096020E009FB03F318F8A5
:1007A00003302BB9A0882146FFF764FF20B92060F1
:1007B000A3880133A380EAE723681EB199883288B1
:1007C0009142EFD11FB119883A889142EAD19A68D3
:1007D000C5E90023064B1B892B810020BDE8F88367
:1007E00048F20160FAE748F20460F7E730020020BF
:1007F000380200205402002008B5074B5888191D04
:10080000FFF738FF18B1BDE80840FFF709BFBDE8A2
:100810000840FFF7A5BE00BF380200202DE9F047D1
:10082000A24FDFF8AC8288B006463B6823B9A048E7
:10083000414600F03DFC38603D6829784B1E052B91
:1008400007D8DFE813F020007A007A000C010C01D1
:10085000630148F20E641422002103A804F097FCFF
:1008600041F61D539C4208BF00243B6804941A784B
:10087000023A042A00F20282DFE812F0E301EF01FB
:100880001102190220022EB18A4B00225A604FF445
:100890000644E0E72B79032B1CD8DFE803F01402B1
:1008A0002A35854A1378022B1AD0137D022B4FF07C
:1008B000010317D114214B43D1180020D0544868AC
:1008C000FFF782FE03E001232B71FFF769FE00288A
:1008D00000F0BF80774B00225A6048F20D64BAE7FF
:1008E0000023E7E7734A13700023536041F61D5459
:1008F000B1E772497248002302222B718A8009688D
:10090000012201F089FCE2E76C4C00262E71206880
:10091000FFF75AFE6B4BDFF8A0C15B8825681422F5
:1009200053430CEB03020CF8036051685560A58833
:10093000158102222160A280C9E7B5F814A0AA7D22
:10094000DFF87491AEB1022AEB8806D9142101FBBD
:100950000A91DA1C088902440A81142202FB0A99CE
:10096000C3F57F43B9F80A20FD331344A9F80A30D0
:100970008DE7142303FB0A9318895C6804EB800459
:10098000062A69D8DFE802F0274E36441D5A0400D3
:1009900041F61D54AA7DEB88022A06D9142101FBD9
:1009A0000A91DA1C088902440A81142202FB0A997E
:1009B000C3F57F43B9F80A20FD331344A9F80A3080
:1009C00049E74148414900234360AB690360FFF7B1
:1009D0007DFE00285BD00223AB7500230093042327
:1009E000EA182146364801F053FB002831D048F27E
:1009F0000D64CFE72B69002B14BF03230123AB75D4
:100A00000023009305F10C02042304F10801E9E737
:100A10000123AB750022EB8800922A699B0004F148
:100A20000C01DFE703290CBF05230623AB75002368
:100A30000093042305F10802E118D3E70623AB7500
:100A4000224B1988204B5868FFF7CEFD044600283A
:100A5000A0D108B0BDE8F08748F20E649AE7002EF6
:100A60007FF415AF2B79012B34D0022B3FF43EAF2E
:100A7000002B7FF4EEAE02232B710DF10A01EB681F
:100A8000039303A8CDE90466FFF720FE10B948F2EE
:100A90000964E0E60498BDF80A108388EB800388B7
:100AA0002B81FFF7A1FD044629E000BF5002002082
:100AB000BC010020300200205402002080020020EF
:100AC00000000020380200201402002088020020CC
:100AD00048020020DFF8009203AA4B463146A81DC9
:100AE000FFF746FE044670B9B9F804100498FFF702
:100AF0007BFD044648F209639C423FF4F7AE002CAC
:100B00007FF4A9AEA5E7C9E90066F3E7002E7FF4FC
:100B1000BEAE6C4B1A7BBAB11E731A78013A062A24
:100B20003FF697AE01A151F822F000BFD70B0000AD
:100B3000FD0B00001B0C0000210C000053080000FE
:100B4000270C0000390C00001A78072AE5D801A10B
:100B500051F822F0750B00001B0B00001B0B00006E
:100B60009B0B0000AF0B0000D30B0000D30B000069
:100B7000970B00001A89544901321A8100225A80C9
:100B80001A730A78B2FA82F252099A720A7DB2FA9C
:100B900082F25209DA72012207E04C4958688A88C9
:100BA0004088033202448A8002221A70B5E75C88CA
:100BB000454A4649142505FB0422086854685060DC
:100BC0008888108102200C60888000211174062220
:100BD000EBE70722E9E79A7A32B9DA7A8AB9002292
:100BE0001A705A805A6081E6374900229A72CA68A0
:100BF000002AF2D1097C0029EFD05A80FFF7FCFDD2
:100C000051E70022DA72304A116A0029E7D192F8DE
:100C10002420002AE3D00122EFE7FFF701FD42E79D
:100C2000FFF79EFC3FE75A88274B142101FB023354
:100C30005868FFF7C9FC36E700225A60FFF7B0FC9E
:100C400031E701228DF80C201A89ADF818209A8816
:100C5000DB68ADF81A20059310E002228DF80C2015
:100C60001A89ADF818209A88ADF81A20DA689B7DA9
:100C700005929A1F534253418DF81C3003A8FFF789
:100C800019FC0026414612483E6000F03CFA11482B
:100C9000012100F083FA00287FF4C7ADD9E60322D2
:100CA0008DF80C20DA88ADF818201A89D0E70422D4
:100CB0008DF80C20DB88ADF81830DFE705238DF8C0
:100CC0000C30DBE7380200205402002080020020B4
:100CD000BC0100207C0200208C0200204068FFF74D
:100CE0009DBD000008B50548012100F03FFA18B984
:100CF000BDE80840FFF792BD08BD00BF7C020020A0
:100D00002DE9F3419846374B1B7806460D46002BDC
:100D10005CD000295DD009884FF6FF7399425BD003
:100D20006B88002B58D06B689B0758D14AB92F8924
:100D30000DF102013846FFF7E3FB30B102B0BDE828
:100D4000F08113885788ADF8023001A8FFF784FCC2
:100D5000044660B9BDF80220234B142101FB023385
:100D600058890338C01B588148F20760E6E780F8CD
:100D7000008000238375BDF8023083826B680361B5
:100D800001211A4800F0FEF92B882381B8F1030FE6
:100D90006B88A38004BF0423A3754FF0000508BF30
:100DA0003368E06008BFA3611148E780658101A94D
:100DB00000F06EF936B1E36833600E4B75601B8945
:100DC000B5723381FFF78EFF0020B7E748F201606C
:100DD000B4E748F20460B1E748F20360AEE748F2D6
:100DE0000260ABE730020020540200204C020020D9
:100DF000BC0100203802002073B50D460446C8B17E
:100E0000C1B10DF10601FFF761FCB0B1BDF80630CC
:100E10000B486668142202FB030001210C3000F02D
:100E2000B1F963682E600C336B600123A37200205C
:100E300002B070BD48F20460FAE748F20960F7E7D3
:100E40005402002013B50446A8B10DF10601FFF7C6
:100E50003DFC98B1BDF806200B4B142101FB023379
:100E6000DA6872B1A27A62B1DA680020013ADA6017
:100E7000A07202B010BD48F20460FAE748F20960BF
:100E8000F7E748F20560F4E754020020022300224D
:100E9000FFF736BF18B103230022FFF731BF48F236
:100EA0000460704707B5ADF80600ADF804100DF109
:100EB000060001A9FFF75CFC03B05DF804FB00002D
:100EC0001EF0040F1CBFEFF309800AE0EFF3088067
:100ED0000549064A884201D8904202D88D464FF013
:100EE0000000034B184700000000012000E0002034
:100EF000190F0000BFF34F8F0549064BCA6802F473
:100F0000E0621343CB60BFF34F8F00BFFDE700BF2C
:100F100000ED00E00400FA052DE9F74F054602F068
:100F20009FF901F0C9FF0028FBD1374C3748384BF7
:100F3000384E9F6A7388241AE408240444F001049C
:100F4000002D59D0D3B1AA693349204602F024F9C3
:100F500073889BB1EB680193AB6800932F49D5E987
:100F60000023204602F02DF973883BB1EB69009312
:100F70002B49D5E90423204602F017F9244BDB6AFC
:100F8000990705D573881BB12649204602F000F960
:100F9000DFF8A0A0DFF8A0B04FF000084FF0010983
:100FA00009FA08F33B4208D05AF828202AB173887E
:100FB0001BB15946204602F0EFF808F10108B8F1DC
:100FC0001A0FEDD13A0607D573882BB1104B16498D
:100FD0005A6B204602F0E0F83B0407D573882BB12A
:100FE0000B4B12499A6B204602F0D6F82846FFF7C1
:100FF00081FF03B0BDE8F08F002BBFD00C49204625
:1010000002F0C6F8BAE700BFF0530000C05200007B
:1010100000ED00E0AC0000206057000075570000B4
:10102000AA570000055800005458000074580000EA
:10103000D2570000505D00004958000037B550E815
:10104000013F9DB2C48925448489A54228BF2D1B38
:101050000489A54202BFBFF32F8F002207E0C5EA33
:10106000030540E80154002CE9D14FF001028DF84E
:1010700003200193019A0A609DF8031001F0FF0319
:1010800021B1006810FA82F003B030BD1846FBE7CA
:101090000A884B889A4209D150E8012FC2EA0242DD
:1010A00040E80123002BF7D1012070470020704752
:1010B00037B550E8023F1FFAA3F5C488A54202BF26
:1010C000BFF32F8F00220DE0C48925448489A542F7
:1010D00028BF2D1BC3EA054540E80254002CE8D187
:1010E0004FF001028DF803200193019A0A609DF8E8
:1010F000031001F0FF0321B1006800EB124003B0C0
:1011000030BD1846FBE70A884B889A4209D150E85F
:10111000022FC2EA224240E80223002BF7D101202D
:1011200070470020704710B5034653E8000F0A4689
:1011300043E8002494F0000FF7D110BD10B503462A
:1011400053E8002F42EA010043E8000494F0000F46
:10115000F6D110BD10B5034653E8000F00EA0102B6
:1011600043E8002494F0000FF6D110BD10B50346FB
:1011700053E8000F00EB010243E8002494F0000F55
:10118000F6D110BD10B5034653E8002F02EB010065
:1011900043E8000494F0000FF6D110BD10B50346EB
:1011A00053E8002FA2EB010043E8000494F0000F85
:1011B000F6D110BD0121FFF7C1BF0021FFF7CABF63
:1011C0002DE9F0478368D3F84831C3F340059B0706
:1011D00088B0074606D50022114608B0BDE8F047A2
:1011E00000F0AEBA012906D91E4A022108B0BDE8B6
:1011F000F04700F079BA1C4C1C4EDFF874A04FF099
:101200006408A946361B1C23B6FBF3F6AE4204F174
:101210001C0402D108B0BDE8F08754F81C0C54E956
:101220000623017900689A1A1B1ADBB2039308FBA4
:1012300003F3B3FBF2F3CDE9019334F8043C0093DC
:10124000CDE9061254F8083C11FB08F13846B1FB11
:10125000F2F1CDE904215246082100F045FA0135AA
:10126000D4E700BFFA5D0000485400006454000059
:101270000D5E000010B590B1D0E9012301689B1A02
:10128000DBB20A60013BDBB2FF2B026802D1002017
:10129000107110BD11684C1C14600B70F2E70E2029
:1012A000F7E738B504460020FFF7F6F822686368D0
:1012B0001168994213D9481E106011F8013CE56885
:1012C000218B01FB0355A36811791B1ADBB29942EC
:1012D00000D213710020FFF7E1F8284638BD002541
:1012E000F8E738B5054600200C46FFF7D5F82A6820
:1012F0001368591C1160E968641A298BB4FBF1F476
:101300001C70BDE838400020FFF7C8B82DE9F8434D
:10131000089E1D460C46F1B9194E1A49891BB2EBBD
:10132000D10F4FEAD10905D2174F043607EB8207D8
:10133000A14502D100232B6009E056F834803868BB
:10134000D8F8001003F056FF18B9C5F80080BDE8C2
:10135000F8830134ECE70028ECD00178436839B118
:101360003146104698473368002BE3D02E60EEE7F5
:10137000110103EB02125B58002BDBD02A60E6E779
:1013800064540000A45400009C01002008B103F044
:1013900058BF704707B58368DA7E8A421ED01B2289
:1013A0008DF800205B228DF8012031228DF802207B
:1013B0003B228DF8032033228DF8042001F12F0207
:1013C0008DF805206D22D9768DF8062000228DF843
:1013D0000720044900696A4600F091FC03B05DF8FB
:1013E00004FB00BFBA5F00000A4609B1FFF7D2BF95
:1013F0008168CA760069024A024900F080BC00BFD9
:1014000051630000BA5F000007B583681A7F8A4203
:1014100018D01B228DF800205B228DF80120342289
:101420008DF8022001F12F028DF803206D2219772B
:101430008DF8042000228DF80520044900696A46D1
:1014400000F05DFC03B05DF804FB00BFBA5F000074
:101450002DE9F34105460F461446002614B902B0A3
:10146000BDE8F081686803682246D3F80C80B9199A
:1014700001ABC047019B1E44E41A002BEED1AB68C0
:101480001A78032AEAD0D3F848219206FBD5B3F89C
:1014900048216FF34512A3F84821DFE70A460149C6
:1014A00000F02DBC1C5F000011B10069FFF7F6BF12
:1014B00070470000014900F022BC00BF995E0000A7
:1014C0000A4619B10249006900F019BC704700BF13
:1014D000225F00000A4619B10249006900F00FBC02
:1014E000704700BF285F00002DE9F04F044685B02B
:1014F0000E4690460025705D03F0ECFD20BB5FFAC0
:1015000088FA3046FFF742FFA3685B7E401BA3EBDF
:10151000080B584506EB050918D94A46002712F86A
:10152000011B039308460292019103F0D3FDDDE90C
:10153000022318B101990A2931D0BB4608EB0701F3
:101540008B422BD90137EAE70135D4E74B46002718
:10155000B84217D013F8012B0A2A05EB070A1BD152
:10156000206900F0C1FB49463A462046FFF770FF6C
:101570002069FFF79FFF5FFA88F120460AF1010515
:10158000FFF792FF2069711900F0B9FB206905B0DF
:10159000BDE8F04FFFF78EBF0137D9E75F462069FE
:1015A00000F0A2FB3A4649462046FFF751FF3D4472
:1015B000705D03F08FFD38B92069FFF77BFF51465E
:1015C0002046FFF771FF9CE70135F1E72DE9F34174
:1015D00005468068424F002480222146A0308DF8C5
:1015E000034003F0D4FD3F49286900F088FB2869D7
:1015F00000F07AFB4FF47A7647F0010768680368D9
:101600000122D3F810800DF1030101ABC047019B0B
:101610005BB94FF6C010B847019B002BEED1013EDD
:10162000B6B2002EEAD10D2035E09DF80330AA684D
:101630001B2B48D092F8A0101B29EDD1522B42D180
:101640001444002384F8A03092F8A1105B291FD124
:1016500002F1A20602211D4616F8010B4C1C3B2884
:10166000E1B264B21AD1002C20DB01F1A0041444D1
:10167000002314F8010BD8B9FA2B28BFFA23FA2D4E
:1016800013752B4628BFFA23937582F8A00002E059
:1016900082F8A0300B2002B0BDE8F08105EB850395
:1016A00000EB4303303B80299DB2D5D10C20F2E7FB
:1016B00003EB830300EB43004E1C303883B230064B
:1016C000F1B2F3D4D5E711190134E4B2092C81F851
:1016D000A030A1D9002382F8A0300420DBE700BFAE
:1016E000706300005E6300000CB473B506AB044683
:1016F00053F8046B01938368D3F848516D0719D5EB
:10170000DD7E8D4216D0B3F81B50FFF76DFE2069C9
:1017100001AA314600F072FBE9B22046FFF764FEF1
:10172000290A02D02046FFF76FFE02B0BDE87040E4
:1017300002B07047206901AA314600F05FFBF4E770
:101740002DE9F04F8BB0836817466C4A009204462F
:101750006B4A5B680D460821FFF7C6FFA6687068F4
:10176000FFF714FEB168033082B211B12046FFF7D3
:10177000BBFE644A00212046FFF7B6FF002F3DD094
:10178000002D3BD04FF00C0AA9460AFB075A082649
:10179000D9F80400FFF7FAFD8046D9F80000FFF7FA
:1017A000F5FD4044B04209F10C0988BF86B2CA4534
:1017B000EED106F10408544B544A00931FFA88F8FE
:1017C00006F107090821204643461FFA89F9FFF769
:1017D0008BFF4F494A462046FFF786FE2DB1DFF8C2
:1017E0002CB14FF0000ABA450AD1A368D3F80C8097
:1017F000B8F1000F3ED10BB0BDE8F08F0826D8E756
:10180000D5E9002373B32AB30192424A009208211A
:10181000414A2046FFF768FF6868FFF7B7FD03906D
:101820002868FFF7B3FD0399B31C591A091AC9B206
:101830002046FFF739FE394920693A2200F05FFA65
:10184000A96899B14A462046FFF74EFE0AF1010AFF
:101850000C35C8E7009343465A4608212046FFF757
:1018600043FFEDE7002AEBD00092F4E72069FFF791
:1018700021FEEBE700220592174606AE009605AB67
:101880000121404602F10109FFF740FD059D3DB1F0
:101890002868FFF77BFDB84200D987B24A46EDE7DA
:1018A000B9F1010FA7D01E4ADFF860A029462046F3
:1018B000FFF71AFF2A46BD1CADB205AB0096012109
:1018C000404602F10109FFF721FD059B002B92D054
:1018D0001B68009308212B4652462046FFF704FF61
:1018E000059B596831B17A1D92B22046FFF7FCFD85
:1018F0004A46E2E72069FFF7DDFDF9E76363000090
:10190000B45F0000BD5F000076630000C75F0000A9
:10191000CF5F0000DC640000E25F0000345F000085
:10192000EB5F000000221146FFF70ABF022910B545
:10193000044608D18368D3F848319B0703D5BDE836
:101940001040FFF7EFBF2069054A064900F0D7F9BC
:101950002069054A0349BDE8104000F0D0B900BF36
:101960005A630000BA5F000055630000012906D0E9
:10197000022906D18368D3F848319B0701D5FFF7C8
:10198000D1BF024A0221FFF7AFBE00BF695F00006E
:1019900038B58368D3F84821C2F3400592070C4656
:1019A00006D500221146FFF7CBFE2C46204638BD57
:1019B0000029FBD05B68024A0221FFF795FEF5E79C
:1019C000F95F0000012937B50546144604D103B07C
:1019D000BDE83040FFF7A6BF023918BF0121FFF76D
:1019E000D7FF48B963680193044B0093044A236806
:1019F00002212846FFF778FE03B030BD1D600000CD
:101A000014600000012907B504D103B05DF804EBB0
:101A1000FFF788BF02290AD153680193084B00934E
:101A20001368084AFFF760FE03B05DF804FB8CBF43
:101A30000121002103B05DF804EBFFF7A9BF00BF4F
:101A40001D60000014600000013910B518BF0121AD
:101A50000446FFF79DFF40B9044A0549206900F09C
:101A60004EF9A36845F218021A8310BD4B630000BB
:101A7000BA5F00000129F7B50446154633D18568E1
:101A8000FFF7A4FD18BBA36820691F7D9E7DFA2186
:101A9000FFF704FD20691D49FA2200F030F92046C5
:101AA000FFF794FD98B9A368197D6976A368C91BEF
:101AB0009B7D2B762046C9B2FFF70CFD297E891B42
:101AC000C9B2204603B0BDE8F040FFF7F9BCA368F7
:101AD00045F218021A830E4A0421204603B0BDE8DD
:101AE000F040FFF701BE022994BF00210121FFF75A
:101AF0004FFF48B96B680193064B00932B68064A69
:101B000002212046FFF7F0FD03B0F0BD2E5F00007C
:101B1000326000001D600000146000002DE9F041FB
:101B2000013986B018BF01210546FFF731FF40BBE0
:101B3000AB68DFF85480D3F840610446EEB1082C5E
:101B40001BD030460023092203A900F091FC9DF828
:101B50001420A968304609230132A03100F088FC26
:101B6000AB68049EA0330093671C234642460021C5
:101B70002846FFF7B9FD3C46E0E7AB68002283F852
:101B8000A02006B0BDE8F0816C600000013910B5FE
:101B900018BF01210446FFF7FBFE30B9A368B3F874
:101BA000482160F38202A3F8482110BD013910B525
:101BB00018BF01210446FFF7EBFE30B9A268B2F866
:101BC000483143F00403A2F8483110BD013910B583
:101BD00018BF01210446FFF7DBFE30B9A368B3F854
:101BE000482160F3C302A3F8482110BD013910B5A4
:101BF00018BF01210446FFF7CBFE30B9A268B2F846
:101C0000483143F00803A2F8483110BD022973B5EA
:101C10000D4694BF0021012104461646FFF7B8FE89
:101C2000014658B9022D0BD1736801930C4B0093F8
:101C30000C4A336829462046FFF756FD02B070BDB6
:101C4000A368094AD3F8483113F0080F074B18BFAF
:101C50001346074A204602B0BDE87040FFF744BD76
:101C60001D60000014600000245900007660000030
:101C70007A600000013910B518BF01210446FFF752
:101C800087FE48B9A368C3F83801E3685B68BDE81C
:101C90001040186800F075BC10BD00007FB5013918
:101CA00018BF01210446FFF773FE0546B8B9E36883
:101CB0005B681E68304600F061FCB268A168C3B280
:101CC000CDE9013264204343B3FBF2F3DBB200936E
:101CD000D1F83831034A29462046FFF705FD04B004
:101CE00070BD00BF8B600000826810B504462AB149
:101CF00043690168006998470023A36010BD0EB4D2
:101D000003B5039921B104AB01AA019300F076F861
:101D100002B05DF804EB03B070470A2938B50446F9
:101D20000D4602D10D21FFF7F8FFA3682268591C68
:101D3000A160D554D4E901329A4204D32046BDE8CB
:101D40003840FFF7D1BF38BD2DE9F84F9846DDE99F
:101D50000A43154682460F460A464FF00109AA4239
:101D60000FD2C14538BFC14613F0010B01D16CB988
:101D700000240126B8F1010F1BD908F1FF386E438A
:101D8000F8E709F10109B2FBF5F2E8E79B070ED588
:101D9000B8F1000F0CBF30262026A145E9D2013C46
:101DA00031465046FFF7B9FF002CF6D1E0E7202678
:101DB000F3E7B7FBF6F39D42E1D9DFF83C80B7FBD0
:101DC000F6F3504618F8031006FB1377FFF7A5FF4C
:101DD0003346AB42B6FBF5F6F1D2BBF1000F02D0B1
:101DE0000CB1A14501D3BDE8F88F20215046013C3C
:101DF000FFF793FFF4E700BF036500002DE9F74FFD
:101E0000054617468846002900F03E8118F8011B58
:101E100049B92B7B002B00F03781284603B0BDE881
:101E2000F04FFFF761BF252940F0B780002698F8F2
:101E300000302D2B424608F1010823D0302B24D04E
:101E40002B2B25D000242A2B02F1010123D13B6842
:101E50001A1D1B683A601C440A4613782E2B26D1A3
:101E600001324FF0000A104610F8011BA1F1300CAE
:101E7000BCF1090F1DD80A2303FB0A13A3F1300A92
:101E80000246F0E746F00106D1E746F00206CEE74B
:101E900046F00406CBE711F8013CA3F13000092815
:101EA000DBD80A2202FB0434303C0A46CBE74FF071
:101EB000000A12F8011B01F0FB0068289046F8D0D8
:101EC000782909D86F290CD8632962D022D825290E
:101ED00063D0582900F0888098F80030002B95D105
:101EE00097E770390829F7D801A353F821F000BF0C
:101EF00063200000D91E0000D91E0000F91F000059
:101F0000D91E0000D71F0000D91E0000D91E0000F6
:101F1000E91F0000642901D06929DDD13A68D2F8AF
:101F20000090111D89EAE9723960A2EBE9724FF065
:101F3000010B092A35DCD34538BFD3462CB1B9F1A2
:101F4000000F01DB720700D5013CB30702D5BAF1DF
:101F5000000F03D0F00701D44CBB0024B9F1000FEF
:101F60002DDAC9F100092D212846FFF7D6FE06F02B
:101F70000302022A04D1BAF1000F01D11CBB0024D4
:101F8000CDE9004653460A2249462846FFF7DCFEC3
:101F9000A2E73B681A1D19783A602846FFF7BDFE94
:101FA0009AE70A230BF1010BB2FBF3F2C1E7A34559
:101FB000D4D220212846013CFFF7AFFECCE77107C1
:101FC000D5D52B21D0E7A345DAD230212846013CD4
:101FD000FFF7A3FED2E73968CDE900460A1D3A6053
:101FE00053460A220968D0E739680A1D3A60CDE9EC
:101FF000004653461022F5E73B681A1D3A6016F07A
:102000000106D3F8009024D1B9F1000F03D048465F
:1020100003F017F90646B4421DD809F1FF3919F843
:10202000011F00293FF458AF2846FFF776FEF6E778
:1020300028460136FFF771FE19F806100029F7D17E
:10204000A642BFF449AF20212846013CFFF765FEB8
:10205000F6E70026F0E720212846013CFFF75DFE69
:10206000D9E73B681A1D3A60302128461C68FFF703
:1020700054FE78212846FFF750FE00220823CDE9C0
:1020800000322146102280E703B0BDE8F08F00BF88
:102090002DE9F743DDF82880B0B9524B5B88002B5F
:1020A00000F09780504B5148514AC01AC0080E2486
:1020B000504B00940004504940F0010001F075F8C5
:1020C000204603B0BDE8F0836AB9464B5B88002B1D
:1020D0007FD0454B4548494AC01AC0080E24454B9D
:1020E00000940004E7E7D0F800E0BEF1000F0DD146
:1020F0003C4B5B88002B6ED03B4B3C48404AC01A9F
:10210000C00808243B4B00940004D4E76BB9354B5E
:102110005B88002B61D0344B34483A4AC01AC0085F
:102120000924344B00940004C5E74568D5F80490B1
:10213000B3FBF9F509FB15356DB12A4B5B88002B14
:102140004BD0294B2948304AC01AC0080924294BD2
:1021500000940004AFE78D070DD0224B5B88002B65
:102160003DD0214B2148294AC01AC0081024214BD8
:10217000009400049FE712F0030F0CD0194B5B880A
:102180006BB3194B1948224AC01AC0081024194BC6
:10219000009400048FE7C568A9420DD34D1EEC18CA
:1021A0000569AC4208D8CDF82880DEF80C40A4467A
:1021B00003B0BDE8F04360470A4B5B887BB10A4B34
:1021C0000A48144AC01AC00810240A4B009400049C
:1021D00071E70E2474E7082472E7092470E71024DD
:1021E0006EE700BFB4000020C052000000540000A1
:1021F00013650000BC6600001865000095650000CE
:1022000041650000546500009B650000C565000045
:10221000DD65000000660000F7B5A0B9374B5B88AC
:10222000002B63D0364B3748374AC01AC0080E24FB
:10223000364B00940004364940F0010000F0B5FF31
:10224000204603B0F0BDD0F800C0BCF1000F0DD1A6
:102250002A4B5B88002B4BD0294B2A482D4AC01AA9
:10226000C0080824294B00940004E4E76AB9234B12
:102270005B88002B3ED0224B2248274AC01AC00858
:102280000924224B00940004D5E74568D5F800E006
:102290000EF1FF350D420CD0184B5B8863B3184B21
:1022A00018481E4AC01AC0081024184B0094000495
:1022B000C1E7C568A9420CD34D1E0EFB0254056947
:1022C000AC4206D8DCF81040A44603B0BDE8F040AC
:1022D00060470A4B5B887BB1094B0A48104AC01A19
:1022E000C0081024094B00940004A4E70E24A7E7BB
:1022F0000824A5E70924A3E71024A1E7B4000020DF
:10230000C05200000054000013650000A9660000E0
:102310001865000041650000546500002766000054
:102320004D6600002DE9F84FB0F806A04579D2F8C7
:1023300000B09DF828900AFB05F5043D88460BEB9C
:102340000301A94203F1040488BFA5EB030BB4FB0E
:10235000FAF607460AFB1644C2F800B04EB9AAEBDB
:1023600004055D4528BF5D46BBF1000F04D1BDE803
:10237000F88F3F68013EF1E7043408EB06003C4467
:102380002A46B9F1000F0DD02146ABEB050B02F048
:10239000D5FEDA452E443F6855464FF0000428BF6D
:1023A0005D46E1E701462046EFE7FEF763BFF8B57B
:1023B00046790146721E0546002393422D6803D3D9
:1023C0000024A64202D8F8BD0133F6E70F6828467C
:1023D000FEF787FF01343946F3E72DE9F843068B12
:1023E000CD1C0746FEF75DFF043E35440446B5FBB1
:1023F000F6F5F0B14FF48073EDB28380C680013DF5
:10240000076081464FF00008A84512D23846FEF713
:1024100048FF064648B163790133637108F101084A
:10242000C9F8000007608146EEE72046FFF7BFFFCE
:1024300034462046BDE8F88301210430FEF7A2BEF1
:1024400010B5012104460430FEF7A8FEC0B220B941
:102450002046BDE81040FFF7AABF10BD1FB503928C
:102460000022009203AAFFF75DFF05B05DF804FBB0
:102470001FB503920122009203AAFFF753FF05B094
:102480005DF804FB026813685268934291BFD01A4A
:1024900080680130801888BFC01A704710B50446A4
:1024A0000020FDF7F9FF2046FFF7ECFF044600206F
:1024B000FDF7F4FF204610BD2DE9F04F8368D3F8F7
:1024C0004831C3F340059B078BB0064606D5002272
:1024D00011460BB0BDE8F04FFFF732B9012906D91C
:1024E000204A02210BB0BDE8F04FFFF7FDB81E4CAB
:1024F0001E4BDFF88090DFF880A01B1B1C22B3FB73
:10250000F2F8A84502D10BB0BDE8F08FE36809935B
:102510002368A768D3F808B02046FFF7BFFF94F8F8
:1025200010E0134A642303FB00F1BEF1000F18BF53
:102530004A4603FB0BF3B3FBF7F3CDE9043BB1FBD6
:10254000F7F1099B0191CDE90672CDE902070093ED
:102550005246636908213046FFF7C6F801351C343E
:10256000CFE700BFFA5D0000A4520000C052000097
:10257000DC660000E5660000F1660000036898680C
:102580007047036800229A607047836800225A608F
:10259000C3E904229A60DA601A6070474FF4A063BE
:1025A00000FB0330084B1A18A0F5806030B50344D7
:1025B000064C03F580619342A1EB030003D253F86C
:1025C000045BA542F7D030BD000300200ED0ADDE85
:1025D0002DE9F04FDFF8FC90DFF80881DFF808B153
:1025E00085B0054600260020FDF756FFD9F800709B
:1025F0005FFA86FA2FB1D9F804702E4B002F08BF6E
:102600001F460020FDF74AFF002F3FD05046FFF73E
:10261000C5FF33465A46082104462846FFF764F8AA
:102620003B46254A08212846FFF75EF808F2FF33AB
:10263000002C35D04FF480626420CDE9024244433F
:10264000A40ACDE900341D4A434608212846FFF775
:102650004BF81B4B1B7853452AD01A4B1A684FF086
:102660000043F3401342184A184B08BF1346184A58
:1026700008212846FFF738F8164A0C2303FB0623E7
:1026800008219B68144A2846FFF72EF80136032ECE
:1026900009F10C0908F5A068A5D105B0BDE8F08FD7
:1026A00000930E4A434608212846FFF71DF8D0E75D
:1026B0000B4BDCE7D1670000FE6700000C680000F0
:1026C0009402002098020020E9670000E067000003
:1026D0005E680000001200206B6800004668000081
:1026E000D867000000040020F367000000230428DE
:1026F000CB604B6098BF044B044A98BF53F820301E
:102700008A600B60704700BF046E0000E06D00003F
:10271000CB6800225A717047C368DB6800225A7187
:102720007047CB6801225A717047C368DB68012289
:102730005A7170470D4A8A6070B50D4A0D4C0023DE
:10274000121BCB604B600B6012091D469A4207D0EA
:10275000E6683679FF2E05D0854202D1A3680B606A
:1027600070BD013501331034F0E700BF186E000072
:10277000B4540000A45400002DE9F3478368D3F853
:102780004831C3F340059B07074606D50022114692
:1027900002B0BDE8F047FEF7D3BF144E144CDFF88B
:1027A0005880DFF85890DFF858A0A41B2409A542F0
:1027B00002D102B0BDE8F087F168B3680A79FF2A58
:1027C00007D10C4A08213846FEF78EFF0135103636
:1027D000EDE74879002814BF41464946CDE900128B
:1027E000384652460821FEF77FFFEFE7A454000069
:1027F000B4540000F9680000E8680000F0680000C8
:10280000186900002DE9F74F154D164C9946641BC9
:1028100052F8043C06468846174624094FF0000B40
:102820005C4507D1104A0221304603B0BDE8F04FA5
:10283000FEF75ABFA9680193184602F0DBFCAA46CE
:10284000019B103540B93B46424651463046CC4686
:1028500003B0BDE8F04F60470BF1010BE0E700BFAC
:10286000A4540000B454000039690000014BFFF784
:10287000C9BF00BF252C0000014BFFF7C3BF00BF3D
:1028800011270000014BFFF7BDBF00BF2327000049
:10289000014BFFF7B7BF00BF012D0000037813F015
:1028A000040216D003F00303012B03D0022B09D03E
:1028B000012070470A6800880232C0F38310024486
:1028C0000A60F5E70B684288023303EB92130B6052
:1028D000EEE71046704700002DE9F04FDFF810A139
:1028E0000F4685B00446861C00201546FDF7D4FD32
:1028F000DAF804203A60DAF8083003F580739B1A9E
:102900000AF21C470AF583690AF21448B34219D344
:102910000020002D68D004F00F039B0143F0050355
:1029200063F30F00DAF80430DAB2033233444AF8C2
:1029300022000020CAF80430FDF7B0FD012005B0E8
:10294000BDE8F08F01213846FEF71CFC4846FEF733
:1029500031FC4046FEF72EFCDAF808000090C0B2C9
:1029600003300AEB80006946FFF798FF009B30BBFD
:10297000DAB20AEB8202D16801919A1C0133DBB210
:102980000AEB83030092D3F80CB001F00303012B90
:1029900022D0022B15D083464046FEF70EFC10B124
:1029A000009BCAF8083059463846FEF7EBFBDAF8C8
:1029B0000830DAF8042003F580739B1AA6E7D8B232
:1029C000CEE7BDF80630C3F3891303334FEA1B4B40
:1029D00002EB93030093DFE7BDF80430C3F38313E6
:1029E0004FEA1B4B1344F5E7A40544F0060099E7B2
:1029F000F4120020012907B5034604D08168D1F8FC
:102A00004811890707D500221146184603B05DF822
:102A100004EBFEF795BE53680193054B00931368D2
:102A2000044A0221FEF760FE03B05DF804FB00BF1C
:102A30001D6000004F69000030B599B10A4B0B4A88
:102A40000B49D21AD20800239A4201D1052006E090
:102A500031F823500468A54202D10360002030BD44
:102A60000133F1E70846FAE7C0520000485400007D
:102A7000140000202DE9F84F1E4B1F4801221A7048
:102A8000FFF793FC814690BB1C48DFF880801C4C0C
:102A9000DFF87CA0FFF779FDA4EB0804E4084D46BD
:102AA000A54208D10023174A19469C421AD022F8A1
:102AB00023100133F9E700273E4608EBC50BB5426A
:102AC00009D058F83610DBF80000142202F012FB8F
:102AD0000028C8BF01370136B442F0D12AF825706A
:102AE0000135DDE70848A200002102F050FB48460E
:102AF000BDE8F88FF412002048540000D46D0000A7
:102B00004854000016000020D8000020C0520000E9
:102B10001400002007B5019001A8FFF78DFF30B920
:102B2000019A044B53F8320003B05DF804FB002017
:102B3000FAE700BFC0520000002310B5CB604B6025
:102B4000034B8B600C460121FFF7E4FF206010BDB2
:102B5000E06D0000094B013903EBC000032909D8DF
:102B6000DFE801F00A02040604207047007970478C
:102B7000407970470020704702207047C052000023
:102B800030B5124C00EB400054F8215002FA00F32B
:102B9000072202FA00F06B400D4A03406B40C3F37A
:102BA000821044F8213002EB8101C3F3C202824259
:102BB00038BF0246C3F34220824203F0070338BF06
:102BC0000246934238BF13464B8030BDD8000020E8
:102BD0001400002013B50446019101A8114693B1D9
:102BE000FFF72AFF10B1002002B010BD01990B4A77
:102BF00004EB440052F8212007238340134023FABA
:102C000000F0C0B2F0E7FFF717FF0028EBD1019A00
:102C1000034B03EBC2039879E6E700BFD80000201E
:102C2000C0520000294B2A4A2DE9F04F9B1A4FEA67
:102C3000D30ACB685B7985B005460E461BB9254A99
:102C40000221FEF751FD244B244ADFF8A48008211D
:102C50002846FEF749FD224A08212846FEF744FD92
:102C60000024544502D105B0BDE8F08FF36893F815
:102C7000049001231A4621464846FFF7ABFF002384
:102C80000746012221464846FFF7A4FF01210328F9
:102C900081468346204628BF4FF00309FFF73AFFDD
:102CA0005FFA89F90F4A58F82910034658F82700A7
:102CB0000D4F0090CB4598BF1746CDE901170B4A41
:102CC00008212846FEF710FD0134CAE748540000E9
:102CD000C05200005B6900006E6900007A69000064
:102CE000986900009A5E000059690000D5690000EB
:102CF000F06D000013460A46C168FFF793BF00005D
:102D00002DE9F04F2DED028B054683B09B4616460C
:102D1000002A5DD0DBF80070CB68554993F804A019
:102D2000384602F067FA0446F0B9012E09D1514A3B
:102D30000221284603B0BDEC028BBDE8F04FFEF740
:102D4000D3BCDBF804304C4F57F8041B00930A2225
:102D5000184602F0CFF9002800F083800134052CDA
:102D6000009BF1D1454A15E04549384602F042FA48
:102D7000044668B9012E36D04FF00108414B424A53
:102D8000A3EB02094FEAD9030093DFF808914FE063
:102D90003E4A3B460221284603B0BDEC028BBDE80B
:102DA000F04FFEF7A1BC00231A4631465046FFF70C
:102DB00011FFA04211D200213046FFF7ABFE424680
:102DC000034602212846FEF78FFC0136BE42EAD1B7
:102DD00003B0BDEC028BBDE8F08F22463146504671
:102DE000FFF7CEFEF1E7274F274BDFF8A480FF1A4D
:102DF000FF080026EAE700213846FFF78BFE18EEB1
:102E0000101A202202F076F9034608B1013716E0C5
:102E10000246019039465046FFF7DCFEA042019B76
:102E200018D3224639465046FFF7AAFE08F101089A
:102E3000B045CDD25BF8283008EE103A0027009B51
:102E4000BB42D8D15BF828304A4602212846FEF71B
:102E50004BFCEBE719463846FFF75CFE0C4A03468D
:102E6000F3E7022EE4B2BED04FF0020886E700BFBF
:102E7000EB690000F2690000F06D00005D6A00007F
:102E8000096A000048540000C0520000116A0000A6
:102E9000266A0000496A000013460A46C168FFF727
:102EA0002FBF0000034BD3E90130C31A58425841E9
:102EB000704700BFF41200202DE9F04385B0FFF702
:102EC000F1FF0546002840F00A81864CC4F818043A
:102ED000BFF34F8FA3680093DBB2033304EB83008F
:102EE0006946FFF7DBFC009B18B1D4F81824002AD0
:102EF00063D0DAB2991C013304EB8202DBB204EB3B
:102F00008303D268DB68029302F00303022B019271
:102F100000915DD1BDF8063073489DF80450C3F3AD
:102F200089184746502F28BF502707F1080167F33B
:102F30008F13C1F30901ADF80630FFF74EFAC5F360
:102F4000C2050646002800F0B180FFF775FA00239D
:102F5000082201A93046FFF781FA0099CB43DBB282
:102F60000133C9B20331B7EB830F4FEA830204EB9D
:102F700081012AD95FFA82F90823A7EB09073046B5
:102F8000FFF76CFAFFB209F10803584903F0FC039C
:102F90003A463046FFF762FA009B08F1030803EB5C
:102FA00098030093D4F81834002B49D1D4F8107446
:102FB000DFF84C914FF0070867E062689A428BD8BF
:102FC000A260284605B0BDE8F08308233A46E0E752
:102FD000012B6BD1BDF804504348C5F3831106297A
:102FE00028BF062161F38915023101F00F01890024
:102FF000ADF80450FFF7F1F9C5F3C2050646002805
:1030000054D0FFF719FA0023082201A93046FFF730
:1030100025FA0027BDF80420C2F38312BB009742B3
:1030200003F10803BED200994A1CC9B203310092D1
:1030300004EB810104223046FFF710FA0137E9E77B
:103040003046FFF7FDF9FFF72DFF80F00100C5B214
:10305000B7E7FB685A79B2B11B79BDF8081003EBEA
:10306000430259F8211008FA02F3052D03EA01037F
:1030700023FA02F308BF0325AB4204D33B68314671
:103080001B6838469847FB681F68002FE1D130461F
:10309000FFF7D6F93846FDF7FFF9D4F818340BB925
:1030A000009BA3600020FDF7F9F9CCE7D4F81044A9
:1030B00074B90F4B5B88012BC5D90E4B0E480F49D5
:1030C000C01AC008000440F0020000F061F8BAE73E
:1030D000236820469B689847E3681C68E8E700255A
:1030E0006FE700BFF41200204854000000130020D6
:1030F0006C000020C0520000705300007A6A00008B
:10310000D80000202DE9F34704460E46924601A957
:10311000012218469946FFF7DFFB1B4F10B3019DB4
:103120004FF00008AA1CC84508EB020123D117483C
:103130000021FDF7F8FF80F31000000440EA14407E
:10314000E4006B1C04F03804DBB2EDB244F001047F
:1031500007EB8303033544EA881444EA8624D860E5
:1031600047F825403B781BB1FFF7A6FE0028FBD1AE
:1031700002B0BDE8F087C9B207EB81015AF82830E8
:10318000CB6008F10108CEE7F412002010170020F0
:1031900000231A46FFF7B6BF07B50123019201AA23
:1031A000FFF7B0FF03B05DF804FB1FB5CDE90123C5
:1031B000069B039301AA0323FFF7A4FF05B05DF864
:1031C00004FB1FB5CDE90023069B0293079B0393E5
:1031D0006A460423FFF796FF05B05DF804FB000084
:1031E0002DE9F84388461B49D1F8103405460024E0
:1031F0001A468AB9EA681471A3B9C1F81054136069
:10320000154B164EF61AF608002703F10709B742C8
:103210000DD12046BDE8F883D2681079A04212D0C3
:103220001268E6E7DB68196811601D60E8E719F8C5
:103230003720EB6842453946187928BF4246FFF7E8
:103240009FFC0137E3E701340A2CD1D14FF0FF3462
:10325000DFE700BFF4120020C05200004854000015
:1032600038B5084B0125D3F810441D7004B938BD9A
:10327000E3685D71236820465B689847E3681C68D3
:10328000F4E700BFF412002010B588B00023CDE9A8
:103290000233CDE9003304931F4B204A0593204BA2
:1032A00006929B1A9B08079302AA6B4643F227419A
:1032B00041F26E00FDF7F6FDB0B905A902A8FDF7D1
:1032C000E9FD184B5B88022B04460AD91648174BB8
:1032D0001749C01AC0080004224640F00300FFF757
:1032E0005BFF204608B010BD48F20963984210D138
:1032F00005A902A8FDF7CAFD0A4B5B88022B04460C
:10330000EFD90948094B0B49C01AC00800042246EE
:10331000E3E70324E5E700BF6E102734D800002060
:103320009C0100206C00002070530000C05200007F
:103330008B6A0000BC6A000010B58368D3F848317E
:103340009B07044605D50022BDE810401146FEF754
:10335000F7B9FFF799FF30B9044A08212046BDE8C4
:103360001040FEF7C1B9024A0221F7E7ED6A0000FA
:10337000056B000000B589B00023CDE90533CDE928
:103380000133079305AA01AB43F2274141F26E00D6
:10339000FDF788FD90B9CDE9030003A905A8FDF765
:1033A0002BFD40B91048114A0499121A01F0C6FECB
:1033B00005A8FDF747FD09B05DF804FB48F2096375
:1033C00098420FD10A4B5B88012B09D909480A4B57
:1033D0000A49C01AC008000440F00200FFF7D8FEF6
:1033E0000520E8E70320E6E7D80000209C01002044
:1033F0006C00002070530000C05200002A6B0000D7
:1034000010B58368D3F848319B07044605D50022E0
:10341000BDE810401146FEF793B9FFF7ABFF30B996
:10342000044A08212046BDE81040FEF75DB9024A73
:103430000221F7E74F6B0000676B000030B5C388CF
:1034400085B004460D4633B1144A00921449154A1A
:103450002846FEF754FC217A05291DD0637A4BB12A
:10346000A088FFF777FB104B104953F8202028461F
:10347000FEF745FC227A0E4BA08853F822200392D7
:103480000021FFF747FB039A0A490346284605B087
:10349000BDE83040FEF733BC05B030BD806F0000A2
:1034A000686F0000606F0000D46F0000BA5F00001A
:1034B000F86F0000856F000007B503460846197ACB
:1034C000052911D05B7A2BB1094A0A490190FEF710
:1034D00016FC019808490190FEF711FC019803B011
:1034E0005DF804EBFEF700BC002AF8D0F2E700BF5D
:1034F000806F0000BA5F0000985E00002DE9F04385
:1035000085B01F460C9D002395F80C902B73064642
:103510000C46904629463846FFF790FFB8F1060F53
:1035200009D8DFE808F00412181F2833400031469C
:103530002846FEF7E4FB002229463846FFF7BCFF89
:1035400085F80C9005B0BDE8F08322683146284626
:10355000FEF7D5FBEFE7D4E9002331462846FEF716
:10356000CEFBE8E7A36800933146D4E90023284660
:10357000FEF7C5FBDFE7E3680193A36800933146DC
:10358000D4E900232846FEF7BAFBD4E72369029367
:10359000E3680193A36800933146D4E900232846E9
:1035A000FEF7ADFBC7E76369039323690293E36802
:1035B0000193A36800933146D4E900232846FEF71F
:1035C0009EFBB8E708292DE9F74F80460E461746BF
:1035D0001C463DD800251B7B2573214610460193D0
:1035E000FFF72CFFDFF88CA0DFF88CB0AE4232D9A9
:1035F00018F8052059462046FEF781FB0135082DB5
:10360000F4D11B49DFF874A0DFF874B02046FEF750
:1036100076FB4FF000094E4524D918F809507E2D4D
:103620001ED8284601F05EFD002814BF2A462E222F
:1036300059462046FEF763FB09F10109B9F1080F6D
:10364000E9D1012221463846FFF736FF019B23735B
:1036500003B0BDE8F08F51462046FEF750FBCDE7A2
:103660002E22E5E751462046FEF749FBE4E700BF7E
:10367000996F0000956F00008F6F0000976F00003A
:10368000345F0000F0B595B01D46164608460C465E
:10369000FEF7D2FE1A9B0D93CDE9086500252B4657
:1036A000082205A920460A958DF82C500C95FEF7A6
:1036B000DFFE079B0293069B03939DF814308DF861
:1036C000115003F00302012A1DD1BDF81420059DFD
:1036D000C3F3C203C2F383168DF81030B20008237F
:1036E0000EA92046FEF7C4FEC5F3952508AB00934E
:1036F000324602AB0EA92846FFF700FF2046FEF730
:103700009FFE15B0F0BD022AF8D1BDF81650C3F3E4
:10371000C203C5F389158DF810300827082D2E46F1
:1037200028BF08263B4632460EA92046FEF7A0FEDB
:10373000AD1B08AB02AA31460EA83744FFF742FF83
:10374000002DEBD1DAE7704707B5044B0093044A2C
:103750004023FFF797FF03B05DF804FBA537000097
:10376000AD17002030B50C4D0FCD89B06C460FC49D
:1037700095E80F0084E80F00062308480093002214
:10378000694600F08FF808B1FCF722FE044B0022D6
:103790001A7009B030BD00BF0C700000D0010020CD
:1037A000AC17002038B50D480D4C0E4D002323708A
:1037B0000378EB5CD2B263B1043001F035FA08B1A2
:1037C000FCF706FE084B1A7812B12378002BFBD0C9
:1037D00038BD0C3000F0D6FFF1E700BFD00100206B
:1037E000ED17002044180020AC17002008B5084849
:1037F000084A0378D35C33B1043001F079F9BDE8AD
:103800000840FFF7AFBF0C3000F046FFF7E700BFFE
:10381000D001002044180020FFF7A4BF08B5FFF72F
:10382000FBFF04480421FFF7DBFC034B01225A7124
:1038300008BD00BFA4540000E40100201FB50378B8
:103840008DF800304368019383688DF80830C368B1
:10385000054A0393054B684653F8213052F821106E
:10386000984705B05DF804FB3C1800204018002084
:103870001FB503788DF800304368019383688DF895
:103880000830C368054A0393054B684653F8213056
:1038900052F82110984705B05DF804FB3C18002051
:1038A00040180020F0B5194B90F800C091F81DE0C9
:1038B00043F82C20164B16460A6943F82C20154B6A
:1038C00003F80CE00C4607460FCC89B06D460FC5D7
:1038D00094E80F0085E80F00CDF810C0BEF1000F8E
:1038E00009D0002E0C4A694608BF3246381D01F047
:1038F0003DF809B0F0BD002E084A694608BF3246BF
:1039000007F10C0000F014FEF3E700BF40180020A0
:103910003C180020441800203D3800007138000099
:1039200000F18040002382B0036003680193019B93
:1039300002B070474FF0804110B5D1F8003163B14B
:103940004FF48070FFF7ECFF0D4B58790122C1F85E
:10395000082310B95A711B6898474FF08042D2F87B
:10396000043163B14FF48270FFF7DAFF0223C2F82B
:103970000833034BBDE810401B680120184710BDF9
:103980004818002000F1804000F5C040002382B0BC
:10399000036003680193019B02B07047800000F14F
:1039A000A040D0F8002722F44032C0F80027D0F819
:1039B000003743EA0141C0F8001770472DE9F74F7F
:1039C00000244E4D01944FF48072012102F1804396
:1039D00003F5C04390B21B68012B06D1D5F8043320
:1039E0000B4202D0FFF7CEFF0C430432B2F5907FBA
:1039F0004FEA4101EAD1414BD3F87C31012B0CD184
:103A00004FF4BE70FFF7BEFF4FF0A04344F00044F8
:103A1000D3F820250192C3F82025E3B2D3B1384F63
:103A200000250126344210D0AB0003F1804303F59A
:103A3000C043D3F81005D3F8101557F8253023B13B
:103A4000C1F30141C0F3042098470135082D4FEA26
:103A50004606E7D1002C48DA294D4FF0A048294E00
:103A60004FF00009012716F9013B5A1C31D0C3F36E
:103A7000C20208326A44DCB212F8042C03F03F0A96
:103A800003F0070307FA03F31A4222D00AF5E073A2
:103A9000504658F82330C3F3014BBBF1020F0CBF63
:103AA00003210221FFF77AFF07FA0AF3C8F820354D
:103AB00005EB0A0393F9303055F823304BB1A109D7
:103AC000032904D0BBF1020F12D1012901D15046C4
:103AD000984709F10109B9F1040FC4D1D8F820358C
:103AE0000193C8F82035002BB9D103B0BDE8F08FA1
:103AF000BBF1030FEDD10229E8E700BF00600040F1
:103B000050180020A0180020F0B53F4B3F4CD3F8D0
:103B1000142185B08AB10022C3F81421D3F81431DE
:103B20000093009B637943F0080303F01202122A0A
:103B3000637104BF43F020036371334BD3F8042156
:103B40008AB10022C3F80421D3F804310193019B08
:103B5000637943F0040303F01102112A637104BF77
:103B600043F020036371284BD3F80821BAB1002534
:103B7000C3F80851D3F808210292029A244804227B
:103B8000C3F808232946C3F80055236898472368DB
:103B90002048294698470123237105B0F0BD637979
:103BA00003F00F020F2A08D0D80701D4190704D454
:103BB00062799207F1D45B07EFD56279276802F04A
:103BC000F30312F020020BD023F0300343F0100374
:103BD0006371012100203B4605B0BDE8F040184765
:103BE0000B4D95E8030002AE86E8030015E90300DB
:103BF00043F0100385E80300C4E902226371012148
:103C00003046B847C9E700BF00500240AC1800205A
:103C1000BC180020B418002000F1804000F5E83006
:103C2000002382B0036003680193019B02B07047D8
:103C30001FB53C493C4CD1F80021002A47D04FF435
:103C40008070FFF7E9FFA37CDA4302F0010204EB86
:103C50008201496811B9617C02292DD1607C02285A
:103C600018BF04EB83034FF000010BBF012358681A
:103C7000637459604FF001038DF80C10E1740EBFAE
:103C800002910290A2748DF80430236801A898472D
:103C9000637C022B01D101236374237D53B1012383
:103CA0008DF80430002302938DF80C30237501A8A1
:103CB0002368984704B010BDE37C002BE8D18DF851
:103CC0000430029301238DF80C30E374DDE7D1F862
:103CD0000431002BE1D04FF48270FFF79DFFC1F853
:103CE0000025A37C627404EB83038DF80C205968D3
:103CF0008DF8042021B15A600291236801A89847E9
:103D0000A37CDB4303F0010304EB83035A682AB16D
:103D1000029200225A6001A8236898470023A374E6
:103D2000BBE700BF00D00140C418002000F1804074
:103D3000002382B0036003680193019B02B07047C7
:103D40004FF0804310B5D3F80443610709D5D3F889
:103D5000083133B14FF48470FFF7E8FF114B1B6853
:103D60009847A2060CD54FF08043D3F814313BB1ED
:103D70004FF48A70FFF7DAFF0B4B00201B6898475F
:103D800063060ED54FF08043D3F818314BB14FF492
:103D90008C70FFF7CBFF044BBDE810401B6801207F
:103DA000184710BDDC180020E018002008B5FFF708
:103DB000C7FFBDE80840FFF7BDBD00000E4B9842AD
:103DC000024610D0B0F1402F0FD003F500339842D7
:103DD0000DD0A3F5803398420BD0084908488A4299
:103DE00018BF0020704707487047074870470748CA
:103DF00070470748704700BF003000400020004077
:103E000004190020E4180020EC180020F418002009
:103E1000FC180020014B1B68184700BFE418002065
:103E2000014B1B68184700BFEC180020014B1B68B2
:103E3000184700BFF4180020014B1B68184700BF4B
:103E4000FC180020014B1B68184700BF0419002014
:103E500070B50D46FFF7B2FF044608B9002070BDEB
:103E60000020FCF719FB267916B901232560237180
:103E70000020FCF713FB002EF0D01120EFE708B56F
:103E8000FFF79CFF10B100230360037108BD0023FE
:103E9000435082B043580193019B02B07047D0F861
:103EA000103170B505460C4653B14FF48871FFF7D9
:103EB000EEFF63795A0703D523680BB101209847B9
:103EC000D5F814315BB14FF48A712846FFF7DFFF54
:103ED00063791B0703D523680BB102209847D5F8F7
:103EE0001C315BB128464FF48E71FFF7D0FF60792B
:103EF00010F0100002D1236803B19847D5F80431BF
:103F000063B14FF482712846FFF7C1FF012323718B
:103F100023681BB1BDE870400320184770BD000046
:103F200001490248FFF7BBBF0C19002000C0014047
:103F300001490248FFF7B3BF1419002000100240E6
:103F400001490248FFF7ABBF1C19002000200240C6
:103F500010B52D4CD4F8003186B0C3B1D4F8043379
:103F6000D90714D50023C4F80031D4F800310193E7
:103F7000019B4FF48073ADF81030D4F80C358DF8F8
:103F80001230224B06AA12E903001B689847D4F8A6
:103F90000431E3B1D4F804339A0718D50023C4F8E8
:103FA0000431D4F804310293029B4FF48273ADF8CC
:103FB0001030D4F81835ADF81230D4F84835ADF8D3
:103FC0001430124B06AA12E903001B689847D4F874
:103FD0000831BBB1D4F804335B0713D50023C4F810
:103FE0000831D4F808310393039B4FF48473ADF880
:103FF000103006AA054B12E903001B6806B0BDE8A5
:104000001040184706B010BD0020014024190020C0
:10401000074B0022C3F8002182B0D3F8002101929F
:10402000019AD3F80805034B1B68C0B202B01847C9
:1040300000D00040281900200023435082B043588C
:104040000193019B02B070472DE9F047DFF898809B
:1040500004460D46914600F5A07A4FF480370026BD
:10406000D4F80433B10001F5A0713B4289B20DD000
:10407000DAF8003053B1C4F848732046C4F8087326
:10408000FFF7DAFF58F82530F0B298470136B1450E
:104090004FEA47070AF1040AE2D1D4F80433DA07F9
:1040A0000CD5D4F800314BB120464FF48071FFF7A6
:1040B000C3FF0D4B042053F825309847D4F8043340
:1040C0009B070ED5D4F804315BB120464FF48271C2
:1040D000FFF7B2FF044B052053F82530BDE8F04749
:1040E0001847BDE8F08700BF2C19002002480322C2
:1040F0000021FFF7A9BF00BF00B000400248042222
:104100000121FFF7A1BF00BF0040024000F1804045
:1041100000F5E040002382B0036003680193019B37
:1041200002B07047F0B5524B524CD3F8043185B011
:10413000002B3DD094F82E204FF48270FFF7E6FF5D
:104140002AB394F82F3013BB494AD2F80031002B20
:1041500032D04FF48070FFF7D9FF638B94F82D00B5
:10416000834250D921891B1A9BB289B26383CB1A2F
:10417000616801EB4303C2F82C36C2F830064FF4F5
:104180008270FFF7C3FF3A4B01225A6014E0636864
:1041900002932389ADF80C30E36800218DF80410F8
:1041A00033BB2374236801A89847002384F82F3079
:1041B00094F82E30002BC7D12D4BD3F810315BB1C2
:1041C0004FF48870FFF7A2FF0023237402238DF8B9
:1041D000043001A823689847254BD3F81431EBB17C
:1041E0004FF48A70FFF792FF0023237405B0F0BDEF
:1041F000208B608363602081E160002AD2D11C4B58
:1042000001221A60CEE7BAD1E368012184F82F10A9
:1042100013B100216183AEE76383B0E766694FF0B5
:1042200000470125002EE1D0B6FA86F227FA02F304
:104230004632920026EA030602F1804303F5E0438A
:104240001B68002BEED01046A2F58C72FFF75EFFC4
:10425000D30882F00402C2F380028DF808308DF892
:10426000045023688DF8092001A89847DAE700BFB9
:10427000007000403419002030B4064A52F8204043
:10428000054A002532F8101022F81050234630BCA1
:10429000184700BF70190020641900200020FFF7A4
:1042A000EBBF0120FFF7E8BF0220FFF7E5BF0320C7
:1042B000FFF7E2BF0420FFF7DFBF0520FFF7DCBFF9
:1042C0002DE9F347002406460F46904600F5A075F9
:1042D0004FF48039A2462B688BB1D6F8043309FA23
:1042E00004F21A420BD0C5F800A02B680193A0007D
:1042F000019B00F5A07398B2D7E9003198470134CB
:10430000444505F10405E6D102B0BDE8F0870000A0
:10431000024903480422FFF7D3BF00BF88190020D9
:1043200000800040024903480422FFF7C9BF00BFD4
:104330009419002000900040024903480422FFF72E
:10434000BFBF00BFA019002000A0004002490348E1
:104350000622FFF7B5BF00BFAC19002000A0014046
:10436000024903480622FFF7ABBF00BFB81900207F
:1043700000B001400023435082B043580193019B99
:1043800002B070470A4610B54FF48E71FFF7F2FF86
:10439000136A9168C95C136A01331362C0F81C1573
:1043A00010BD8B690A4610B54FF4847123B9FFF72D
:1043B000E1FFD0F8183510BDFFF7DCFF536AD16874
:1043C000D0F81805C854536A01335362F3E700006C
:1043D0001FB501238DF80030044BCDE90110D3E95E
:1043E00000126846904705B05DF804FBC419002030
:1043F00030B54D4DD5F804339A0585B051D5D5F873
:104400002431002B4DD04FF492712846FFF7B2FFB4
:104410004FF40173C5F80833444B93F829200AB9C7
:1044200001226A60404902228DF80020D1F88024E0
:10443000C1F8802403929A690292DA6801920022FC
:10444000C3E906226846D3E9001290473648D0F8FF
:104450001C315BB1354A5169136A99424DD992F8C2
:104460002830002B49D11146FFF78CFF2E48D0F899
:104470004431002B56D04FF4A271FFF77BFF2B4B3A
:1044800093F829200AB1012202609A69002A49D0D2
:10449000586AD96800229A6105B0BDE83040FFF73C
:1044A00097BFD5F804335B07D0D5D5F80831002B7A
:1044B000CCD01E4C1C482146FFF773FF636AA269EB
:1044C0009A42C3D1E369E1684BB1A3612369E36018
:1044D0000023606AE3616362FFF77AFFB6E794F84E
:1044E00029300BB901236B600F4B4FF40172C3F8F5
:1044F00008230023606AA361EEE70B484FF48E7136
:10450000FFF738FF5369002BB0D0516902910023A7
:1045100091688DF80030019153616846D2E900132B
:104520009847A3E705B030BD00200040C419002023
:104530002DE9F843534D90F804802C2303FB0853D6
:10454000064693F82A300C469146002B40F09680A0
:104550004D490068FFF77CFC0746002840F090803A
:1045600022683068511C0BD04FF0A04101239340CA
:10457000C1F8083502F5E0734FF0030C41F823C091
:1045800061684B1C1FBF01F5E0734FF0A04C4FF06A
:10459000000E4CF823E0A369C0F8243594F814C049
:1045A000637DBCF1010F4CEA0303C0F86C35C0F821
:1045B0001415C0F80C251DD1A268531C1FBF02F5AD
:1045C000E0734FF0A0414FF0000C41F823C0E368C6
:1045D000591C0BD04FF0A04C01219940CCF8081584
:1045E00003F5E0714FF0030E4CF821E0C0F80835F8
:1045F000C0F810252C2202FB08F2AB18C3F8049077
:104600002369AB50B9F1000F20D04FF48E71247F95
:10461000FFF7B0FE4FF4A2713068FFF7ABFE3268CF
:104620001A4BC2F80433130B42F307326101002A1C
:10463000C9B21EDB1648841884F800130121520900
:1046400003F01F0301FA03F340F822303368042219
:10465000C3F800252C2303FB08530022C3E90622DC
:1046600083F829205A61012283F82A203846BDE8C0
:10467000F883084A03F00F03D154E7E70827F5E76A
:104680001127F3E7C4190020F14300008000020065
:1046900000E100E014ED00E0F8B503680579304C66
:1046A0000022C3F800252C2202FB05425268A2B169
:1046B0002C4AC3F808231A0B43F30733002B0CDBF7
:1046C00002F01F015B0901228A402033264941F88C
:1046D0002320BFF34F8FBFF36F8F0068D0F80C65B6
:1046E000D0F81415D0F80835D0F810254FF0FF3762
:1046F000BE42C0F8147518BF06F5E076C0F80C7518
:10470000C0F80875C0F810751EBF4FF0A0474FF0F5
:10471000020C47F826C04E1C1FBF4FF0A04601F503
:10472000E071022746F82170511C1FBF4FF0A041D5
:1047300002F5E072022641F822605A1C1FBF03F501
:10474000E0734FF0A042022142F82310FFF797FBDD
:104750002C2303FB0544002384F82A306360F8BD52
:10476000C41900208402020000E100E00279044B39
:104770002C2101FB02335869003818BF0120704713
:10478000C41900202DE9F84F064690F804808946A8
:104790009246FFF7EBFF044600283CD1204F2C2522
:1047A00008FB057B4FF48E71CBF814A0CBF8089072
:1047B000CBF820008BF828003068FFF7DBFD30686D
:1047C000012383605946FFF7DDFDDBF804305D46C9
:1047D0001BBB3068DBF814402B6A9C4211D833684D
:1047E000D3F81C21002AFBD00122DA6000202C2300
:1047F00003FB087700237B61BDE8F88F95F828302C
:104800003BB9D0F81C31002BF8D05946FFF7BAFD60
:10481000E2E70F20EBE71120EEE72046ECE700BFD0
:10482000C41900200023435082B043580193019BD8
:1048300002B070471FB501238DF80030044BCDE95D
:104840000110D3E900126846904705B05DF804FBFB
:10485000F01900207FB5434AD2F82461002E60D0C1
:1048600010464FF49271FFF7DDFF02238DF8003000
:10487000D2F88034C2F880340393D2F83C350293E6
:10488000394BDA6801920022C3E906226846D3E96F
:10489000001290473348D0F8443173B14FF4A271FD
:1048A000FFF7C0FF304B9A693AB10022C3E90622F4
:1048B000D968D0F83C05FFF7BDFF2A48D0F8203171
:1048C000ABB14FF49071FFF7ADFF0123C360264BEE
:1048D0005A6962B1D0F84C150291002299688DF89E
:1048E000002001915A616846D3E9001290471D48A3
:1048F000D0F858319BB14FF4AC71FFF793FF1A4BCE
:104900005A6962B1D0F84C150291002299688DF86D
:10491000002001915A616846D3E90012904704B023
:1049200070BDD2F81031002BB4D04FF4887110460E
:10493000FFF778FF0C4BD2F83C0599698842A9D162
:10494000DC69D96864B1D2F8005225F02005C2F8BC
:1049500000521A699C61DA60DE61FFF76BFF99E72C
:104960009C61FAE700200040F01900202DE9F8438F
:104970005A4E90F80480242303FB0863044693F8FE
:1049800020300D469146002B40F0A380544900682A
:10499000FFF75EFA0746002840F09D802A682068ED
:1049A000511C0BD04FF0A04101239340C1F80835B2
:1049B00002F5E0734FF0030C41F823C069684B1C0B
:1049C0001FBF01F5E0734FF0A04C4FF0000E4CF804
:1049D00023E0AB69C0F8243595F814C06B7DBCF1B9
:1049E000010F4CEA0303C0F86C35C0F80C25C0F881
:1049F00014151DD1AA68531C1FBF02F5E0734FF0B8
:104A0000A0414FF0000C41F823C0EB68591C0BD0BB
:104A10004FF0A04C01219940CCF8081503F5E07146
:104A20004FF0030E4CF821E0C0F80835C0F810250F
:104A3000242202FB08F2B318C3F804902B69B35088
:104A4000B9F1000F2FD04FF488712A7FFFF7EAFEEB
:104A500020684FF49071FFF7E5FE20684FF49271E3
:104A6000FFF7E0FE20684FF4A271FFF7DBFE4FF482
:104A7000AC712068FFF7D6FE23681A49C3F8041307
:104A8000190B43F307335201002BD2B21CDB16483B
:104A9000C51885F8002301225B0901F01F0102FA05
:104AA00001F140F8231023680822C3F800252423CD
:104AB00003FB08660023C6E906337361012386F809
:104AC00020303846BDE8F883084B01F00F015A54F6
:104AD000E9E70827F5E71127F3E700BFF019002001
:104AE000554800001003420000E100E014ED00E032
:104AF000F8B5444C0579242303FB054302465B6863
:104B00000068ABB1404BC0F8083340F30733002BCB
:104B10004FEA10310CDB01F01F065B090121B140A7
:104B200020333A4E46F82310BFF34F8FBFF36F8FF9
:104B3000D0F8003223F02003C0F80032242303FB16
:104B400005439B692BB14FF4A271FFF76BFE012364
:104B500043604FF4AC71FFF765FE0123C36024236B
:104B600003FB0543D0F858110029FBD0996919B10E
:104B7000D0F844110029F5D00023C0F8003513689F
:104B8000D3F80C75D3F81465D3F80825D3F81015AD
:104B90004FF0FF3C6745C3F80CC518BF07F5E07739
:104BA000C3F814C5C3F808C5C3F810C51EBF4FF03D
:104BB000A0434FF0020C43F827C0771C1FBF4FF0F3
:104BC000A04306F5E076022743F826704E1C1FBF6F
:104BD00001F5E0714FF0A043022643F82160531C19
:104BE0001FBF4FF0A04302F5E072022143F82210EC
:104BF000FFF745F9242303FB0544002384F8203004
:104C00006360F8BDF01900201003420000E100E0ED
:104C10000279044B242101FB02335869003818BF84
:104C200001207047F019002001F06043B3F1005FEC
:104C30002DE9F0470646884692463BD190F804900D
:104C4000FFF7E6FF0446002836D11D4F30682425C3
:104C500005FB09754FF49071C5F814A0C5F80880DC
:104C6000FFF7E0FD4FF4AC713068FFF7DBFD336810
:104C70006A69A968C3F84415C3F8482501229A60F7
:104C80006A68DAB9D3F82021D3F858011AB9002894
:104C9000F8D00F2007E00028FBD10122DA60D3F81A
:104CA0005821002AFBD0242303FB097700237B61D2
:104CB000BDE8F0871020FBE71120F9E72046F7E771
:104CC000F019002013B5084CD4F800314BB1074B54
:104CD0001B6898470023C4F80031D4F800310193D1
:104CE000019B02B010BD00BF00000140141A00205B
:104CF0002DE9F8434FF480410020FDF7BBFE08B1D9
:104D0000FBF766FBFEF78AFD144C154BDFF85C8061
:104D1000E41AB8F80230E4082404022B44F0030437
:104D200003D910492046FEF733FA0F4EDFF84090C2
:104D3000002546F00106B8F80230022B04D92A46B5
:104D400049462046FEF728FA4FF4FA774FF47A40A6
:104D5000B047013FFAD10135EDE700BF70530000C5
:104D6000C0520000CC700000107100006C000020E8
:104D7000F07000004FF08053D3F83001421C04BFA4
:104D80004FF0704393F8E00F831F5842584170472B
:104D90004FF0704393F8E02F062A09D1D3F8E83F8B
:104DA000C3F30313033B032B02D8024AD05C7047C2
:104DB000002070471E71000008B5FFF7DBFF40B10F
:104DC0004FF080538F4AD3F82433C3F30423C2F83F
:104DD0004035FFF7DDFF10B18B4B8C4A5A67FFF768
:104DE000C9FF48B14FF080534FF08042D3F84432AE
:104DF000C3F34233C2F83C35FFF7CAFF30B1844AEF
:104E0000D2F8FC3023F08073C2F8FC30FFF7B2FF19
:104E100040B14FF080430022C3F80C21C3F81021A9
:104E2000C3F83825FFF7B4FF20B14FF080430322C9
:104E3000C3F8A025FFF7ACFF60B1764B0522C3F89D
:104E400010260122C3F888260022C3F818263F2224
:104E5000C3F814264FF08053D3F83021511C09BFFA
:104E60004FF07043D3F8343193F8E02FD3F8E83F94
:104E700008BFC3F30313062A4DD1033B032B03D80A
:104E8000654AD35C002B46D04FF08052634BD2F87A
:104E90000414C3F82015D2F80814C3F82415D2F866
:104EA0000C14C3F82815D2F81014C3F82C15D2F836
:104EB0001414C3F83015D2F81814C3F83415D2F806
:104EC0001C14C3F84015D2F82014C3F84415D2F8C6
:104ED0002414C3F84815D2F82814C3F84C15D2F896
:104EE0002C14C3F85015D2F83014C3F85415D2F866
:104EF0003414C3F86015D2F83814C3F86415D2F826
:104F00003C14C3F86815D2F84014C3F86C15D2F8F5
:104F10004424C3F87025FFF72DFF48B14FF08053AC
:104F20004FF08042D3F8583203F04F03C2F8E43E0A
:104F3000FFF720FF48B14FF08043D3F80024D20799
:104F400044BF6FF00102C3F800244FF08053D3F840
:104F50003021062A0ED1D3F83431033B032B02D87B
:104F60002F4AD35C33B12F4AD2F83C3743F48063E5
:104F7000C2F83C37264AD2F8883043F47003C2F8AE
:104F80008830BFF34F8FBFF36F8F4FF01023D3F8EC
:104F90000022002A03DBD3F80432002B2EDA224B46
:104FA0000122C3F80425D3F80024002AFBD04FF0D7
:104FB00010221521C2F80012D3F80024002AFBD0D9
:104FC0004FF010231522C3F80422174BD3F8002406
:104FD000002AFBD00022C3F80425D3F80024002ABD
:104FE000FBD0BFF34F8F0A49104BCA6802F4E0624E
:104FF0001343CB60BFF34F8F00BFFDE70C4B0D4A4F
:105000001A6008BD0030014000C007400DF0ADBA85
:1050100000ED00E0005000401671000000C00040AC
:105020001A7100000010004000E001400400FA0581
:10503000EC0100200090D0037F2805D8034A044BE0
:10504000105C5B5C18407047002070473C710000AA
:10505000BC710000A0F16103192B98BF2038704784
:10506000A0F14103192B98BF203070477F299ABFC8
:10507000017001206FF02E00704700BF5AB10A780E
:105080007F2A0AD800B102600021501AC3E900113A
:1050900018BF01207047104670476FF02E00704710
:1050A000A0F16103192B98BF20387047A0F141038C
:1050B000192B98BF203070477F2805D8034A044B2E
:1050C000105C5B5C18407047002070473C7100002A
:1050D000BC710000024B5B689B6808211B68184785
:1050E000F0010020024B5B689B6809211B68184790
:1050F000F0010020B2B1012A03461AD0024410B5D3
:1051000002F1FF3C05E011F8012B904208D19C45CB
:105110000AD01C4613F8010B8E460028F3D10A78FA
:10512000801A10BD1046704760789EF80120801AE2
:1051300010BD00780A78801A704700BF844640EAA4
:10514000010313F0030F18D18446202A0BD32DE955
:10515000F007B1E8F807A0E8F807A2F12002202A3A
:10516000F7D2BDE8F007042A07D351F8043B40F812
:10517000043BA2F10402042AF7D2002A05D011F858
:10518000013B00F8013B013AF9D160467047844683
:10519000002A2DD010F0030F04D000F8011B013AB3
:1051A00026D0F7E7C9B241EA012141EA0141202AAC
:1051B00012D3A2F120022DE9F0030B460C460D4656
:1051C0000E460F4688468946A0E8FA03203AFBD2ED
:1051D000BDE8F00320320BD0042A05D340F8041BAD
:1051E000043A05D0042AF9D200F8011B013AFBD198
:1051F0006046704710F0030F19D111F0030F16D15C
:105200002DE970004FF001364FF0803350F8044B19
:1052100051F8045BAC4205D1A4EB060525EA040570
:105220001D40F3D0A0F10400A1F1040170BC10F8FE
:10523000012B11F8013BD21A01D1002BF7D11046F6
:10524000704700F1010110F0030F11D010F8012B8D
:10525000002A23D010F0030F0AD010F8012B002AE7
:105260001CD010F0030F03D010F8012B002A15D02A
:105270002DE970004FF001324FF0803350F8044BAD
:10528000A4EB020525EA04051D4000D1F6E7A0F1D4
:10529000040070BC10F8012B002AFBD1A0EB010028
:0252A000704755
:1052A40030180020EE17002040000000010000002C
:0C52B4000000000055700000C000002049
:1052C0006570000000000000787000000000000021
:1052D0006B70000000000000727000000000000011
:1052E00076700000000000007D70000000000000EB
:1052F00081700000000000008570000000000000C8
:1053000089700000000000008D70000000000000A7
:105310009270000000000000967000000000000085
:105320009A70000000000000A07000000000000063
:10533000A570000000000000AA700000000000003E
:10534000AE70000000000000B4700000000000001B
:10535000B870000000000000BD70000000000000F8
:10536000C270000000000000C870000000000000D3
:10537000B36D000000000303FB56000000000000B6
:105380003157000000000000B85D0000000000037D
:105390008B56000000000003705600000000000360
:1053A000A556000000000003D656000000000003D0
:1053B000D15D000000000003E8640000000000036D
:1053C0003B570000000000031F57000000000003CF
:1053D000B76D000000000003DF6400000000000063
:1053E0004970000000000000CF66000000000303C9
:1053F000445D000000000303F15D000000000000B8
:105400009C66000000000303BE5600000000000080
:10541000D3660000000000004F7000000000000391
:105420006170000000000000C8670000000000007C
:10543000CA560000000003037E680000000003035A
:085440002271000000000000D1
:1054480024120020EC120020F41200202C1200205C
:0C5458009C000020BE6D00001800000049
:10546400000000000C5F000000000000CC6400009D
:1054740000000000BC64000000000000AC640000F8
:10548400000000009C640000000000009067000021
:1054940000000000D868000000000000506F000009
:1054A4002C7000000000000038700000E4010020AF
:1054B4000000000000000000DD0C000000000000FF
:0454C40000000000E4
:1054C80000000000000000000000000000000000D4
:1054D80000000000000000000000000000000000C4
:1054E80000000000000000000000000000000000B4
:1054F80000000000000000000000000000000000A4
:105508000000000000000000000000000000000093
:105518000000000000000000000000000000000083
:105528000000000000000000000000000000000073
:105538000000000000000000000000000000000063
:105548000000000000000000000000000000000053
:105558000000000000000000000000000000000043
:105568000000000000000000000000000000000033
:105578000000000000000000000000000000000023
:04558800000000001F
:10558C00000000000000000000000000000000000F
:10559C0000000000000000000000000000000000FF
:1055AC0000000000000000000000000000000000EF
:1055BC0000000000000000000000000000000000DF
:1055CC0000000000000000000000000000000000CF
:1055DC0000000000000000000000000000000000BF
:1055EC0000000000000000000000000000000000AF
:1055FC00000000000000000000000000000000009F
:10560C00000000000000000000000000000000008E
:10561C00000000000000000000000000000000007E
:10562C00000000000000000000000000000000006E
:10563C00000000000000000000000000000000005E
:04564C00000000005A
:10565000000000000000000000000000000000004A
:10566000000000000000000000000000000000003A
:105670006170705F74696D65722E6D5F6273705FCB
:10568000627574746F6E5F746D72006170705F74B8
:10569000696D65722E6D5F6273705F616C657274A7
:1056A0005F746D72006170705F74696D65722E6DEC
:1056B0005F6273705F6C6564735F746D72006E72AD
:1056C000665F6D70755F6C696200737461636B5FB8
:1056D0006775617264006170705F74696D65722EC8
:1056E0006D5F646574656374696F6E5F64656C613A
:1056F000795F74696D65725F6964006170705F6283
:105700007574746F6E00466174616C206572726F9F
:10571000720053797374656D2072657365740061EE
:10572000746669666F2E6D5F7265715F6669666F1C
:10573000006170705F74696D65720061746669669E
:105740006F2E6D5F71756575650000000000FFFFCD
:10575000DEC0ADDEFE011EF1DEC0ADDEFF011EF1DA
:1057600048415244204641554C54206174203078C1
:105770002530385800202052303A2020307825300B
:105780003858202052313A2020307825303858209F
:105790002052323A20203078253038582020523399
:1057A0003A20203078253038580020205231323AC3
:1057B0002030782530385820204C523A202030783C
:1057C0002530385820205053523A20307825303830
:1057D0005800537461636B2076696F6C6174696FF4
:1057E0006E3A20737461636B20706F696E746572BA
:1057F000206F75747369646520737461636B2061D5
:105800007265612E0043617573653A204275734677
:1058100061756C74206F6E206120766563746F72A1
:10582000207461626C6520726561642064757269C0
:105830006E6720657863657074696F6E2070726F33
:1058400063657373696E672E0043617573653A20F3
:1058500025732E004D656D4D616E61676520466153
:10586000756C7420416464726573733A20307825D6
:1058700030385800427573204661756C742041645D
:1058800064726573733A2030782530385800546854
:10589000652070726F636573736F72206861732027
:1058A000617474656D7074656420746F20657865CB
:1058B0006375746520616E20756E646566696E65DA
:1058C0006420696E737472756374696F6E005468D6
:1058D000652070726F636573736F72206174746595
:1058E0006D707465642061206C6F6164206F72203C
:1058F00073746F72652061742061206C6F636174D2
:10590000696F6E207468617420646F6573206E6FB8
:1059100074207065726D697420746865206F70659D
:10592000726174696F6E00556E737461636B20668B
:105930006F7220616E20657863657074696F6E2088
:1059400072657475726E206861732063617573652A
:1059500064206F6E65206F72206D6F7265206163C9
:10596000636573732076696F6C6174696F6E730021
:10597000537461636B696E6720666F7220616E207D
:10598000657863657074696F6E20656E74727920D6
:1059900068617320636175736564206F6E65206F45
:1059A00072206D6F72652061636365737320766921
:1059B0006F6C6174696F6E730041204D656D4D6150
:1059C0006E616765206661756C74206F63637572C4
:1059D00072656420647572696E6720666C6F6174AD
:1059E000696E672D706F696E74206C617A792073AF
:1059F0007461746520707265736572766174696F25
:105A00006E00496E737472756374696F6E2062758F
:105A100073206572726F72004461746120627573E5
:105A2000206572726F72202850432076616C756514
:105A300020737461636B656420666F72207468659F
:105A400020657863657074696F6E20726574757215
:105A50006E20706F696E747320746F207468652097
:105A6000696E737472756374696F6E2074686174A3
:105A70002063617573656420746865206661756C68
:105A80007429004461746120627573206572726FBD
:105A900072202872657475726E2061646472657319
:105AA0007320696E2074686520737461636B20666F
:105AB00072616D65206973206E6F742072656C6110
:105AC00074656420746F2074686520696E737472E5
