:020000022000DC
:1060000000000120756302005D6302005F6302000F
:106010006163020063630200656302000000000028
:1060200000000000000000000000000067630200A4
:1060300069630200000000006B6302006D630200F0
:10604000218902006F630200258D0200D5990200AC
:10605000E59902006F630200D98B02006F630200B2
:106060004D9E02006F6302006F6302006F630200C7
:106070006F6302006F6302006F6302006F630200D0
:106080006F630200A57902006F6302006F63020074
:106090006F6302006F6302000DC402006F630200B1
:1060A0006F6302006F6302006F6302006F630200A0
:1060B0006F6302006F630200000000000000000038
:1060C0006F6302006F6302006F6302006F63020080
:1060D0006F6302006F6302006F6302000000000044
:1060E00000000000000000000000000000000000B0
:1060F00000000000000000000000000000000000A0
:10610000000000000000000000000000000000008F
:10611000000000000000000000000000000000007F
:10612000000000000000000000000000000000006F
:10613000000000000000000000000000000000005F
:10614000000000000000000000000000000000004F
:10615000000000000000000000000000000000003F
:10616000000000000000000000000000000000002F
:10617000000000000000000000000000000000001F
:10618000000000000000000000000000000000000F
:1061900000000000000000000000000000000000FF
:1061A00000000000000000000000000000000000EF
:1061B00000000000000000000000000000000000DF
:1061C00000000000000000000000000000000000CF
:1061D00000000000000000000000000000000000BF
:1061E00000000000000000000000000000000000AF
:1061F000000000000000000000000000000000009F
:10620000354936480A1A02D0072291438D4634494F
:1062100034480A1A06D00722914381F309880222E2
:1062200082F3148830483149314A00F044F831484B
:106230003149324A00F03FF831483249324A00F0E1
:106240003AF832483249334A00F035F83248334997
:10625000334A00F030F833483349344A00F02BF821
:1062600033483449344A00F026F83448344900228F
:1062700000F02CF833483449002200F027F8334866
:106280003349091A082902DB002202604160314AC1
:1062900090471F481F49884205D00268043003B464
:1062A000904703BCF7E700208646EC46002000211B
:1062B000294A9047FEE7884207D0521A05D0037852
:1062C00001300B700131013AF9D17047884202D098
:1062D00002700130FAE770470000012000E0002062
:1062E000000001200000012038E10200D82A00202F
:1062F000102C0020D0630200D063020034D10200D1
:1063000038E10200D82A0020D82A002048D2020012
:1063100048D2020048D2020048D2020048D202000D
:1063200048D2020048D2020048D2020038E10200FE
:1063300070E20200102C0020102C0020102C0020F5
:10634000443F0020443F0020443F0020443F0020C1
:10635000445F00209D63020091A70200FEE7FEE774
:10636000FEE7FEE7FEE7FEE7FEE7FEE7FEE7FEE705
:1063700000F002B8FFF7FCBF0F484FF00701884359
:1063800085460E4880470E48016841F4700101605F
:10639000BFF34F8FBFF36F8FFFF732BF09480A4932
:1063A0000A4A884207D0521A05D0037801300B7090
:1063B0000131013AF9D1704700000120B982020091
:1063C00088ED00E048D20200D82A0020D82A002018
:1063D0007047000007B5044B0093044A402300F0C7
:1063E00032F803B05DF804FBF1630200112C0020C9
:1063F0002DE9F84388461446B2B10F4B0F4E0325E2
:10640000002743F00109224608EB0701002004F0B1
:10641000CDFC0744241A48B933782BB14FF47A40A5
:10642000C847013D02D13570BDE8F88301233370C0
:10643000002CE8D1F8E700BF50D20200102C002059
:10644000704704F0E3BCF0B595B01D46164608460B
:106450000C4601F055FE1A9B0D93CDE90865002509
:106460002B46082205A920460A958DF82C500C953C
:1064700001F062FE079B0293069B03939DF8143084
:106480008DF8115003F00302012A1DD1BDF814202C
:10649000059DC3F3C203C2F383168DF81030B2001A
:1064A00008230EA9204601F047FEC5F3952508AB49
:1064B0000093324602AB0EA9284600F033FB20467B
:1064C00001F022FE15B0F0BD022AF8D1BDF8165039
:1064D000C3F3C203C5F389158DF810300827082DC2
:1064E0002E4628BF08263B4632460EA9204601F01C
:1064F00023FEAD1B08AB02AA31460EA8374400F0BC
:1065000075FB002DEBD1DAE708B5FFF79AFF0448D9
:10651000042100F071FA034B01225A7108BD00BF3B
:1065200038D20200D82A0020037813F0040216D0D3
:1065300003F00303012B03D0022B09D00120704785
:106540000A6800880232C0F3831002440A60F5E74B
:106550000B684288023303EB92130B60EEE71046A0
:10656000704700002DE9F04FDFF81CA187B00F46FF
:1065700000230446861C0DF1070015468DF80730F0
:1065800001F0A2F8DAF804203A60DAF8083003F5EE
:1065900080739B1A0AF21C470AF583690AF21448B1
:1065A000B3421AD30020002D69D004F00F039B01E1
:1065B00043F0050363F30F00DAF80430DAB2033274
:1065C00033444AF822009DF80700CAF8043001F06D
:1065D0009FF8012007B0BDE8F08F0121384601F097
:1065E000BEFA484601F0D3FA404601F0D0FADAF894
:1065F00008000290C0B203300AEB800002A9FFF746
:1066000093FF029B30BBDAB20AEB8202D16803919E
:106610009A1C0133DBB20AEB83030292D3F80CB06D
:1066200001F00303012B22D0022B15D083464046F4
:1066300001F0B0FA10B1029BCAF80830594638464A
:1066400001F08DFADAF80830DAF8042003F58073E7
:106650009B1AA5E7D8B2CEE7BDF80E30C3F3891375
:1066600003334FEA1B4B02EB93030293DFE7BDF8C2
:106670000C30C3F383134FEA1B4B1344F5E7A40517
:1066800044F0060098E700BF242D0020064B074881
:1066900010B500221A7001F0ECFC044610B9044851
:1066A00001F06AFD204610BD242D002094D1020087
:1066B0008CD2020030B50A4C71B10A4A0A49121B49
:1066C000D20800239A4201D1002030BD31F8235076
:1066D000854202D00133F5E7034654F83300F4E76E
:1066E000A8D1020038D20200D82A0020094B013973
:1066F00003EBC000032909D8DFE801F00A02040611
:106700000420704700797047407970470020704737
:1067100002207047A8D1020070470000034BD3E964
:106720000130C31A58425841704700BF242D002041
:106730002DE9F04186B0FFF7F1FF0546002840F053
:10674000ED80774CC4F81804BFF34F8FA368029311
:10675000DBB2033304EB830002A9FFF7E5FE029BE3
:1067600018B1D4F81824002A5AD0DAB2991C01338F
:1067700004EB8202DBB204EB8303D268DB68049390
:1067800002F00303022B0392029154D1BDF80E30A4
:106790006448C3F38917502F3E4628BF502606F1A0
:1067A000080166F38F13C1F30901ADF80E3001F053
:1067B00078FC0546002800F09C8001F0A1FC002335
:1067C000082203A9284601F0ADFC0299CB43DBB2B5
:1067D0000133C9B20331B6EB830F4FEA830204EBF6
:1067E000810125D95FFA82F80823A6EB080628461E
:1067F00001F098FCF6B208F108034B4903F0FC03E2
:106800003246284601F08EFC029B033703EB9707C4
:106810000297D4F81834002B43D1D4F8106453E015
:1068200062689A4294D8A260284606B0BDE8F0811A
:1068300008233246E5E7012B5BD1BDF80C3039481F
:10684000C3F38311062928BF062161F3891302319E
:1068500001F00F018900ADF80C3001F022FC054673
:10686000002846D001F04CFC0023082203A928464A
:1068700001F058FC0026BDF80C20C2F38312B300CF
:10688000964203F10803C4D202994A1CC9B20331EB
:10689000029204EB81010422284601F043FC0136F8
:1068A000E9E7284601F030FCFFF738FF80F00100EF
:1068B000C5B2B9E7F3685B7923B1336829461B6831
:1068C00030469847F3681E68002EF3D1284601F041
:1068D0001BFC0DF107008DF8076000F0F5FED4F801
:1068E00018340BB9029BA3609DF8070000F010FF5D
:1068F000DAE7D4F8104454B90C4B0D480D49C01ACE
:10690000C008000440F0020000F05EF8CCE7236805
:1069100020469B689847E3681C68ECE7002583E7FE
:10692000242D002094D10200302D0020A8D1020097
:10693000E0D1020074D202002DE9F34704460E466E
:10694000924601A9012218469946FFF70BFE1C4FFB
:1069500010B3019D4FF00008AA1CC84508EB0201C6
:1069600025D11848002101F0CBF880F31000000475
:1069700040EA1440E4006B1C04F03804DBB2EDB2D2
:1069800044F0010407EB8303033544EA881444EA26
:106990008624D86047F825403B781BB1FFF7C8FE36
:1069A0000028FBD1FFF7B8FE02B0BDE8F087C9B2FE
:1069B00007EB81015AF82830CB6008F10108CCE7D9
:1069C000242D00204031002000231A46FFF7B4BFD9
:1069D00007B50123019201AAFFF7AEFF03B05DF8EE
:1069E00004FB07B5CDE9002302236A46FFF7A4FFA5
:1069F00003B05DF804FB000030B50F4CD4F8102450
:106A000003460020114631B9D96808714AB9C4F863
:106A100010340A6030BDC9680D79854206D0096816
:106A2000F1E7D26814680C601360F3E701300A28BC
:106A3000E8D14FF0FF30EDE7242D002038B5084BAA
:106A40000125D3F810441D7004B938BDE3685D71A9
:106A5000236820465B689847E3681C68F4E700BF3A
:106A6000242D002030B5C38885B004460D4633B1CF
:106A7000144A00921449154A284601F0EEF8217A8A
:106A800005291DD0637A4BB1A088FFF72FFE104B6C
:106A9000104953F82020284601F0DFF8227A0E4BE7
:106AA000A08853F8222003920021FFF703FE039AE7
:106AB0000A490346284605B0BDE8304001F0CDB88C
:106AC00005B030BDB8D20200A0D2020098D20200B8
:106AD00024D30200BDD2020048D30200C0D202007B
:106AE00007B503460846197A052911D05B7A2BB100
:106AF000094A0A49019001F0B0F80198084901904B
:106B000001F0ABF8019803B05DF804EB01F09AB81E
:106B1000002AF8D0F2E700BFB8D20200BDD20200CE
:106B2000D5D902002DE9F04385B01F460C9D002306
:106B300095F80C902B7306460C469046294638462D
:106B4000FFF790FFB8F1060F09D8DFE808F004124C
:106B5000181F283340003146284601F07EF80022F5
:106B600029463846FFF7BCFF85F80C9005B0BDE814
:106B7000F08322683146284601F06FF8EFE7D4E948
:106B800000233146284601F068F8E8E7A36800933F
:106B90003146D4E90023284601F05FF8DFE7E368D7
:106BA0000193A36800933146D4E90023284601F0FD
:106BB00054F8D4E723690293E3680193A368009330
:106BC0003146D4E90023284601F047F8C7E7636956
:106BD000039323690293E3680193A368009331460A
:106BE000D4E90023284601F038F8B8E708292DE950
:106BF000F74F80460E4617461C463DD800251B7BA6
:106C00002573214610460193FFF72CFFDFF88CA077
:106C1000DFF88CB0AE4232D918F80520594620462C
:106C200001F01BF80135082DF4D11B49DFF874A0E1
:106C3000DFF874B0204601F010F84FF000094E451F
:106C400024D918F809507E2D1ED8284605F03CFEA0
:106C5000002814BF2A462E225946204600F0FDFF88
:106C600009F10109B9F1080FE9D10122214638469D
:106C7000FFF736FF019B237303B0BDE8F08F514649
:106C8000204600F0EAFFCDE72E22E5E751462046F8
:106C900000F0E3FFE4E700BFD4D20200D0D202004C
:106CA000CAD20200D2D20200D6D20200C30710B567
:106CB00007D4F023054A4008145C234019431154BB
:106CC00010BD0901C9B20F23F4E700BFF031002065
:106CD00030B5094B1C78094B196800239C4202DC33
:106CE0000022104630BD11F83350854201EBC3023B
:106CF000F7D00133F2E700BFDC3100200032002082
:106D000013B504460191FFF7E3FF38B143682BB197
:106D10000199204602B0BDE81040184702B010BDEE
:106D2000034B044819680022490800F087BA00BFE5
:106D3000E0310020E02A002010B5C0B2FFF7C8FF04
:106D40000446007801F03EFF63785A1E53425341D7
:106D5000834208D1044BD3E90023134303D1BDE898
:106D60001040FFF7DDBF10BDE831002037B5430804
:106D7000374AD35CC2074CBF1B0903F00F0304461C
:106D80000D46042B25D8DFE803F003262F3C4000F6
:106D9000F9B10121FFF78AFF00230DF107008DF8FB
:106DA000073000F091FC0120A4F12003C4F1200180
:106DB000284A20FA01F100FA03F30B43A040D2E97C
:106DC000004120430B43C2E900039DF8070000F097
:106DD0009FFC03B030BD002918BF0221204603B03C
:106DE000BDE83040FFF762BF49B10321FFF75EFF06
:106DF0000121204603B0BDE83040FFF781BF0121EB
:106E0000ECE70029E5D10421E8E709B10321E5E732
:106E1000FFF74CFF29462046FFF772FF0DF10700F0
:106E20008DF8075000F050FC0120A4F12003C4F1BC
:106E30002001084A20FA01F100FA03F30B43A040B5
:106E4000D2E9004124EA000021EA0303BBE700BFC6
:106E5000F0310020E83100202DE9F041124E134FAF
:106E600000243378A34208DC114BD3E900231343F9
:106E700018D0BDE8F041FFF753BF3D6805EBC408EB
:106E800015F8340001F09EFE98F801305A1E534266
:106E90005341181A4142414115F83400FFF766FF8B
:106EA0000134DEE7BDE8F081DC3100200032002053
:106EB000E8310020092AF7B505460C4616463ED9AA
:106EC00001F0B8FDE8B11F4B1F481D601F4B204F5C
:106ED0001C70204B002110221E6005F086FD1E4B09
:106EE00000200021C3E90001013CE4B20326FF2C8D
:106EF0000DD11A4A1A48002103B0BDE8F04000F055
:106F00008BB901F05FFD0028DDD003B0F0BD9DF826
:106F1000063015F834008DF8046005EBC40223F048
:106F200007038DF8063001A993788DF805303A46AD
:106F300001F08AFD013CE4B20028D8D0E5E7072043
:106F4000E3E700BF00320020F0310020DC310020F8
:106F5000396D0200E0310020E8310020596E020056
:106F600068D3020070B5084D084E00242B789C426F
:106F700001D3002070BD3368012113F8340001F003
:106F8000DBFD0134F2E700BFDC31002000320020DD
:106F90001FB50021039001AA44F20100CDE90111BF
:106FA00000F004F805B05DF804FB000038B572B6D7
:106FB000FFF744FDFFF7BCFB0028FBD1104B114C41
:106FC000114D1249E41AE408240444F00100FFF7CB
:106FD000FBFCD5F8F030DB0700D500BE0C4944F0CF
:106FE0000200FFF7F1FCBFF34F8FEA68094B02F490
:106FF000E0621343EB60BFF34F8F00BFFDE700BFBC
:10700000A8D10200E0D1020000ED00E06CD3020044
:1070100078D302000400FA0549B152B1531E1A4058
:1070200007D1826001608380C260104670470E20E5
:1070300070470920704710B58468C2688388121BA6
:10704000934208D3C26813400268D154C368013325
:10705000C360002010BD0420FCE78268C3689A4228
:107060000AD08268838813400268D35C0B708368FF
:1070700001338360002070470520704710B5D0E9C8
:107080000243D1E90202A04272EB03032CBF0120AC
:10709000002010BD08B50A4800F06DFC094AD2E98D
:1070A0000031C018084BD3E9002341F100019042A0
:1070B00071EB030303D210F1807041F1000108BDB0
:1070C000002B0020083200208032002037B5054612
:1070D0000C460A4801A900F082FC60B105704460CA
:1070E00001A9064800F0A5FC18B1054800F048FCCD
:1070F000002003B030BD0420FBE700BF6C3200204D
:10710000002B0020294B73B51E7804461EB90026BB
:10711000304602B070BD0028F9D0FFF7BBFFD4E9BC
:1071200002239042994139D300230DF107008DF8D5
:10713000073000F0C9FA23692BB94FF0FF324FF046
:10714000FF33C4E902239DF8070000F0E1FAD4E917
:107150000530984700250DF107008DF8075000F025
:10716000B3FA2369C3B1D4E90212B2F1FF3F08BFF9
:10717000B1F1FF3F05D05B1842F10002C4E90232D1
:1071800035469DF8070000F0C3FA002DBFD008482F
:10719000214601F010F8BBE71D46F2E7B3F1FF3FCF
:1071A00008BFB2F1FF3FB2D0F1E700BF10320020BC
:1071B00094D3020013B5114B1149186801900823AC
:1071C0001048582200F0F8FB044698B90E4A0F48C0
:1071D00001A900F0C1FA044660B90C48012100F091
:1071E000ADFB01230A4A0948194600F00FFB094B81
:1071F00001221A70204602B010BD00BF90D30200D9
:10720000143200206C320020F5720200002B0020A6
:10721000FFFF7F001032002030B56AB103684FF0E5
:10722000FF344FF0FF355A614A1E5142C3E902450F
:1072300051411961002030BD0720FCE7F7B5044635
:1072400000250DF1070017460E468DF8075000F097
:107250003BFAD4E90223B3F1FF3F08BFB2F1FF3F8D
:1072600007D1FFF717FF301841F10001C4E902010F
:1072700001259DF8070000F04BFA55B12369A7617D
:1072800003B126612146002003B0BDE8F040FFF7BE
:107290001DBF284603B0F0BD37B5054600240DF1EB
:1072A00007008DF8074000F00FFAD5E90223B3F18B
:1072B000FF3F08BFB2F1FF3F1FBF4FF0FF324FF05B
:1072C000FF33C5E9022301249DF8070000F020FAEE
:1072D00034B12946012003B0BDE83040FFF7F6BEC7
:1072E000204603B030BD0000014800F044BB00BFA1
:1072F000002B00202DE9F743064600F027FB40B1A4
:10730000624AD2E9003113F1807341F10001C2E910
:1073100000310021304600F028FB38B15C4C236876
:1073200023B12068FFF7EEFE0023236001213046E1
:1073300000F01BFB20B1FFF7ADFE564BC3E9000187
:107340005548534C01A900F084FB4FF0FF384FF033
:10735000FF39A0B9DFF844814D4D404600F041FFB0
:10736000002800F08580D0E90223B3F1FF3F08BF79
:10737000B2F1FF3F32D1404600F02DFFEDE7037838
:10738000012B20D0022B08D1444D284600F023FFCA
:10739000002877D0C0E90289F7E75BB94168D1E9F5
:1073A0000223B3F1FF3F08BFB2F1FF3F02D03B48D9
:1073B00000F001FF01A9384800F076FB01A936482A
:1073C00000F047FBC5E741682368994202D10023DA
:1073D0002360EFE7314800F007FFEBE7296891B140
:1073E0002968D1E9020182428B412FD22B68D3E96F
:1073F0000223B3F1FF3F08BFB2F1FF3F03D029687A
:10740000404600F0D8FE404600F0E5FED0E90249D3
:107410000746FFF73FFE201A69EB0109012879F1C1
:10742000000318DBB0F5350F13D3FFF75DFF1C4ADF
:1074300002441C484FF49603002100F007FA90B96B
:107440002B6813B9304600F0D9F92F6003B0BDE8BE
:10745000F0832246EDE71348002100F07CFA38461D
:10746000FFF750FE01E00D28F9D000232B6074E7F0
:10747000074B1B68002BE9D1304603B0BDE8F04351
:1074800000F0C0B9084B01221A7093E708320020BF
:1074900088320020803200206C32002094D3020019
:1074A000FFFFB400002B0020103200200648074ADE
:1074B00003780749D35C012213B1043002F092B87B
:1074C0000C3001F055BE00BF082B0020FC3200201C
:1074D000B43200200648074A03780749D35C0122EA
:1074E00013B1043002F030B80C3001F0F1BD00BF30
:1074F000082B0020FC320020B532002037B505787B
:10750000012D0DD0022D30D075B91F491F48FFF74E
:10751000A4FD002834D103B0BDE83040FFF7DABF46
:10752000037A1BB9FFF7C2FF03B030BD4368184CA4
:1075300019782046FFF77FFD80B18DF8005001904B
:10754000144B68461B689847A168E368A2885B1AD9
:107550009A42E7D2104B01221A70E5E7A268E3686D
:107560009A42F1D08DF80000EAE7C3688DF8005028
:107570000193FFF79BFF074B68461B689847D3E7CB
:1075800003238DF80030F6E7B5320020A432002046
:10759000903200208C320020A0320020F0B51F462F
:1075A000234B89B004461A600D4600293DD08A88D5
:1075B00020480968FFF730FD002834D1AA89A9685E
:1075C0001D48FFF729FD00282DD11C4E0FCE6D461A
:1075D0000FC596E80F0085E80F0063690693237CCA
:1075E000174A18488DF81C70003B18BF01238DF80E
:1075F0001430637C002B14BF0E2300238DF815304C
:10760000E3680293A3680393236801936946636860
:10761000009301F00DF930B90B4B1870236801335A
:1076200001D0FFF743FF09B0F0BD0720FBE700BF23
:107630008C32002090320020A4320020A0D302001F
:10764000FD740200082B0020A032002070B5084D08
:10765000014608482E78FFF700FD044636B10023A6
:107660002B70FFF723FF08B1FFF792FC204670BD97
:10767000A03200209032002010B501460E48FFF7DE
:10768000DAFC0446A8B90D480D4A0378D35C63B10F
:10769000043001F04DFF60B90A490748FFF7DDFCEF
:1076A00038B9BDE81040FFF715BF0C3001F004FDFC
:1076B000F1E7204610BD00BFA4320020082B0020B7
:1076C000FC320020B532002070B5EFF3108672B6A0
:1076D0000C4A946801239CB993600B4B0B4DD3F873
:1076E000801029401160C3F88050D3F88410516095
:1076F0004FF0FF32C3F88420047006B962B670BD43
:107700000370FAE7B832002000E100E0FC06FFBD9C
:10771000084B9A6810B55AB150B9EFF3108172B6A0
:10772000054A1C6814605C685460986001B962B6D0
:1077300010BD00BFB832002000E100E0435882B025
:107740003BB10023435043580193019B012002B0F9
:1077500070471846FBE70000F8B5204B4479204EEF
:1077600043F824201F4A204B06EBC4049B1A2279BD
:10777000DB081B0432B143F002001C49FFF724F977
:107780000820F8BD02680C88C2F8084590F904503A
:107790008A7804795201002DD2B219DB14494F19AD
:1077A00087F8002301226D0904F01F0402FA04F493
:1077B00041F82540427906EBC201012446F8320027
:1077C0000C7143F003000B49FFF7FEF80020D8E7E7
:1077D000094904F00F040A55ECE700BFCC32002041
:1077E000C4320020A8D10200F0D10200C0D30200B0
:1077F00000E100E0E2D3020014ED00E003680122A2
:107800001A607047036801225A60704773B501F12E
:107810005005AD000068ADB24FF480348C400026B6
:10782000C0F80843C0F84843465101F5A8714559CE
:10783000019522F07F42019D40F82120C0F8444389
:107840000BB1C0F8044302B070BD00002DE9F74F42
:107850000D4622F07F4402684FF4803705F1500650
:107860008F408046B60002EB8500C2F84873B6B27E
:10787000C2F80873D2F8041599464FF0000BD0F8FF
:107880004035C0F8401542F806B05B1A9259009294
:1078900023F07F43012B009A4FEA850A0CD1264B37
:1078A0004FF4806043F001039847D8F8003043F864
:1078B00006B09B590193019BD8F80010D1F80465DC
:1078C000C1F84473A31B23F07F43012B1CD11A4B37
:1078D00005F5A875013443F0010341F825404FF444
:1078E00080609847D8F80030D3F804359E4209D11B
:1078F000D8F800300020C3F84473C3F8047303B011
:10790000BDE8F08F0D20FAE78A44C9F1FF13CAF8E9
:107910004045D1F80405221A013A22F07F4203F5CE
:107920007F439342EED3002AE2D10134CAF84045A6
:10793000D1F804359842DAE700D402000368022245
:10794000C3F8442309B1C3F80423704700684FF417
:107950008271FFF7F3BE4FF4803303FA01F103683D
:10796000C3F84813C3F80813704750318900006802
:1079700089B2FFF7E3BE0368D3F80405704700003F
:1079800090F90430002B09DB5A09012103F01F0391
:1079900001FA03F34032024941F82230704700BF38
:1079A00000E100E0024B034A1B681068184700BF63
:1079B000CC320020C432002010B561B1B2FBF3F428
:1079C00003FB1424A4B244B9C0E90014846082818A
:1079D000C381204610BD0E20FCE70920FAE737B529
:1079E00050E8013F9DB2C48925448489A54228BF3F
:1079F0002D1B0489A54202BFBFF32F8F002207E091
:107A0000C5EA030540E80154002CE9D14FF001021A
:107A10008DF803200193019A0A609DF8031001F08C
:107A2000FF0321B1006810FA82F003B030BD1846A0
:107A3000FBE70A884B889A4209D150E8012FC2EA35
:107A4000024240E80123002BF7D1012070470020BB
:107A5000704737B550E8023F1FFAA3F5C488A54226
:107A600002BFBFF32F8F00220DE0C4892544848913
:107A7000A54228BF2D1BC3EA054540E80254002C4F
:107A8000E8D14FF001028DF803200193019A0A60BA
:107A90009DF8031001F0FF0321B1006800EB1240D4
:107AA00003B030BD1846FBE70A884B889A4209D1DB
:107AB00050E8022FC2EA224240E80223002BF7D10D
:107AC000012070470020704701F01F024B0901217F
:107AD000914000EB830000F01EB801F01F0301226B
:107AE0009A404B0900EB8300D14300F02CB84B09BE
:107AF00001F01F0150F82300C84000F0010070475A
:107B000010B5034653E8000F0A4643E8002494F0FA
:107B1000000FF7D110BD10B5034653E8002F42EA1D
:107B2000010043E8000494F0000FF6D110BD10B539
:107B3000034653E8000F00EA010243E8002494F0F2
:107B4000000FF6D110BD10B5034653E8002F02EA2E
:107B5000010043E8000494F0000FF6D110BD10B509
:107B6000034653E8002F02EB010043E8000494F0C1
:107B7000000FF6D110BD10B5034653E8002FA2EB5D
:107B8000010043E8000494F0000FF6D110BD01217C
:107B9000FFF7C1BF0021FFF7CABF10B590B1D0E910
:107BA000012301689B1ADBB20A60013BDBB2FF2BA9
:107BB000026802D10020107110BD11684C1C1460C5
:107BC0000B70F2E70E20F7E737B5054600240DF1FC
:107BD00007008DF80740FFF777FD2A686B6811688A
:107BE00099420ED9481E106011F8013CEC68298AB0
:107BF00001FB0344AB6811791B1ADBB2994238BF11
:107C000013719DF80700FFF783FD204603B030BDD8
:107C100037B5054600230DF107000C468DF80730F7
:107C2000FFF752FD2A681368591C1160E968641A4D
:107C3000298AB4FBF1F41C709DF80700FFF768FD7A
:107C400003B030BD826810B504462AB143690168AB
:107C5000006998470023A36010BD0EB403B50399D3
:107C600021B104AB01AA019300F076F802B05DF8EF
:107C700004EB03B070470A2938B504460D4602D11B
:107C80000D21FFF7F8FFA3682268591CA160D554A5
:107C9000D4E901329A4204D32046BDE83840FFF7C8
:107CA000D1BF38BD2DE9F84F9846DDE90A431546A6
:107CB00082460F460A464FF00109AA420FD2C1453B
:107CC00038BFC14613F0010B01D16CB90024012665
:107CD000B8F1010F1BD908F1FF386E43F8E709F13D
:107CE0000109B2FBF5F2E8E79B070ED5B8F1000FEA
:107CF0000CBF30262026A145E9D2013C3146504632
:107D0000FFF7B9FF002CF6D1E0E72026F3E7B7FB39
:107D1000F6F39D42E1D9DFF83C80B7FBF6F350461D
:107D200018F8031006FB1377FFF7A5FF3346AB42A5
:107D3000B6FBF5F6F1D2BBF1000F02D00CB1A145B4
:107D400001D3BDE8F88F20215046013CFFF793FF97
:107D5000F4E700BF06D402002DE9F74F05461746A9
:107D60008846002900F03E8118F8011B49B92B7B99
:107D7000002B00F03781284603B0BDE8F04FFFF735
:107D800061BF252940F0B780002698F800302D2BE0
:107D9000424608F1010823D0302B24D02B2B25D0CC
:107DA00000242A2B02F1010123D13B681A1D1B6814
:107DB0003A601C440A4613782E2B26D101324FF02C
:107DC000000A104610F8011BA1F1300CBCF1090F9C
:107DD0001DD80A2303FB0A13A3F1300A0246F0E779
:107DE00046F00106D1E746F00206CEE746F004066B
:107DF000CBE711F8013CA3F130000928DBD80A22B7
:107E000002FB0434303C0A46CBE74FF0000A12F87C
:107E1000011B01F0FB0068289046F8D0782909D8AA
:107E20006F290CD8632962D022D8252963D058291C
:107E300000F0888098F80030002B95D197E77039D2
:107E40000829F7D801A353F821F000BFBF7F020033
:107E5000357E0200357E0200557F0200357E02002D
:107E6000337F0200357E0200357E0200457F02002E
:107E7000642901D06929DDD13A68D2F80090111D3A
:107E800089EAE9723960A2EBE9724FF0010B092A25
:107E900035DCD34538BFD3462CB1B9F1000F01DB37
:107EA000720700D5013CB30702D5BAF1000F03D029
:107EB000F00701D44CBB0024B9F1000F2DDAC9F151
:107EC00000092D212846FFF7D6FE06F00302022AFC
:107ED00004D1BAF1000F01D11CBB0024CDE900464A
:107EE00053460A2249462846FFF7DCFEA2E73B68D4
:107EF0001A1D19783A602846FFF7BDFE9AE70A2353
:107F00000BF1010BB2FBF3F2C1E7A345D4D2202160
:107F10002846013CFFF7AFFECCE77107D5D52B21F2
:107F2000D0E7A345DAD230212846013CFFF7A3FE73
:107F3000D2E73968CDE900460A1D3A6053460A2265
:107F40000968D0E739680A1D3A60CDE90046534612
:107F50001022F5E73B681A1D3A6016F00106D3F8C7
:107F6000009024D1B9F1000F03D0484604F092FDEF
:107F70000646B4421DD809F1FF3919F8011F00293E
:107F80003FF458AF2846FFF776FEF6E7284601365D
:107F9000FFF771FE19F806100029F7D1A642BFF4C9
:107FA00049AF20212846013CFFF765FEF6E7002691
:107FB000F0E720212846013CFFF75DFED9E73B684A
:107FC0001A1D3A60302128461C68FFF754FE7821BC
:107FD0002846FFF750FE00220823CDE90032214653
:107FE000102280E703B0BDE8F08F00BF2DE9F84F05
:107FF000B0F806A04579D2F800B09DF828900AFBA9
:1080000005F5043D88460BEB0301A94203F1040486
:1080100088BFA5EB030BB4FBFAF607460AFB164430
:10802000C2F800B04EB9AAEB04055D4528BF5D4615
:10803000BBF1000F04D1BDE8F88F3F68013EF1E7C6
:10804000043408EB06003C442A46B9F1000F0DD079
:108050002146ABEB050B04F09FFCDA452E443F684C
:1080600055464FF0000428BF5D46E1E70146204633
:10807000EFE7FFF792BDF8B546790146721E054657
:10808000002393422D6803D30024A64202D8F8BDF2
:108090000133F6E70F682846FFF7BAFD0134394689
:1080A000F3E72DE9F843068ACD1C0746FFF78CFD60
:1080B000043E35440446B5FBF6F5F0B14FF4807349
:1080C000EDB28380C680013D076081464FF0000815
:1080D000A84512D23846FFF777FD064648B16379C6
:1080E0000133637108F10108C9F800000760814697
:1080F000EEE72046FFF7BFFF34462046BDE8F88391
:1081000001210430FFF72BBD10B5012104460430D6
:10811000FFF731FDC0B220B92046BDE81040FFF79F
:10812000AABF10BD1FB503920022009203AAFFF759
:108130005DFF05B05DF804FB1FB5039201220092BC
:1081400003AAFFF753FF05B05DF804FB064B10B51B
:1081500000241C70054B1C60BFF35F8F0449054869
:1081600000F013F8204610BDD8320020DC32002089
:1081700020D40200D0320020836800225A60C3E974
:1081800004229A60DA601A6070470B684A6843609C
:10819000934208BF0023016008BF436070474368F3
:1081A00043B10268916852680B449342436004BF34
:1081B00000234360704770B5446806460D4620684A
:1081C00018B1B3682946984718B923682B60256011
:1081D00070BD2468F3E74368186808B102681A6044
:1081E00070474368186870474368186800B970475B
:1081F000884203D102681A60012070470346006874
:10820000F4E7000010B50D49A1F59472914201D830
:1082100000200FE08C1AE30F03EBE4035B1002EB8A
:10822000C30452F83330834205D802D204F1080265
:10823000ECE7606810BD2146E8E700BF2CD90200DA
:1082400008B5FFF7DFFF024B002808BF184608BD3E
:10825000EFD7020010B50446C0B2FFF70DFA204672
:1082600010BD4FF08053D3F83001421C04BF4FF0D3
:10827000704393F8E00F831F584258417047000045
:108280004FF0704393F8E02F062A09D1D3F8E83F66
:10829000C3F30313033B042B02D8024AD05C70479C
:1082A000002070473BD90200024AD2F80034002B6C
:1082B000FBD0704700E0014010B5FFF7D2FF40B19E
:1082C0004FF08053944AD3F82433C3F30423C2F805
:1082D0004035FFF7D5FF10B1904B914A5A67FFF731
:1082E000C0FF48B14FF080534FF08042D3F8443282
:1082F000C3F34233C2F83C35FFF7C2FF30B1894ABD
:10830000D2F8FC3023F08073C2F8FC30FFF7A9FFED
:1083100040B14FF080430022C3F80C21C3F8102174
:10832000C3F83825FFF7ACFF20B14FF0804303229C
:10833000C3F8A025FFF7A4FF60B17B4B0522C3F86B
:1083400010260122C3F888260022C3F818263F22EF
:10835000C3F814264FF08053D3F83021511C09BFC5
:108360004FF07043D3F8343193F8E02FD3F8E83F5F
:1083700008BFC3F30313062A4DD1033B042B03D8D4
:108380006A4AD35C002B46D04FF08052684BD2F83B
:108390000414C3F82015D2F80814C3F82415D2F831
:1083A0000C14C3F82815D2F81014C3F82C15D2F801
:1083B0001414C3F83015D2F81814C3F83415D2F8D1
:1083C0001C14C3F84015D2F82014C3F84415D2F891
:1083D0002414C3F84815D2F82814C3F84C15D2F861
:1083E0002C14C3F85015D2F83014C3F85415D2F831
:1083F0003414C3F86015D2F83814C3F86415D2F8F1
:108400003C14C3F86815D2F84014C3F86C15D2F8C0
:108410004424C3F87025FFF724FF48B14FF0805380
:108420004FF08042D3F8583203F04F03C2F8E43ED5
:10843000FFF717FF48B14FF08043D3F80024D2076D
:1084400044BF6FF00102C3F800244FF08053D3F80B
:108450003021062A0ED1D3F83431033B042B02D845
:10846000344AD35C33B1344AD2F83C3743F48063A6
:10847000C2F83C372B4AD2F8883043F47003C2F874
:108480008830BFF34F8FBFF36F8F4FF08053D3F817
:108490003021062A0FD1D3F83431033B042B02D804
:1084A000264AD35C3BB14FF01023D3F808224FF09B
:1084B0008043C3F858254FF01023D3F80022002A38
:1084C00003DBD3F80432002B22DA1D4901234FF0DD
:1084D0001020C1F804351524FFF7E6FEC0F800426D
:1084E000FFF7E2FEC0F80442FFF7DEFE0023C1F80A
:1084F0000435FFF7D9FEBFF34F8F0A49114BCA6805
:1085000002F4E0621343CB60BFF34F8F00BFFDE77F
:108510000D4B0E4A1A6010BD0030014000C00740EC
:108520000DF0ADBA00ED00E0005000402CD9020083
:1085300000C0004031D902000010004036D90200CE
:1085400000E001400400FA051C2B00200090D0033D
:10855000054A4FF0A043105CD3F8043523FA00F02D
:10856000C04300F00100704744D90200044B1A5C7C
:10857000012393404FF0A042C2F80C35704700BF72
:1085800044D90200044B1A5C012393404FF0A042EF
:10859000C2F80835704700BF44D9020008B5002072
:1085A000FFF7F0FF0120FFF7EDFF0220FFF7EAFFE2
:1085B000BDE808400320FFF7E5BF08B50020FFF73E
:1085C000D5FF0120FFF7D2FF0220FFF7CFFFBDE864
:1085D00008400320FFF7CABF074A4FF0A041105CD4
:1085E000D1F804350122824022EA03001340C1F889
:1085F0000805C1F80C35704744D90200054A4FF010
:10860000A043105CD3F8103523FA00F0C04300F00B
:108610000100704740D902000D2809D00E2809D06A
:108620000F2809D010280CBF03204FF0FF307047EF
:10863000002070470120704702207047014B185CF2
:10864000704700BF40D90200C20708B501460CD5EB
:108650004FF0A0430322C3F84427C3F84827C3F8C8
:108660004C27C3F85027FFF799FF8B070AD54FF027
:10867000A0430C22C3F83427C3F83827C3F83C279B
:10868000C3F8402708BD000038B5074C051E04F1AB
:10869000080318BF1C4623682BB11A6822605B6868
:1086A00028469847F7E738BDE832002020B9054B47
:1086B00001225A70FFF7E8BF012802D1014A9070E9
:1086C000F8E77047E032002020B9034B01225A70CE
:1086D000FFF7DABF704700BFE032002038B50E4C1C
:1086E0002378B3B90D486360A3602361E36000F0B1
:1086F000E7F8054603F070FE08B900F0EDF8012335
:108700002370074BD3F800340BB10123A370284624
:1087100038BD8525F5E700BFE0320020AD860200B8
:108720000000014037B50D4C00230DF107008DF816
:108730000730FEF7C9FFE368013BE360E36833B944
:10874000074BD3F8005415B900F0D8F8A5709DF880
:108750000700FEF7DDFF03B030BD00BFE0320020B0
:1087600000000140012813B50CD0032820D038B9EF
:10877000134B0122C3F88020BFF34F8FBFF36F8FDD
:1087800002B010BD0F4C00230DF107008DF807302B
:10879000FEF79AFF23780BB9FFF7A0FFE3689DF877
:1087A00007000133E3600123A370FEF7B1FFE7E7A1
:1087B00000F092F802B0BDE81040FFF7B3BF00BF71
:1087C00000E100E0E03200201FB503788DF80030B2
:1087D0004368019383688DF80830C368054A0393A2
:1087E000054B684653F8213052F82110984705B0E0
:1087F0005DF804FBF4320020F83200201FB5037846
:108800008DF800304368019383688DF80830C368A1
:10881000054A0393054B684653F8213052F821105E
:10882000984705B05DF804FBF4320020F8320020D0
:10883000F0B5194B90F800C091F81DE043F82C20DA
:10884000164B16460A6943F82C20154B03F80CE02A
:108850000C4607460FCC89B06D460FC594E80F0053
:1088600085E80F00CDF810C0BEF1000F09D0002E32
:108870000C4A694608BF3246381D00F097FD09B022
:10888000F0BD002E084A694608BF324607F10C00C9
:1088900000F05EFBF3E700BFF8320020F432002066
:1088A000FC320020C9870200FD87020000F18040F1
:1088B000002382B0036003680193019B02B07047FC
:1088C000044A137923B9012110609180184670473A
:1088D0008520704700330020074B1A68D20704D464
:1088E000C02283F8002301221A604FF08043012246
:1088F000C3F81825704700BF00E100E04FF0804248
:1089000008B50223C2F808334FF48270FFF7CEFF98
:108910000123D360D2F81834DB03FBD408BD000078
:108920004FF0804110B5D1F8003163B14FF4807041
:10893000FFF7BCFF0D4B58790122C1F8082310B98D
:108940005A711B6898474FF08042D2F8043163B1E6
:108950004FF48270FFF7AAFF0223C2F80833034BDB
:10896000BDE810401B680120184710BD00330020EF
:1089700000F1804000F5C040002382B0036003682E
:108980000193019B02B07047800000F1A040D0F835
:10899000002722F44032C0F80027D0F8003743EA1D
:1089A0000141C0F800177047054B4FF0FF32072810
:1089B00043F8202084BFC01880F84820704700BFCB
:1089C0000833002010B5184991F8583053BB4FF0C8
:1089D000FF3222FA03F0C00748BFC81803F10103B1
:1089E00048BF80F83020202BF3D10024E0B20134BE
:1089F000FFF7DAFF0C2CF9D10C4B0022C0204A659E
:108A000083F80603402018604FF4BE70FFF7B0FFF4
:108A1000074B4FF00040C3F80403012381F858309E
:108A2000104610BD0820FCE70833002000E100E0FC
:108A300000600040034B93F85800003818BF012035
:108A4000704700BF08330020F0B5394E331893F952
:108A50003030002B69DA8D78C5F34005002D0BBF4F
:108A6000082300230C240824A34201D10420F0BDD4
:108A700056F82370013743D137185CB246F82320EB
:108A800087F8304015B9F21882F848008A785507FF
:108A900016D4D70736D5820002F1A042D2F800578B
:108AA00025F00205C2F80057224FC50800F0070C58
:108AB000012202FA0CF217F805C042EA0C027A55BC
:108AC0008A780D7812F0020225D09B0003F18043D2
:108AD00003F5C0430002D3F8102522F4473222F4F4
:108AE0004072C3F810252D04D3F8102500F4F85077
:108AF00005F4403528431043C3F810050020B6E7BD
:108B00000133B1E74D7800F5E0724FF0A047AD00BA
:108B100047F82250C8E7083C46FA84F494F850001D
:108B200040EA851584F85050E8E708209FE700BF29
:108B3000083300205C33002038B5204C251895F907
:108B40003020072A18DD083A44FA82F494F85030AD
:108B50009B09032B0BD14FF0A043D3F81015C14054
:108B600001F001010231BDE83840FFF70DBF012BD4
:108B70000CBF02210321F6E7D3B2072B1DD89300C7
:108B800003F1804303F5C043D3F8100540F0010022
:108B9000C3F8100502F1400040B2800080B2FFF738
:108BA000E7FE51B195F9303054F823302BB1012351
:108BB00003FA02F2024BC3F8042338BD0833002045
:108BC000006000404FF0A043D3F8103523FA00F0C6
:108BD00000F00100704700002DE9F74F00244E4DD2
:108BE00001944FF48072012102F1804303F5C043E8
:108BF00090B21B68012B06D1D5F804330B4202D08A
:108C0000FFF7B6FE0C430432B2F5907F4FEA410104
:108C1000EAD1414BD3F87C31012B0CD14FF4BE701B
:108C2000FFF7A6FE4FF0A04344F00044D3F8202500
:108C30000192C3F82025E3B2D3B1384F00250126B5
:108C4000344210D0AB0003F1804303F5C043D3F8A6
:108C50001005D3F8101557F8253023B1C1F30141A1
:108C6000C0F3042098470135082D4FEA4606E7D1A6
:108C7000002C48DA294D4FF0A048294E4FF000094A
:108C8000012716F9013B5A1C31D0C3F3C202083246
:108C90006A44DCB212F8042C03F03F0A03F0070325
:108CA00007FA03F31A4222D00AF5E073504658F847
:108CB0002330C3F3014BBBF1020F0CBF0321022190
:108CC000FFF762FE07FA0AF3C8F8203505EB0A033E
:108CD00093F9303055F823304BB1A109032904D062
:108CE000BBF1020F12D1012901D15046984709F179
:108CF0000109B9F1040FC4D1D8F820350193C8F89F
:108D00002035002BB9D103B0BDE8F08FBBF1030FC4
:108D1000EDD10229E8E700BF0060004008330020E1
:108D200058330020014B1B68184700BF64330020F4
:108D30000E4B984237B50C4602D0002003B030BD30
:108D400000230DF107008DF80730FEF7BDFC084B3E
:108D50001D7915B901221C601A719DF80700FEF7F4
:108D6000D7FC002DE9D01120E8E700BF002000402B
:108D7000643300200023435082B043580193019B89
:108D800002B070470A4610B54FF48E71FFF7F2FF3C
:108D9000136A9168C95C136A01331362C0F81C1529
:108DA00010BD024608B500684FF49271FFF7E2FF6C
:108DB00010684FF48471FFF7DDFF136801221A6019
:108DC00008BD8B690A4610B54FF4847123B9FFF7CB
:108DD000D1FFD0F8183510BDFFF7CCFF536AD1682A
:108DE000D0F81805C854536A01335362F3E7000002
:108DF0001FB501238DF80030044BCDE90110D3E9F4
:108E000000126846904705B05DF804FB6C33002003
:108E100030B54D4DD5F804339A0585B051D5D5F808
:108E20002431002B4DD04FF492712846FFF7A2FF5A
:108E30004FF40173C5F80833444B93F829200AB95D
:108E400001226A60404902228DF80020D1F8802476
:108E5000C1F8802403929A690292DA680192002292
:108E6000C3E906226846D3E9001290473648D0F895
:108E70001C315BB1354A5169136A99424DD992F858
:108E80002830002B49D11146FFF77CFF2E48D0F83F
:108E90004431002B56D04FF4A271FFF76BFF2B4BE0
:108EA00093F829200AB1012202609A69002A49D068
:108EB000586AD96800229A6105B0BDE83040FFF7D2
:108EC00097BFD5F804335B07D0D5D5F80831002B10
:108ED000CCD01E4C1C482146FFF773FF636AA26981
:108EE0009A42C3D1E369E1684BB1A3612369E360AE
:108EF0000023606AE3616362FFF77AFFB6E794F8E4
:108F000029300BB901236B600F4B4FF40172C3F88A
:108F100008230023606AA361EEE70B484FF48E71CB
:108F2000FFF728FF5369002BB0D05169029100234D
:108F300091688DF80030019153616846D2E90013C1
:108F40009847A3E705B030BD002000406C330020F7
:108F50002DE9F843534D90F804802C2303FB08536C
:108F6000064693F82A300C469146002B40F0968036
:108F70004D490068FFF7DCFE0746002840F090806E
:108F800022683068511C0BD04FF0A0410123934060
:108F9000C1F8083502F5E0734FF0030C41F823C027
:108FA00061684B1C1FBF01F5E0734FF0A04C4FF000
:108FB000000E4CF823E0A369C0F8243594F814C0DF
:108FC000637DBCF1010F4CEA0303C0F86C35C0F8B7
:108FD0001415C0F80C251DD1A268531C1FBF02F543
:108FE000E0734FF0A0414FF0000C41F823C0E3685C
:108FF000591C0BD04FF0A04C01219940CCF808151A
:1090000003F5E0714FF0030E4CF821E0C0F808358D
:10901000C0F810252C2202FB08F2AB18C3F804900C
:109020002369AB50B9F1000F20D04FF48E71247F2B
:10903000FFF7A0FE4FF4A2713068FFF79BFE326885
:109040001A4BC2F80433130B42F307326101002AB2
:10905000C9B21EDB1648841884F800130121520996
:1090600003F01F0301FA03F340F8223033680422AF
:10907000C3F800252C2303FB08530022C3E9062272
:1090800083F829205A61012283F82A203846BDE856
:10909000F883084A03F00F03D154E7E70827F5E700
:1090A0001127F3E76C330020118E020080000200CC
:1090B00000E100E014ED00E00279044B2C2101FBFB
:1090C00002335869003818BF012070476C33002004
:1090D0002DE9F84F064690F8048089469246FFF73E
:1090E000EBFF044600283CD1204F2C2508FB057BD4
:1090F0004FF48E71CBF814A0CBF80890CBF8200079
:109100008BF828003068FFF735FE30680123836054
:109110005946FFF737FEDBF804305D461BBB30686D
:10912000DBF814402B6A9C4211D83368D3F81C2119
:10913000002AFBD00122DA6000202C2303FB0877F1
:1091400000237B61BDE8F88F95F828303BB9D0F853
:109150001C31002BF8D05946FFF714FEE2E70F2030
:10916000EBE71120EEE72046ECE700BF6C33002070
:109170002DE9F0473A4D07792C2303FB07530646A8
:109180005C6824B103684FF40170C3F808032C2312
:1091900003FB0753986950B1D869002841D024B126
:1091A00033684FF40172C3F80423112436E09A6146
:1091B000D9605862D8612C2303FB075393F82930F8
:1091C0001BB910B93046FFF7ECFD4FF02C0808FB37
:1091D000075A3068DAF80430002B37D14FF4A27107
:1091E000D046FFF7C7FD3068D0F82491D0F8083199
:1091F000D0F84441CBB914B9B9F1000FF3D02C2306
:1092000003FB07550023AB61B9F1000F24D12CBB40
:1092100095F8291033680122B1B11A602046BDE8E3
:10922000F0871961DA610120C5E7B9F1000FE6D1D5
:10923000002CE4D14146FFF7C4FDDAF82430DAF817
:1092400018209A42CFD8DAE75A60E7E74FF4017363
:10925000C0F804330024E1E70324DFE70F24DDE74F
:109260006C3300200023435082B043580193019B8C
:1092700002B070471FB501238DF80030044BCDE9D3
:109280000110D3E900126846904705B05DF804FB71
:10929000983300207FB5434AD2F82461002E60D075
:1092A00010464FF49271FFF7DDFF02238DF8003076
:1092B000D2F88034C2F880340393D2F83C3502935C
:1092C000394BDA6801920022C3E906226846D3E9E5
:1092D000001290473348D0F8443173B14FF4A27173
:1092E000FFF7C0FF304B9A693AB10022C3E906226A
:1092F000D968D0F83C05FFF7BDFF2A48D0F82031E7
:10930000ABB14FF49071FFF7ADFF0123C360264B63
:109310005A6962B1D0F84C150291002299688DF813
:10932000002001915A616846D3E9001290471D4818
:10933000D0F858319BB14FF4AC71FFF793FF1A4B43
:109340005A6962B1D0F84C150291002299688DF8E3
:10935000002001915A616846D3E90012904704B099
:1093600070BDD2F81031002BB4D04FF48871104684
:10937000FFF778FF0C4BD2F83C0599698842A9D1D8
:10938000DC69D96864B1D2F8005225F02005C2F832
:1093900000521A699C61DA60DE61FFF76BFF99E7A2
:1093A0009C61FAE700200040983300202DE9F84343
:1093B0005A4E90F80480242303FB0863044693F874
:1093C00020300D469146002B40F0A38054490068A0
:1093D000FFF7AEFC0746002840F09D802A68206811
:1093E000511C0BD04FF0A04101239340C1F8083528
:1093F00002F5E0734FF0030C41F823C069684B1C81
:109400001FBF01F5E0734FF0A04C4FF0000E4CF879
:1094100023E0AB69C0F8243595F814C06B7DBCF12E
:10942000010F4CEA0303C0F86C35C0F80C25C0F8F6
:1094300014151DD1AA68531C1FBF02F5E0734FF02D
:10944000A0414FF0000C41F823C0EB68591C0BD031
:109450004FF0A04C01219940CCF8081503F5E071BC
:109460004FF0030E4CF821E0C0F80835C0F8102585
:10947000242202FB08F2B318C3F804902B69B350FE
:10948000B9F1000F2FD04FF488712A7FFFF7EAFE61
:1094900020684FF49071FFF7E5FE20684FF4927159
:1094A000FFF7E0FE20684FF4A271FFF7DBFE4FF4F8
:1094B000AC712068FFF7D6FE23681A49C3F804137D
:1094C000190B43F307335201002BD2B21CDB1648B1
:1094D000C51885F8002301225B0901F01F0102FA7B
:1094E00001F140F8231023680822C3F80025242343
:1094F00003FB08660023C6E906337361012386F87F
:1095000020303846BDE8F883084B01F00F015A546B
:10951000E9E70827F5E71127F3E700BF98330020B4
:10952000959202001003420000E100E014ED00E01B
:109530000279044B242101FB02335869003818BF1B
:10954000012070479833002001F06043B3F1005FC1
:109550002DE9F0470646884692463BD190F80490A4
:10956000FFF7E6FF0446002836D11D4F306824255A
:1095700005FB09754FF49071C5F814A0C5F8088073
:10958000FFF770FE4FF4AC713068FFF76BFE336885
:109590006A69A968C3F84415C3F8482501229A608E
:1095A0006A68DAB9D3F82021D3F858011AB900282B
:1095B000F8D00F2007E00028FBD10122DA60D3F8B1
:1095C0005821002AFBD0242303FB097700237B6169
:1095D000BDE8F0871020FBE71120F9E72046F7E708
:1095E00098330020F8B501F06043B3F1005F044602
:1095F0000F465ED10379304D242101FB03514968A8
:1096000021B100684FF40476C0F80863242000FB01
:1096100003539E6956B1D869002839D021B1236817
:109620004FF40472C3F80423112030E09A61DF6024
:10963000DE6120684FF48871FFF714FE20684FF454
:10964000A271FFF70FFE2368C3F83475C3F83825FD
:1096500016BB01221A602479242202FB04525268AC
:109660000ABBD3F81011D3F84421D3F824011143D5
:1096700002D10028F5D00A46242303FB0455002319
:10968000984218BF03209A42AB6118BF0F20F8BD63
:109690001F61DA610126CCE7D3F8002242F02002F4
:1096A000C3F80022D7E74FF40472C3F80423002064
:1096B000EDE71020EBE700BF983300201FB50378DB
:1096C0008DF800308388ADF8043083688DF806305B
:1096D000C3688DF80730036902934369054A039311
:1096E000054B684653F8213052F82110984705B0D1
:1096F0005DF804FBBC330020C4330020024B4FF460
:10970000807043F00103184770D902002DE9F0473B
:10971000154690F80090324A42F82950314A42F8F2
:1097200029304B7B07460C466BB3086849688200BA
:109730008B0002F1A04203F1A04340F20C66C2F894
:1097400000674FF0010AC3F800674FF0A0460AFA1D
:1097500000F00AFA01F1C6F80805C6F8081540F24B
:109760000D61C2F80017C3F80017FFF7C7FF4FF0ED
:109770000008D6F81025636822FA03F3DB070DD53D
:10978000B8F1000F1DD1002D174A4B4608BF2A46DD
:109790002146381DBDE8F04700F02CB923680AFACD
:1097A00003F3C6F80C35FFF7A9FF23680AFA03F3A1
:1097B000C6F8083508F10108FFF7A0FFB8F1090F56
:1097C000D7D1636801264FF0A04806FA03F3C8F822
:1097D0000C35FFF793FF63689E40C8F80865D2E731
:1097E000C4330020BC330020BD9602000023435048
:1097F00082B043580193019B02B070470B7B032B4F
:109800002AD8DFE803F022261A028B685A0304D50F
:10981000D0F84C350A699A4207D18B685B031BD498
:10982000D0F84C354A699A4216D000230622C0F877
:109830000035C0F8002518467047D0F84C350A6945
:109840009A42F2D1D0F83C35ECE7D0F84C350A69B1
:10985000E9E7D0F83C35FAE701207047F0B5D0F8D9
:10986000243187B004460D46EBB14FF49271FFF7F7
:10987000BDFFD0F80431B3B9AB68C0F80833022398
:10988000AB60AB68C0F80433D0F860311BB1D0F8DE
:1098900000329B0502D4012323626361012385F812
:1098A0002E3007B0F0BDD4F80431002B41D04FF476
:1098B00082712046FFF79AFF2B6A5F0609D495F85C
:1098C0002E3033B92946FFF799FF80F0010085F863
:1098D0002E002B6A5E073ED405F10C070FCF01AEB8
:1098E0000FC63B6833604FF4B0712046FFF77EFF30
:1098F0004FF4AE71FFF77AFF95F8303013B195F859
:109900002E3043B30023C4F80032AB602F4BC4F8B1
:10991000083344F30733002B4FEA14321BDB02F009
:109920001F015B0901228A406033294941F8232045
:1099300011E04FF4A4712046FFF758FF2B7B23BBA7
:1099400005F10C070FCF01AE0FC63B68336095F8E9
:109950003030002BD7D0D4F8C434C4F8C4349807BE
:1099600025D501238DF8003095F830300BB985F8F6
:109970002F302B6A5B0703D595F82E30002B90D043
:10998000D5E90031684698478BE74FF40073C4F877
:10999000003240F20223AB6003F1CE73C4F8083307
:1099A000AB68C4F804330123A360236279E7590745
:1099B00001D50223D6E7DA0701D50323D2E795F8CC
:1099C0002E30002BCED00423CCE700BF02029C0136
:1099D00000E100E001490248FFF740BFCC3300201E
:1099E0000030004002494FF04020FFF737BF00BF72
:1099F000003400202DE9F84F0679314D4FF0340A3C
:109A00000AFB06FA05EB0A079B4697F82D308046BD
:109A10000C469146002B4FD12A4B006853F8261074
:109A2000FFF786F9002849D12168637B87F8323037
:109A300001F5E0724FF0A043B860C7F804B087F8B2
:109A40002F0087F8300040F20C6745F80A9043F881
:109A50002270626802F5E07C43F82C70D8F8003080
:109A6000C3F80815C3F80C25A268C3F82425B9F17A
:109A7000000F14D0227B43F3073152010029C3F3B6
:109A80000733D2B213DB104C671887F8002301228A
:109A9000490903F01F0302FA03F344F82130342389
:109AA00003FB0655012385F82D30BDE8F88F0749E3
:109AB00003F00F03CA54F2E70820F6E71120F4E799
:109AC000CC3300207CD9020000E100E014ED00E07E
:109AD000036802790621C3F80015044B342101FB09
:109AE0000233022283F82D20704700BFCC330020C0
:109AF00001790B4B0268342000FB01330949002037
:109B00009860C2F80813D2F8001221F4BC51C2F8D0
:109B10000012C2F80005012283F82D20704700BF13
:109B2000CC33002002029C012DE9F843DFF8C88203
:109B300090F804900468342606FB0986002386F812
:109B40002E30CB6803F06043B3F1005F0D4617463B
:109B500003D010263046BDE8F883A64BC4F808337E
:109B600096F82F3023B1B368C4F804331126F1E717
:109B700012F0140F0CBF0123002386F82F308E46FD
:109B8000BEE80F0006F10C0CACE80F00DEF8003068
:109B9000CCF80030C7F3001386F8303037626B78AA
:109BA000C4F8883520464FF48271FFF71FFE4FF44A
:109BB0009271FFF71BFE4FF4B071FFF717FE4FF4E1
:109BC000A471FFF713FE17F0010318BF0123C4F8B7
:109BD000503517F0020318BF0123C4F840352B7825
:109BE000032B00F2B580DFE803F084A069022B6943
:109BF00003F06043B3F1005FABD14FF48073C4F85E
:109C00000032EA686B68C4F844254FF4A871C4F8C0
:109C10004835FFF7EBFD01232362A360D4F85031F0
:109C2000002BFBD04FF4A8712046FFF7DFFDAB6897
:109C30002A69C4F84425C4F84835342303FB098352
:109C40004FF480229A60082300263A0704D42A7829
:109C5000032A1CBF0122E250342303FB09F308EB63
:109C6000030258F80330002B75D10125D4F84821A0
:109C7000D4F80431002B40F08980003A18BF01224B
:109C8000D4F82431002B00F088804FF492712046E4
:109C9000FFF7ACFDD4F86011D4F8003209B1980593
:109CA00004D4256265610029E0D00022D90574D56D
:109CB0004FF4A4712046FFF799FDD7E76B68EA6877
:109CC000C4F84425C4F848352B6903F06042B2F16A
:109CD000005F7FF43EAFAA68C4F834354FF4845374
:109CE000C4F83825C4F80032342303FB0983022268
:109CF00012E06B68EA68C4F8442517F0200FC4F836
:109D000048354FF034030BD04FF48072C4F8002272
:109D100003FB09834FF480229A600123236292E7B8
:109D20004FF40072C4F80022DFE76B68EA68C4F8F9
:109D30003425C4F838354FF48053C4F80032342346
:109D400003FB098302229A600123236200237BE73D
:109D50000823072679E77B0744BF002393607D062D
:109D600006D4342303FB09839A6842F002029A6006
:109D7000342303FB0988D8F8083043F40073C8F88B
:109D80000830D8F80830C4F80433E3E64FF48271A1
:109D90002046FFF72BFD012272E7002A3FF466AF51
:109DA0003421D4F8C434C4F8C43401FB098200203F
:109DB00082F82F0093B113F0010F14BF4FF4024645
:109DC000032648F2012213F0020F18BF164613F0C3
:109DD000040F48F2022318BF1E46BBE67B063FF580
:109DE000B9AE09FB01812046FFF708FD002808BF36
:109DF0000326AFE602029C01CC33002010B586B0EA
:109E00000024CDE902349DF820308DF80510A342DE
:109E1000CDE9042401A914BF202222468DF8044074
:109E2000FFF782FE06B010BD10B586B00124029384
:109E30000023CDE903328DF805101A4601A98DF8EB
:109E400004400593FFF770FE06B010BD2DE9F34105
:109E5000104C114F114E00254FF48038236883B108
:109E6000D7F8043308FA05F21A420AD00023236017
:109E700023680193A4F50040019B80B2D6E900312C
:109E800098470135042D04F10404E7D102B0BDE880
:109E9000F08100BF40810040008000403434002049
:109EA0000220FEF799BB00002DE9F04780460D46E1
:109EB000FEF7B2FB0328044610D8012D10D0022D66
:109EC00030D05DB91A48FDF7E7F91A4B04EB4402AC
:109ED00013449D78184B1B5DAB4219D0BDE8F08749
:109EE000144E00EB4003F218F55C5378470053B171
:109EF000DFF84C900E484A464FF48041FDF79EF93A
:109F000008B989F8008027443E440B4BB2781A55B3
:109F1000002DE3D0094B1B68002BDFD02846BDE89D
:109F2000F047184700EB4004024804446578EFE727
:109F3000402B0020423400205D34002058340020A3
:109F40004034002000780221FFF7AEBF08B5094B6E
:109F50001B7853B10020FEF715FB0120FEF712FB22
:109F6000BDE808400320FEF70DBBBDE80840FEF742
:109F700015BB00BF41340020F8B57A4C2378054664
:109F80001BB100232370FFF7E1FF172D00F287803C
:109F9000DFE805F00C1717425364757F878C878CB8
:109FA000949999999999C3C8D0D8E3E3FFF7CEFF64
:109FB0006D48FDF771F96D4B002204461A7020467A
:109FC000F8BD0020FEF7C4FAF0B10020FEF7DAFA7F
:109FD000022D0CBF4FF4E1644FF47A64634B1D70A3
:109FE00000254FF400464FF47A7029464FF4FA6288
:109FF0000023E4FB060102F071FB2A460146BDE89E
:10A00000F8405948FDF71AB9FEF7B0FA022D0CBF17
:10A01000C8244FF4C874E1E70020FEF799FA40B174
:10A020000020FEF7AFFA4FF44874504B03221A7029
:10A03000D6E7FEF79BFAC824F7E70020FEF788FA78
:10A0400038B10020FEF79EFA4FF47A64474B0422A1
:10A05000EDE7FEF78BFA4FF4C874F7E70020FEF740
:10A0600077FA48B10020FEF78DFA404B05221A70AE
:10A0700040F6CD410022C2E7FEF778FAF5E700206E
:10A08000FEF7AAFA394B06221A70002240F26661E6
:10A09000B5E70020FEF76AFA344B07221A70002455
:10A0A0008DE701202070FEF797FAEEE7012020707F
:10A0B000FEF792FA00224FF40051A0E7FEF77DFA76
:10A0C0002A4B0C22EAE72A482A4EFDF7E5F8D5F19B
:10A0D000110504461CD0D8B9012D13D0C820454322
:10A0E00021464FF400474FF47A704FF4FA62002390
:10A0F000C5FB070102F0F2FA224601461C48FDF7B3
:10A100009DF804460220FEF731FA0123337056E72A
:10A110000220FEF737FA0023F8E7FFF717FF134B8B
:10A120001222BBE7FFF712FF0020FEF71FFA0F4BCA
:10A130001322B3E7FFF70AFF0120FEF717FA0B4BD4
:10A140001422ABE7FFF702FF0020FEF70FFA012011
:10A15000FEF70CFA054B1522A0E7FEF72EFA034B8B
:10A160001D709CE754340020602B00205C340020DC
:10A17000202B002041340020044B1B68DB0703D553
:10A18000034B1878FFF7F8BE704700BF503400202B
:10A190005C34002010B5002914BF03240024FEF70E
:10A1A0004DFA800000F1A040D0F8002722F44032A0
:10A1B000C0F80027D0F8003743EA0443C0F800375E
:10A1C000002010BD032801D8FEF718BA0020704700
:10A1D000044B1B6813F0010301D0FFF7CDBE1846F6
:10A1E000704700BF5034002038B51C4B18601C4B22
:10A1F00010F00204054619601AD01A4B1A480E22B4
:10A200001A700F22DA7010229A7111225A720421E8
:10A2100040F23332FCF74EFE044648B9FCF7A2FE8A
:10A22000044628B90146114A1148FCF7F5FF0446D7
:10A23000EB0711D50120FEF707FA6CB921460D4A4C
:10A240000D48FCF7E9FF044630B9BDE838400B4A39
:10A250000B480121FCF7E0BF204638BD50340020F8
:10A2600058340020423400208CD90200459F02005F
:10A27000B0D9020079A10200B4D90200A19E020067
:10A28000ACD90200032811D8012A0AD101290FD123
:10A2900000F10E02D2B20D4B00EB40001A54002028
:10A2A00070470129F7D0022904D049B1072070472F
:10A2B0000022F8E7054B00EB400018444270EEE73F
:10A2C000024B00EB400018448270E8E74234002063
:10A2D000032802D80121FFF75DBF0620704708B5AB
:10A2E000012202210020FFF7CDFF08B1072810D17D
:10A2F000072202210120FFF7C5FF08B1072808D176
:10A3000000210A220846FFF7BDFF10B1072808BF49
:10A31000002008BD0388102B10B502D0112B1ED0D1
:10A3200010BD1A4C2168B1B901220846FFF7AAFFF7
:10A3300008B1072824D1072202210120FFF7A2FF3C
:10A3400008B107281CD1042202210020FFF79AFF40
:10A3500008B1072814D1236801332360E0E70B4AD2
:10A360001368013B1360002BDAD1FFF7B8FF002818
:10A37000D6D0074B1B68002BD2D0BDE81040184741
:10A38000034B1B68002BE6D09847E4E768340020B5
:10A390006434002008B50020FFF79AFF08B10628B2
:10A3A00006D10120FFF794FF10B1062808BF002056
:10A3B00008BD00000D4B10B518600C4629B10120F6
:10A3C000FFF700FF40B102232370094B1B6853B90C
:10A3D000BDE81040FFF783BFFFF7F4FE08B10B2381
:10A3E000F2E72070F1E7002010BD00BF64340020C8
:10A3F0006834002076DF70477ADF70477CDF704773
:10A400007FDF70478FDF7047B1DF704733DF704702
:10A41000024A136801331360704700BFBC3B002041
:10A42000FCF7B6BD08B50020FFF7D2FE08B1FCF777
:10A43000AFFDFFF7AFFF08B1FCF7AAFDFFF7E6FF9E
:10A4400018B1BDE80840FCF7A3BD08BD00B591B048
:10A45000002301A902A80193029300F0B7FBDDEDF0
:10A46000017A1149FDEEE77A03A817EE903ADDED87
:10A47000027AFDEEE77A17EE902A02F067FA0B4BAC
:10A48000ADF802001B880A480DF1020203A901F091
:10A49000E9FE0528034604D033F0080301D0FCF799
:10A4A00077FD11B05DF804FBB8D90200C62B00207F
:10A4B000C82B00200388212B13B504463FD007D8B2
:10A4C000112B2DD0132B48D0102B0CD002B010BD67
:10A4D000522B4AD0562B01D03B2BF7D1A088132109
:10A4E000FFF788FF15E0254B25482649C01AC0080C
:10A4F000000440F00300FCF767FA0720FFF768FE4E
:10A5000008B1FCF745FD204BA1882048198001F0D7
:10A5100031FD0028DAD002B0BDE81040FCF738BDAC
:10A52000164B17481A49C01AC008000440F003002F
:10A53000FCF74AFA144B4FF6FF721A80C6E7002365
:10A5400080888DF8043001A98DF80530FFF75AFF97
:10A550000028BBD0FCF71CFDB8E70B4800231A46C7
:10A5600085210088FFF74CFFD3E7074800231A46F0
:10A5700019460088FFF748FFCBE700BFA8D10200CB
:10A58000E0D10200D8D90200C62B0020B03900204B
:10A59000E2D9020008B503784BB9054B3B21188876
:10A5A000FFF728FF18B1BDE80840FCF7F1BC08BD73
:10A5B000C62B0020072808B513D00A280DD0042880
:10A5C00019D10D4B13211888FFF714FF30F0080341
:10A5D00011D0BDE80840FCF7DBBCBDE80840FFF740
:10A5E00021BF054B1A884FF6FF739A4203D10348E7
:10A5F00001F061F8EAE708BDC62B002064350020B1
:10A6000008B548B103280BD10220FFF7E1FD38B1AE
:10A61000BDE80840FCF7BCBCBDE80840FFF702BF3E
:10A6200008BD0000F7B50378012B33D0022B31D0E1
:10A6300073BB1B4C1B4D20782844FDF707F823788B
:10A640000133DBB21D44237015F8012C0A2A05D012
:10A650000D2A03D0144A12889A4219D8012B15D911
:10A66000124D104E124F2378ADF806300DF1060250
:10A670002B883146384601F0F5FD082806D013280E
:10A68000F1D0052802D008B1FCF782FC002323702A
:10A6900003B0F0BD406803B0BDE8F040FCF778BC03
:10A6A000603500206C340020C42B0020C62B002015
:10A6B000C82B00200D4B4A881B889A4214D10A8867
:10A6C00040F677239A420FD18B88094A09480A49F4
:10A6D000033B9BB21380094A801AC00800041A4643
:10A6E00040F00300FCF77DB9704700BFC62B002087
:10A6F000C42B0020E0D10200EFD90200A8D1020053
:10A70000FCF746BC08B50849084801F013FB08B13E
:10A71000FCF73EFC0548F72101F020FB18B1BDE82D
:10A720000840FCF735BC08BDB5A6020098390020EA
:10A7300008B5094A09480121FCF76EFD08B1FCF78C
:10A7400027FC074A07480121FCF766FD18B1BDE860
:10A750000840FCF71DBC08BD11A402005CDA020031
:10A760004DA4020058DA020008B5FFF7E1FF00220D
:10A7700010210548FCF762FDBDE8084003480022AF
:10A780004FF4CD71FCF75ABDA02B0020802B002088
:10A7900030B54FF48041B1B00020FBF777FF08B12E
:10A7A000FCF7F6FB6E4DFBF7AFFE0320FDF74CFF09
:10A7B0000FCD05AC0FC495E803006A4B6A4A0193BC
:10A7C0004FF4807384E80300CDE903230293674AC2
:10A7D000072301A905A8FCF7E1FE08B1FCF7D8FBA7
:10A7E0004FF480410020FBF751FF08B1FCF7D0FB8C
:10A7F000FBF78AFEFCF7DEFC08B1FCF7C9FB5C49FD
:10A800000320FFF7F1FC08B1FCF7C2FB05A900200B
:10A81000FFF7D0FD08B1FCF7BBFBFDF797FC08B1D3
:10A82000FCF7B6FB01F09AFD08B1FCF7B1FB002381
:10A8300005A90120059301F023FE08B1FCF7A8FB50
:10A8400005A801F0DDFE08B1FCF7A2FB1123494980
:10A850008DF804300B2201A8FFF7D0FD08B1FCF7FA
:10A8600097FB0023ADF818301023ADF814303C23CB
:10A87000ADF8163005A84FF4C873ADF81A30FFF7DD
:10A88000BBFD08B1FCF784FBFFF73CFF3A4B3B48AC
:10A89000059305A901F05CFB08B1FCF779FB0023E7
:10A8A0003748019301A901F063FC08B1FCF770FB84
:10A8B000AC22002105A802F098F802238DF814308C
:10A8C00005238DF8173001234021ADF860308DF855
:10A8D000903044F25063CDE927132A4A2A4B2B4883
:10A8E000199205A92E9300F02AFD08B1FCF750FB40
:10A8F0002648012100F020FD14220DEB020000216A
:10A9000002F073F84FF4F0234FF4A032CDE90623A0
:10A9100003238DF820301E4B0A9305A81D4B0B9383
:10A9200000F0E8FF08B1FCF733FB1B4801F0F2FF31
:10A9300000F036F8012000F04BF800F0BDF810B13F
:10A94000164801F0C7FFFFF70FFF1048032100F082
:10A9500073FD08B1FCF71CFB0320FDF775FEFEE755
:10A9600040DA0200BC390020BC3A002025A60200D3
:10A97000B5A502000BDA020021A40200B0390020C4
:10A98000C82B0020C02B002001A602006435002047
:10A9900095A5020001A7020017DA020028DA0200DA
:10A9A0001FB516221723CDE900234FF0CC710723E2
:10A9B000CDE90213002305481A466946FEF7A6FEB4
:10A9C00008B1FCF7E5FA05B05DF804FBEC2B0020BC
:10A9D00010B10348FFF77CB80148FFF789B800BF02
:10A9E000F02B00207FB5FF29044616461D468DF842
:10A9F0000F1007D001230146009308480DF10F0204
:10AA0000FFF7FCF933462A4621460448FFF70CFAC3
:10AA1000B0FA80F0400904B070BD00BFF02B0020F8
:10AA20001FB5FF2912BF8DF80D208DF80C208DF871
:10AA30000D204FF0000218BF8DF80C100092014657
:10AA400014BF0223012303AA0448FFF7D7F9B0FA81
:10AA500080F0400905B05DF804FB00BFF02B00203A
:10AA6000024B1E221878FF21FFF7DABFCC3B0020F3
:10AA700073B50F4D0F4EA22430782246FF21FFF709
:10AA8000CFFF60B101AB30780222FF21FFF7AAFFB0
:10AA9000BDF8043000385BBA18BF01202B800234A7
:10AAA000E4B2AE2C05F10205E6D102B070BD00BFE4
:10AAB000C03B0020CC3B002070B50B4E307890B9E5
:10AAC0000A4B0B4D77221A70FFF7CAFF052445F099
:10AAD00001054FF47A40A847013CFAD1FFF7C8FFBF
:10AAE00008B10123337070BDCD3B0020CC3B00206A
:10AAF00080DA0200024B0246FF211878FFF790BF70
:10AB0000CC3B002013B50C4C00222078FF21FFF72E
:10AB100087FF01AB20780322FF21FFF763FF9DF839
:10AB200005309DF804001B0243EA00439DF806002F
:10AB3000184302B010BD00BFCC3B002070B50D4BD8
:10AB40000D4E1C6833680D4D53B1E41A092C0FD912
:10AB500050300023C0B23360FFF7D4FF286070BDCF
:10AB6000074B1B6823B95030C0B2FFF7C3FF3460F6
:10AB70002868F4E7BC3B0020D43B0020DC3B0020ED
:10AB8000D03B002070B50D4B0D4E1C6833680D4D49
:10AB900053B1E41A092C0FD940300023C0B23360FE
:10ABA000FFF7B0FF286070BD074B1B6823B940302A
:10ABB000C0B2FFF79FFF34602868F4E7BC3B002079
:10ABC000D03B0020D83B0020D43B00202DE9F041B1
:10ABD000054608200C46FFF7D5FF8046C71708201A
:10ABE000FFF7ACFF58EA0703064600D048B92B48E8
:10ABF0002B4B2C491B1ADB081B0443F00300FBF70B
:10AC0000E3FEDFF8A8E09FED287ABEF80820BEF842
:10AC10000410BEF80600BEF80030A6EB022C0CFBB8
:10AC200001F10CFB00F082FB0C2CD20D42EA4C220D
:10AC300002F5FA6207EE902AF8EEE77A0E12C7EEF6
:10AC4000876ADB03F6184FEAE17141F1000306FB66
:10AC500007F1BEF8027008FB0311A6FB0836314469
:10AC60005B0DC6113F0443EAC123F6194FEAE070B9
:10AC700040F1000049159B1B61EB0001DB0B43EA2F
:10AC8000414307EE903AF8EEE77AC5ED006AC7EE69
:10AC9000876AC4ED006ABDE8F08100BFA8D1020058
:10ACA000E0D1020060DA02000000C842C03B002090
:10ACB0000369C26893429CBF80681B18013B981AC5
:10ACC00070472DE9F843D0E902940546A9EB040842
:10ACD0004068904520440F46144404D901F05CFEBE
:10ACE000EC60BDE8F8834246A4EB090401F054FE91
:10ACF0006868224607EB0801F0E72DE9F843C568CC
:10AD00000646894617464FF000083469B3687068F4
:10AD1000A54228BFE418013C621B5C1BBC4228BF53
:10AD20003C46944228BF144649462844224601F036
:10AD300033FEB3682544AB4208BF00253F1BA04447
:10AD4000A144F560E1D14046BDE8F88310B5114C4F
:10AD5000114AA2610223C4E90433104BE361A264E7
:10AD60004FF400730E4A0F492362E264002310225D
:10AD7000E01DA3626362E362A3656365E365226528
:10AD800001F066FE0849204601F062FE2023A3710F
:10AD900010BD00BFE03B002086DA0200683C0020C6
:10ADA000583C00208FDA020093DA020070B5164B8F
:10ADB000182400FB04451D4404FB00331646DC6ADE
:10ADC000012C0ED0022C18D0E4B92846FFF770FFF2
:10ADD000864204D832462846FFF773FF34462046A1
:10ADE00070BD2846FFF764FF8642344628BF0446FC
:10ADF00022462846FFF765FFF1E72846BDE8704088
:10AE0000FFF77BBF0024EAE7E03B0020FFF79EBF8F
:10AE10006DDF704779DF70477DDF704764DF704713
:10AE20002DE9F04F85B000250E9CBDF83CB0B4F87C
:10AE300000A00191074690461E46A9463A884A4519
:10AE40000DDC45B12388013BA3EB0A039BB2FF2B2A
:10AE50003AD806F80A30002005B0BDE8F08F7A68CD
:10AE600052F82900039000220DF10B0103A8FFF70F
:10AE7000D5FF0028F0D19DF80B20424521D1228832
:10AE8000002D14BF0020022002EB080101445945A7
:10AE90001ADC3DB9013292B2019B2280B354228860
:10AEA0000132228022880DF10B01324403A8FFF702
:10AEB000B5FF0028D0D121889DF80B200A442280BC
:10AEC000012509F10109B9E70C20C5E72DE9F34196
:10AED000089FBDF824801546CDE90078022204467B
:10AEE0001E46FFF79DFF50B93346102229462046E3
:10AEF000CDE9087802B0BDE8F041FFF791BF02B09C
:10AF0000BDE8F0812DE9F04F00231788138090F8F9
:10AF10002D3085B006460D4614465BB3082F01D888
:10AF20000C2028E102A8FFF773FF002840F02381DE
:10AF30002388DDF809100822EA54238801339BB2E4
:10AF40001B222380EA54238801339BB2EA18238012
:10AF5000E950BDF80D30938023889DF80820063312
:10AF60009BB212F0FE0218BF01222380EA5423880C
:10AF700001332380B378FBB123880433BB42CFD89D
:10AF800002A8FFF747FF002840F0F580238803223E
:10AF9000EA54238801339BB219222380EA54238880
:10AFA000BDF8082001339BB2E9182380EA54120A45
:10AFB0004A70238802332380F2789AB12388D91CFF
:10AFC000B942ADD80221E954238801339BB2012153
:10AFD0002380E95423880B449BB22380EA542388BE
:10AFE0000B4423807268AAB12388D91CB94297D830
:10AFF000022192F90020E954238801339BB20A21EF
:10B000002380E954238801339BB22380EA542388A8
:10B01000013323803389002B40F0A180338A5BB158
:10B02000CDE900472B460722032106F11000FFF768
:10B030004DFF002840F09F80338B5BB1CDE9004786
:10B040002B461522142106F11800FFF73FFF0028B8
:10B0500040F09180326A002A40F09080D6F8248037
:10B06000B8F1000F30D0B8F804302188981C8A1C41
:10B070000244BA423FF654AFFE283FF651AF0333C5
:10B080006B54238801339BB2FF222380EA54238828
:10B0900001339BB22380B8F80020EA54E918120A61
:10B0A0004A702088023080B22080B8F804205AB15B
:10B0B000D8F8081000296BD0284401F06DFC2388D3
:10B0C000B8F804201344238096F82C30002B40F06D
:10B0D0009880307800284ED03388012B58D02288B1
:10B0E00002F1020CBC453FF61BAF012805D1737875
:10B0F000023313449F42FFF413AF023FBF1ABFB2A3
:10B1000002A905EB0C00ADF80870FFF785FE90BBB7
:10B110003178BDF80830022900F0B98072789A427F
:10B1200002D39F4280F0B180012940F0B280974263
:10B1300093B2C0F0AE80ADF808300821BDF80830F9
:10B14000FE2B3FF6EDAE22880133AB54228801324C
:10B1500092B22280A9542288134423800BE0CDE9C7
:10B1600000472B460622022106F10800FFF7AEFE3B
:10B1700000283FF453AF05B0BDE8F08FB4F800C02D
:10B180000CF10603BB423FF6CBAE1188052901D86E
:10B190000720F0E76FF4486E01EB0E039BB24FF20D
:10B1A0007D3E7345F4D95388052BF1D96FF448607F
:10B1B000181880B27045EBD94FF6FF70814201D06C
:10B1C0009942E5D8052305F80C30238801339BB25A
:10B1D00012212380E954238801339BB223801188F4
:10B1E000E954E818090A4170238802339BB223808E
:10B1F0005288EA54E918120A4A70238802332380DD
:10B200002CE7B36A002BC3D04FF000084FF00C0AB4
:10B210004FF0160BB16A5FFA88F20AFB02F201EBFB
:10B220000209B9F80430981CFE283FF679AE208850
:10B2300003332B54238801339BB2238005F803B0DA
:10B24000238801339BB223808A5AEA54E918120AF0
:10B250004A702088023080B22080B9F804205AB1A8
:10B26000D9F80810002993D0284401F095FB2388D1
:10B27000B9F804201344238096F82C2008F1010823
:10B280005FFA88F39A42C5D823E7092156E79F421F
:10B29000FBD2ADF8087050E730B5C8B1F2B1002468
:10B2A000651C8D4206DA1588A54212D805196D78FD
:10B2B0009D420ED1A14211D9005D48B1013880B242
:10B2C00030B10234A3B210FA84F4A14206DB138039
:10B2D00030BD055D01352C44A4B2E1E70020F7E75D
:10B2E00013B513460022ADF806200DF10602044600
:10B2F000FFF7D2FF10B1BDF80630E01802B010BD64
:10B3000072DF704773DF704774DF704738B5012212
:10B3100004460D46B0F81414D0F81004FFF7E0FF0F
:10B3200000B1057004F13C0204F5826104F154009F
:10B33000BDE83840FFF7E4BF80F830107047F8B53B
:10B3400004460F46002973D0002871D091F87A3056
:10B350001BB191F89830002B6CD1D7F8A030042B9A
:10B3600068D0D7F89C30042B64D04FF0000C84F8E0
:10B3700002C007F178060FCE251D0FC50FCE0FC5F1
:10B3800096E8070085E8070084F830C0D7F8A430B5
:10B390006363D7F8A830A36304F582624FF6FF73A6
:10B3A000C4F826C4A4F82434C4F82024C4F829C45A
:10B3B00022780AB984F8543094F82430002B14BF52
:10B3C000EE231F2304F15501C4F81014A4F814341B
:10B3D00004F214423846FFF795FD40BB94F8243040
:10B3E000002B14BFEE231F2304F23121C4F81814DC
:10B3F000A4F81C3404F21C4207F13C00FFF782FD64
:10B40000A8B9A369A4F848304FF480730125A4F8C3
:10B41000503063692064014684F83C50636404F151
:10B420003C0204F15400FFF76BFF00B92570F8BD32
:10B430000E20FCE70720FAE7F8B5077804460D462A
:10B44000002F00F001810023C0F82634C0F8293411
:10B45000C388817000F226460BB1012903D0E3793D
:10B4600043B1022D06D1636BABB1012284F82D24C8
:10B470000820984704F2274304F22D4113F8012BCA
:10B4800012B99942FAD117466B1E032B4ED8DFE84A
:10B4900003F0050B0F1284F82D34EBE7A3791BB1F1
:10B4A00094F8243003B95FB9E3790BB1002F3FD191
:10B4B000237A002B3ED1637A002B0CBF0025042594
:10B4C000636BA570002B37D0033D012D34D8627912
:10B4D00092B394F82E247ABB84F83024012284F8A5
:10B4E0002F240720984704F13C0518220021284604
:10B4F00001F07BFAE26A531E0121022B28BF0A46A3
:10B5000084F8512094F8242084F83C1032B1A36AC6
:10B51000581E022828BF0B4684F85230A378042B0B
:10B520001CD8DFE803F0780D23365A000025C7E762
:10B530000225C5E70325C3E7002384F82F34D2E7AB
:10B54000012384F831300023C4E91063C4F82034A7
:10B55000022384F83C308023A4F84830A378002BE1
:10B560005DD1636B002B6BD1002068E00223002AC1
:10B5700084F8313014BF0723032384F83C30236957
:10B58000A4F848300023C4F82034E36826646364D8
:10B59000E4E763696364A369A4F8483012B1062341
:10B5A00084F83C306379B3B194F82E349BB994F8A5
:10B5B000303483B1022384F8503004212046FFF751
:10B5C000A5FE0028CAD1052384F8313004F5826332
:10B5D000C4F82034C2E70323F6E7E3696364236A0F
:10B5E000A4F8483012B1062384F83C30637983B163
:10B5F00094F82E346BB994F8303453B1022384F8A4
:10B60000503004212046FFF781FE0028A6D10623F2
:10B61000DAE70423D8E7002384F831309EE7D4F832
:10B6200020142A4604F15400FFF76AFE38B994F852
:10B63000301094F85400FFF765FE002891D0F8BD53
:10B6400094F8310098478FE70820F8E70388112B1A
:10B6500010B50C460AD0262B1FD0102B05D1C37B6A
:10B66000012B02D18388A1F8243410BD00228388E5
:10B6700081F82E24B1F824249A42F6D10B79002BBC
:10B68000F3D101212046FFF7D7FE0028EDD0A36BB0
:10B69000002BEAD0BDE810401847037A013B012B8C
:10B6A000E3D8897805230131B1FBF3F303EB83037E
:10B6B000C91AC9B2E6E738B5044690F85400FFF756
:10B6C00023FE012384F82E34002384F8303484F8D8
:10B6D000503006212046FFF719FE054638B9A178FB
:10B6E0002046FFF7A9FE10B1A36B03B19847284687
:10B6F00038BD75DF704776DF70477ADF70477BDFD4
:10B7000070470000034B1A8882420CBF1846002085
:10B71000704700BF843E0020024B9B6903B118476D
:10B72000704700BF683E002073B585B22846FFF71A
:10B73000E9FF044638B3174E027A337B9A420CD2A3
:10B7400000F10A012846FFF7D4FFF0B111281AD002
:10B7500002B0BDE87040FFF7DFBF00230372337C07
:10B7600043B13B212846FFF7C6FF30F0080301D064
:10B77000FFF7D2FF736933B100228DF80420ADF8D2
:10B78000065001A8984702B070BD237A0133237296
:10B79000F9E700BF683E002037B50B46497A0F4AEB
:10B7A00079B9D2E901141D7A0246002D18BF21464D
:10B7B0005868FBF743FD78B103B0BDE83040FFF7B0
:10B7C000ABBF00211972536933B10122ADF80600F5
:10B7D0008DF8042001A8984703B030BD683E0020D2
:10B7E0004B8802889A4212D842889A420FD38088A6
:10B7F0008B8840F2F311884294BF021A421A9A428F
:10B8000005D80844984234BF00200120704700202A
:10B81000704700000388122B70B5014659D004D838
:10B82000102B1ED0112B44D070BD502BFCD12F4BB0
:10B83000C288DB899A42F7D1038A022BF4D1868829
:10B840003046FFF75FFF05460028EDD001F11200FA
:10B8500000F07FF938BB6868FBF71EFD0028E3D0D5
:10B8600009E0C37B012BDFD14FF6FF70FFF74AFFE2
:10B87000054620B90420BDE87040FFF74DBF1C4AC3
:10B880008E880680002303721368C0F80A3053685C
:10B89000C0F80E3010310A30FFF7A2FF134B687268
:10B8A000DB89002BC0D129463046BDE87040FFF748
:10B8B00073BF8088FFF726FF04460028B4D0406895
:10B8C000FBF7EAFC08B1FFF727FF4FF6FF73238071
:10B8D000AAE786883046FFF715FF05460028A3D063
:10B8E00008310A30FFF77CFF6872DCE7683E002011
:10B8F000983E0020F8B5064648B305460FCD154FD3
:10B900003C460FC495E8070084E807003068124CF5
:10B910003C60B0B1FFF7F1FEC0B932681368236034
:10B92000536863600D480E4A4FF6FF7303800D4B5A
:10B9300040F8043F0021FBF76FFC002818BF0320EC
:10B9400004E02046FFF7DBFE0028EBD0F8BD0E2018
:10B95000FCE700BF683E0020983E0020843E0020A7
:10B9600029B70200A03E00200AB1FCF7ADB8FCF7F1
:10B97000B4B873B50191019C06466CB100252C4604
:10B98000294601A8FCF7B3F818B106EB44030134CB
:10B990009D800135142DF3D13046346002B070BD66
:10B9A0002DE9F04703888488103B8CB005460A2BAC
:10B9B00021D8DFE803F00640202020202020206549
:10B9C0004700DFF8E880D8F80830DB430093D8F868
:10B9D00004106846FCF7B7F8009901A8FFF7C9FF03
:10B9E0000DF108090027019B9F4207D3132C12D9A0
:10B9F0000420FBF7CDFA0CB0BDE8F08739F802ABB4
:10BA000000260136514608EB8600FCF766F81E2E2C
:10BA1000F7D10137E7E71F482146FCF755F81E48E4
:10BA20002146FCF751F8EB7B022BE4D11B48214661
:10BA3000FCF74AF8DFE7174821460CB0BDE8F047AD
:10BA4000FCF74BB8027A16483F2A4FEA12152146F6
:10BA500094BF00220122FFF787FF022D94BF00222E
:10BA6000012210482146FFF77FFF012D0E4894BFA9
:10BA70000022012221460CB0BDE8F047FFF774BF59
:10BA8000037A002BB7D1427A0548C2F3C00221469F
:10BA9000F1E700BFC83E0020C43E0020CC3E00209D
:10BAA000D83E0020D43E0020D03E0020C03E0020E2
:10BAB0001328014602D80248FCF719B80020704745
:10BAC000C43E002010B50446FFF7F2FF002814BF63
:10BAD0002046142010BD70B50546164608460AB922
