:100000000000012071030000590300005B030000A1
:100010005D0300005F0300006103000000000000BA
:10002000000000000000000000000000630300006A
:100030006503000000000000670300006903000082
:100040006B0300006B0300006B0300006B030000F8
:100050006B0300006B0300006B0300006B030000E8
:10006000F10400006B0300006B0300006B03000051
:100070006B0300006B0300006B0300006B030000C8
:100080006B0300006B0300006B0300006B030000B8
:100090006B0300006B0300006B0300006B030000A8
:1000A0006B0300006B0300006B0300006B03000098
:1000B0006B0300006B030000000000000000000064
:1000C0006B0300006B0300006B0300006B03000078
:1000D0006B0300006B0300006B03000000000000D6
:1000E0000000000000000000000000000000000010
:1000F0000000000000000000000000000000000000
:1001000000000000000000000000000000000000EF
:1001100000000000000000000000000000000000DF
:1001200000000000000000000000000000000000CF
:1001300000000000000000000000000000000000BF
:1001400000000000000000000000000000000000AF
:10015000000000000000000000000000000000009F
:10016000000000000000000000000000000000008F
:10017000000000000000000000000000000000007F
:10018000000000000000000000000000000000006F
:10019000000000000000000000000000000000005F
:1001A000000000000000000000000000000000004F
:1001B000000000000000000000000000000000003F
:1001C000000000000000000000000000000000002F
:1001D000000000000000000000000000000000001F
:1001E000000000000000000000000000000000000F
:1001F00000000000000000000000000000000000FF
:10020000344935480A1A02D0072291438D463349B2
:1002100033480A1A06D00722914381F30988022243
:1002200082F314882F483049304A00F041F83048B2
:100230003049314A00F03CF830483149314A00F049
:1002400037F831483149324A00F032F83148324902
:10025000324A00F02DF832483249334A00F028F88B
:1002600032483349334A00F023F8334833490022F7
:1002700000F029F832483349002200F024F83248CF
:100280003249091A00F0AAFD314A90471F48204917
:10029000884205D00268043003B4904703BCF7E7F6
:1002A00000208646EC46002000212A4A9047FEE7BF
:1002B000884207D0521A05D0037801300B70013103
:1002C000013AF9D17047884202D002700130FAE752
:1002D000704700000000012000E000200000012025
:1002E00000000120F40D00000000002004000020A8
:1002F000CC030000CC030000F00D0000F40D000062
:100300000000002000000020F00D0000F00D0000B3
:10031000F00D0000F00D0000F00D0000F00D0000E9
:10032000F00D0000F00D0000F40D0000F80D0000CD
:10033000040000200400002004000020140000201D
:1003400014000020140000201400002014200020BD
:100350009903000009050000FEE7FEE7FEE7FEE75F
:10036000FEE7FEE7FEE7FEE7FEE7FEE700F002B885
:10037000FFF7FCBF0F484FF00701884385460E4842
:1003800080470E48016841F470010160BFF34F8F50
:10039000BFF36F8FFFF734BF09480A490A4A884202
:1003A00007D0521A05D0037801300B700131013AA1
:1003B000F9D1704700000120310B000088ED00E00A
:0C03C000F00D00000000002000000020F4
:1003CC0084B001900B46ADF80230BDF80230019AB2
:1003DC00134400221A60BDF80230019A13441B68C2
:1003EC000393039B00BF04B0704782B001900B468F
:1003FC00ADF80230BDF80230019A13441B68002B93
:10040C0014BF01230023DBB2184602B0704782B040
:10041C0001900091019BD3F80423009B1340002B07
:10042C0014BF01230023DBB2184602B0704782B020
:10043C000190019B9B0003F5A0739BB2184602B080
:10044C00704782B001904FF48032019B02FA03F3A3
:10045C00184602B0704700B587B00390029113465E
:10046C008DF8073000238DF8173030E09DF81730E9
:10047C001846FFF7DCFF0346ADF814309DF8173033
:10048C001846FFF7DEFF0490BDF8143019460398A8
:10049C00FFF7ABFF0346002B14D004990398FFF72A
:1004AC00B6FF0346002B0DD0BDF814301946039847
:1004BC00FFF786FF029B1B68029A5168BDF8142057
:1004CC00104698479DF8173001338DF817309DF87A
:1004DC0017209DF807309A42C8D300BF00BF07B061
:1004EC005DF804FB08B5042202490348FFF7B3FF8B
:1004FC0000BF08BD040000200080004030BFFDE7B5
:10050C00BFF34F8F00BF064BDB6803F4E062044976
:10051C00044B1343CB60BFF34F8F00BF00BFFDE70D
:10052C0000ED00E00400FA0582B01D4B1B68B3F12E
:10053C00FF3F0AD11B4B1B68DBB201931A4B1B68A4
:10054C001B0903F00F03009305E0154B1B68019387
:10055C00164B1B680093019B062B1DD1009B033B84
:10056C00042B17D801A252F823F000BF8D05000010
:10057C009105000095050000990500009D050000FF
:10058C0001230AE0012308E0012306E0012304E033
:10059C00012302E0012300E00023184602B070475B
:1005AC0030010010E00F00F0E80F00F034010010F3
:1005BC0082B0174B1B68DBB20193164B1B681B09EF
:1005CC0003F00F030093019B062B1DD1009B033BF3
:1005DC00042B17D801A252F823F000BFFD05000030
:1005EC000106000005060000090600000D060000CB
:1005FC0001230AE0002308E0002306E0002304E0C6
:10060C00002302E0002300E00023184602B07047EC
:10061C00E00F00F0E80F00F082B01D4B1B68B3F147
:10062C00FF3F0AD11B4B1B68DBB201931A4B1B68B3
:10063C001B0903F00F03009305E0154B1B68019396
:10064C00164B1B680093019B062B1DD1009B033B93
:10065C00042B17D801A252F823F000BF7D0600002E
:10066C008106000085060000890600008D0600004A
:10067C0001230AE0012308E0012306E0012304E042
:10068C00012302E0012300E00023184602B070476A
:10069C0030010010E00F00F0E80F00F03401001002
:1006AC0082B0174B1B68DBB20193164B1B681B09FE
:1006BC0003F00F030093019B062B1DD1009B033B02
:1006CC00042B17D801A252F823F000BFED0600004E
:1006DC00F1060000F5060000F9060000FD0600001A
:1006EC0001230AE0002308E0002306E0002304E0D5
:1006FC00002302E0002300E00023184602B07047FC
:10070C00E00F00F0E80F00F082B01D4B1B68B3F156
:10071C00FF3F0AD11B4B1B68DBB201931A4B1B68C2
:10072C001B0903F00F03009305E0154B1B680193A5
:10073C00164B1B680093019B062B1DD1009B033BA2
:10074C00042B17D801A252F823F000BF6D0700004C
:10075C007107000075070000790700007D07000095
:10076C0001230AE0012308E0012306E0012304E051
:10077C00012302E0012300E00023184602B0704779
:10078C0030010010E00F00F0E80F00F03401001011
:10079C0082B0174B1B68DBB20193164B1B681B090D
:1007AC0003F00F030093019B062B1DD1009B033B11
:1007BC00042B17D801A252F823F000BFDD0700006C
:1007CC00E1070000E5070000E9070000ED07000065
:1007DC0001230AE0002308E0002306E0002304E0E4
:1007EC00002302E0002300E00023184602B070470B
:1007FC00E00F00F0E80F00F082B0174B1B68DBB283
:10080C000193164B1B681B0903F00F030093019B0C
:10081C00062B1DD1009B033B042B17D801A252F8C9
:10082C0023F000BF45080000490800004D080000F7
:10083C00510800005508000001230AE0002308E0DD
:10084C00002306E0002304E0002302E0002300E084
:10085C000023184602B07047E00F00F0E80F00F0DC
:10086C0082B01D4B1B68B3F1FF3F0AD11B4B1B68B9
:10087C00DBB201931A4B1B681B0903F00F030093A7
:10088C0005E0154B1B680193164B1B680093019BED
:10089C00062B1DD1009B033B042B17D801A252F849
:1008AC0023F000BFC5080000C9080000CD080000F7
:1008BC00D1080000D508000000230AE0002308E05E
:1008CC00012306E0012304E0012302E0012300E000
:1008DC000023184602B0704730010010E00F00F002
:1008EC00E80F00F03401001082B01D4B1B68B3F10F
:1008FC00FF3F0AD11B4B1B68DBB201931A4B1B68E1
:10090C001B0903F00F03009305E0154B1B680193C3
:10091C00164B1B680093019B062B1DD1009B033BC0
:10092C00042B17D801A252F823F000BF4D09000088
:10093C005109000055090000590900005D0900002B
:10094C0001230AE0012308E0012306E0012304E06F
:10095C00012302E0012300E00023184602B0704797
:10096C0030010010E00F00F0E80F00F0340100102F
:10097C0082B01D4B1B68B3F1FF3F0AD11B4B1B68A8
:10098C00DBB201931A4B1B681B0903F00F03009396
:10099C0005E0154B1B680193164B1B680093019BDC
:1009AC00062B1DD1009B033B042B17D801A252F838
:1009BC0023F000BFD5090000D9090000DD090000B3
:1009CC00E1090000E509000001230AE0012308E029
:1009DC00012306E0012304E0012302E0012300E0EF
:1009EC000023184602B0704730010010E00F00F0F1
:1009FC00E80F00F03401001082B0154B1B68019316
:100A0C00144B1B680093019B062B1DD1009B033BD1
:100A1C00042B17D801A252F823F000BF3D0A0000A6
:100A2C00410A0000450A0000490A00004D0A000076
:100A3C0000230AE0002308E0002306E0012304E081
:100A4C00012302E0012300E00023184602B07047A6
:100A5C00300100103401001082B0154B1B6801935B
:100A6C00144B1B680093019B062B1DD1009B033B71
:100A7C00042B17D801A252F823F000BF9D0A0000E6
:100A8C00A10A0000A50A0000A90A0000AD0A000096
:100A9C0000230AE0002308E0002306E0002304E022
:100AAC00012302E0012300E00023184602B0704746
:100ABC00300100103401001008B5FFF7CDFF0346DC
:100ACC00002B07D04FF010234FF08042D3F80832A0
:100ADC00C2F8583500BF08BD00BF044BD3F8003432
:100AEC00002BFAD000BF00BF704700BF00E00140F0
:100AFC0000B583B00190054A019BC2F80435FFF79D
:100B0C00EBFF00BF03B05DF804FB00BF00E0014049
:100B1C00024B034A1A6000BF704700BF0000002060
:100B2C000090D00308B5FFF7FFFC0346002B06D05E
:100B3C00964B1B681B0A964A03F01F031360FFF7C2
:100B4C0037FD0346002B02D0924B934A1A60FFF7F5
:100B5C0063FD0346002B06D0904B1B685B0B904A41
:100B6C0003F007031360FFF79BFD0346002B05D032
:100B7C008C4BDB688B4A23F08073D360FFF7C4FD8A
:100B8C000346002B0ED04FF080430022C3F80C21FB
:100B9C004FF080430022C3F810214FF08043002215
:100BAC00C3F83825FFF7F4FD0346002B02D07E4B2B
:100BBC0003221A60FFF720FE0346002B0BD07B4B61
:100BCC0005221A607A4B01221A607A4B00221A60B5
:100BDC00794B3F221A60FFF743FE0346002B76D079
:100BEC004FF08053754AD3F80434C2F820354FF0D7
:100BFC008053724AD3F80834C2F824354FF080532E
:100C0C006E4AD3F80C34C2F828354FF080536B4A37
:100C1C00D3F81034C2F82C354FF08053674AD3F810
:100C2C001434C2F830354FF08053644AD3F818347A
:100C3C00C2F834354FF08053604AD3F81C34C2F8F4
:100C4C0040354FF080535D4AD3F82034C2F8443518
:100C5C004FF08053594AD3F82434C2F848354FF03A
:100C6C008053564AD3F82834C2F84C354FF0805391
:100C7C00524AD3F82C34C2F850354FF080534F4AB7
:100C8C00D3F83034C2F854354FF080534B4AD3F874
:100C9C003434C2F860354FF08053484AD3F83834B6
:100CAC00C2F864354FF08053444AD3F83C34C2F850
:100CBC0068354FF08053414AD3F84034C2F86C3554
:100CCC004FF080533D4AD3F84434C2F87035FFF7E7
:100CDC000BFE0346002B05D0394B1B68394A03F039
:100CEC004F031360FFF744FE0346002B0DD04FF06B
:100CFC008043D3F8003403F00103002B05D04FF0F0
:100D0C0080436FF00102C3F80024FFF775FE034621
:100D1C00002B05D02C4B1B682B4A43F480631360CB
:100D2C002A4BD3F88830294A43F47003C2F8883030
:100D3C00BFF34F8F00BFBFF36F8F00BFFFF7BCFE39
:100D4C004FF01023D3F80032002B05DB4FF01023AB
:100D5C00D3F80432002B15DA0120FFF7C9FE4FF04F
:100D6C0010231522C3F80022FFF7B6FE4FF0102314
:100D7C001522C3F80422FFF7AFFE0020FFF7B8FEE0
:100D8C00FFF7BEFBFFF7C4FE00BF08BD2403001035
:100D9C004035014074C007400DF0ADBA440200105C
:100DAC003C050040F0ED00E0A0050040105600406E
:100DBC0088560040185600401456004000C00040B1
:100DCC0058020010E40E00403C17004000ED00E01B
:100DDC00072904D90023024AC0E90031106070478A
:040DEC0010000020D3
:040DF4000090D00398
:040000030000037185
:00000001FF
