:100000000000012071030000590300005B030000A1
:100010005D0300005F0300006103000000000000BA
:10002000000000000000000000000000630300006A
:100030006503000000000000670300006903000082
:100040006B0300006B0300006B0300006B030000F8
:100050006B0300006B0300006B0300006B030000E8
:10006000590B00006B0300006B0300006B030000E2
:100070006B0300006B0300006B0300006B030000C8
:100080006B0300006B0300006B0300006B030000B8
:100090006B0300006B0300006B0300006B030000A8
:1000A0006B0300006B0300006B0300006B03000098
:1000B0006B0300006B030000000000000000000064
:1000C0006B0300006B0300006B0300006B03000078
:1000D0006B0300006B0300006B03000000000000D6
:1000E0000000000000000000000000000000000010
:1000F0000000000000000000000000000000000000
:1001000000000000000000000000000000000000EF
:1001100000000000000000000000000000000000DF
:1001200000000000000000000000000000000000CF
:1001300000000000000000000000000000000000BF
:1001400000000000000000000000000000000000AF
:10015000000000000000000000000000000000009F
:10016000000000000000000000000000000000008F
:10017000000000000000000000000000000000007F
:10018000000000000000000000000000000000006F
:10019000000000000000000000000000000000005F
:1001A000000000000000000000000000000000004F
:1001B000000000000000000000000000000000003F
:1001C000000000000000000000000000000000002F
:1001D000000000000000000000000000000000001F
:1001E000000000000000000000000000000000000F
:1001F00000000000000000000000000000000000FF
:10020000344935480A1A02D0072291438D463349B2
:1002100033480A1A06D00722914381F30988022243
:1002200082F314882F483049304A00F041F83048B2
:100230003049314A00F03CF830483149314A00F049
:1002400037F831483149324A00F032F83148324902
:10025000324A00F02DF832483249334A00F028F88B
:1002600032483349334A00F023F8334833490022F7
:1002700000F029F832483349002200F024F83248CF
:100280003249091A01F076FA314A90471F4820494D
:10029000884205D00268043003B4904703BCF7E7F6
:1002A00000208646EC46002000212A4A9047FEE7BF
:1002B000884207D0521A05D0037801300B70013103
:1002C000013AF9D17047884202D002700130FAE752
:1002D000704700000000012000E000200000012025
:1002E000000001200C190000000000200400002084
:1002F000CC030000CC030000881700000C1900009C
:10030000000000200000002088170000881700006F
:100310008817000088170000881700008817000061
:1003200088170000881700000C1900001019000041
:1003300004000020040000200400002034000020FD
:10034000340000203400002034000020342000203D
:1003500099030000790E0000FEE7FEE7FEE7FEE7E6
:10036000FEE7FEE7FEE7FEE7FEE7FEE700F002B885
:10037000FFF7FCBF0F484FF00701884385460E4842
:1003800080470E48016841F470010160BFF34F8F50
:10039000BFF36F8FFFF734BF09480A490A4A884202
:1003A00007D0521A05D0037801300B700131013AA1
:1003B000F9D1704700000120C914000088ED00E069
:0C03C00088170000000000200000002052
:1003CC0086B003900291019201238DF817309DF8AD
:1003DC001730204A039B13601E4A029B53601D4A30
:1003EC00019B9360039B44F20102934212D0039B46
:1003FC0044F20202934220D1019B164AD360154B62
:10040C00DB681B68134A9361124BDB685B68114A0B
:10041C00D36112E0019B0F4A13610E4B1B699B6861
:10042C000C4A53610B4B1B691B680A4A9361094BBD
:10043C001B695B68074AD36100BF72B600BF00BF7F
:10044C009DF81730DBB2002BFAD162B600BF00BFAB
:10045C0006B070470400002000B583B002900091F4
:10046C00019244F2010071466A4600F003F803B0B1
:10047C0000BD00BF00B587B003900291019272B627
:10048C0000BF039B44F20102934207D0039B44F24A
:10049C000202934205D1019B059303E0019B049357
:1004AC0000E000BF074B1B6803F00103002B00D0DA
:1004BC0000BE019A02990398FFF782FF00BF07B0B4
:1004CC005DF804FBF0ED00E000B585B0034600914B
:1004DC00ADF80630BDF806300293009B039302ABD7
:1004EC001A46002144F20200FFF7C4FF00BF05B01A
:1004FC005DF804FB82B003468DF807309DF9073098
:10050C00002B0CDB9DF8073003F01F0205499DF909
:10051C0007305B09012000FA02F241F8232000BFEA
:10052C0002B0704700E100E082B0034600918DF804
:10053C0007309DF90730002B0ADB009BDAB20C491F
:10054C009DF907305201D2B20B4483F800230BE023
:10055C00009BDAB207499DF8073003F00F03043B08
:10056C005201D2B20B441A7600BF02B0704700BFE2
:10057C0000E100E000ED00E082B00190019B1B0B5C
:10058C005BB2184602B0704700B583B003460A460A
:10059C008DF8073013468DF806309DF80630072B82
:1005AC0003D908496B20FFF78FFF9DF806209DF9B2
:1005BC00073011461846FFF7B7FF00BF03B05DF8D0
:1005CC0004FB00BF8817000000B583B003468DF80C
:1005DC0007309DF907301846FFF78CFF00BF03B0BA
:1005EC005DF804FB82B001900B468DF803309DF84A
:1005FC000330019A134401221A6000BF02B0704705
:10060C0084B001900B46ADF80230BDF80230019A6F
:10061C00134400221A60BDF80230019A13441B687F
:10062C000393039B00BF04B0704782B001900B464C
:10063C00ADF80230BDF80230019A13441B68002B50
:10064C0014BF01230023DBB2184602B0704782B0FE
:10065C0001900091019BD3F80022009B1A43019B4F
:10066C00C3F8002200BF02B0704782B00190009125
:10067C00019BD3F80022009BDB431A40019BC3F87B
:10068C00002200BF02B0704782B001900091019B24
:10069C00009AC3F8042300BF02B0704782B00190E7
:1006AC000091019B009AC3F8082300BF02B0704769
:1006BC0082B001900091019BD3F80423009B13405E
:1006CC00002B14BF01230023DBB2184602B0704785
:1006DC0082B001900B468DF80330019BD3F80435A2
:1006EC0023F003029DF8033003F003031A43019B2C
:1006FC00C3F8042500BF02B0704782B001900B46CE
:10070C008DF80330019BD3F8083523F003029DF8D4
:10071C00033003F003031A43019BC3F8082500BF01
:10072C0002B0704782B001900B468DF80330019BEC
:10073C00D3F8103523F00F029DF8033003F00F03AC
:10074C001A43019BC3F8102500BF02B0704784B058
:10075C0003900B4601928DF80B309DF80B20039BF8
:10076C0002F5A872019943F8221000BF04B070473B
:10077C0082B00190019B9B0003F5A0739BB21846BD
:10078C0002B0704782B001904FF48032019B02FAA4
:10079C0003F3184602B0704710B588B0039002916D
:1007AC000192039B1B791A4613465B0013449B0072
:1007BC00704A13440693029B002B03D16E494A20C6
:1007CC00FFF782FE019B002B03D16B494B20FFF7F7
:1007DC007BFE069B1B7A002B03D008230593059BFD
:1007EC00C4E0039B1B68654A93420FD1029B9B7824
:1007FC00012B64D0029B9B78002B60D0029B9B78D2
:10080C00022B5CD0029B9B78032B58D0039B1B685C
:10081C005B4A93420FD1029B9B78012B4FD0029BDA
:10082C009B78002B4BD0029B9B78022B47D0029BD2
:10083C009B78032B43D0039B1B68524A93420FD1E6
:10084C00029B9B78012B3AD0029B9B78002B36D0D5
:10085C00029B9B78022B32D0029B9B78032B2ED0D1
:10086C00039B1B68484A93420FD1029B9B78012B38
:10087C0025D0029B9B78002B21D0029B9B78022BCE
:10088C001DD0029B9B78032B19D0039B1B683F4AFE
:10089C0093420FD1029B9B78012B10D0029B9B782B
:1008AC00002B0CD0029B9B78022B08D0029B9B78D0
:1008BC00032B04D030495F20FFF706FE00E000BF99
:1008CC00069B019A1A60029B5A68069B5A60002389
:1008DC008DF81F3010E0039B1C689DF81F301846E4
:1008EC00FFF746FF034619462046FFF789FE9DF8A1
:1008FC001F3001338DF81F30039B5B799DF81F204F
:10090C009A42E8D3039B1B681846FFF735FE034653
:10091C001A46029BDB7819461046FFF735FE039BFF
:10092C001B681846FFF728FE03461846FFF74CFED7
:10093C00039B1A68029B5B7819461046FFF7C8FEAA
:10094C00039B1A68029B9B7819461046FFF7D5FE4D
:10095C00039B1A68029B1B7819461046FFF7E2FEB0
:10096C00069B01221A7200230593059B184608B0BA
:10097C0010BD00BF24000020B8170000008000400C
:10098C000090004000A0004000A0014000B00140D9
:10099C0000B583B00190019B1B791946114A0B4697
:1009AC005B000B449B00134408331B78012B03D0D2
:1009BC000D498F20FFF788FD019B1B68002118460D
:1009CC00FFF710FE019B1B791946064A0B465B008C
:1009DC000B449B001344083302221A7000BF03B06F
:1009EC005DF804FB24000020B817000010B586B099
:1009FC00039001921A460B468DF80B3013468DF876
:100A0C000A309DF80B301846FFF7BCFE05909DF898
:100A1C000A30002B12D0039B1C689DF80B30184633
:100A2C00FFF7A6FE034619462046FFF7E9FD039B98
:100A3C001B6805991846FFF727FE05E0039B1B680A
:100A4C0005991846FFF72AFE039B1B689DF80B10AF
:100A5C00019A1846FFF77BFE00BF06B010BD00B52B
:100A6C0085B0039001921A460B468DF80B30134655
:100A7C00ADF80830039B18689DF80B304FF480726A
:100A8C009A409DF80B30012101FA03F313431946E8
:100A9C00FFF7EBFD039B1B68BDF8082011461846B9
:100AAC00FFF7D5FD9DF818309DF80B10019A0398AF
:100ABC00FFF79CFF00BF05B05DF804FB00B587B0E5
:100ACC000390029113468DF8073000238DF81730F0
:100ADC0030E09DF817301846FFF74AFE0346ADF894
:100AEC0014309DF817301846FFF74CFE0490BDF8F3
:100AFC00143019460398FFF798FD0346002B14D0C9
:100B0C0004990398FFF7D4FD0346002B0DD0BDF8D4
:100B1C00143019460398FFF773FD029B1B68029A69
:100B2C005168BDF81420104698479DF817300133D2
:100B3C008DF817309DF817209DF807309A42C8D3CE
:100B4C0000BF00BF07B05DF804FB000008B504222D
:100B5C0002490348FFF7B2FF00BF08BD2400002084
:100B6C000080004082B00190019BD3F81035DBB2BD
:100B7C00184602B0704700002DE9F04F87B0019085
:100B8C008DF803109DF803100591019900200E4675
:100B9C000746304639464FF0000A4FF0000B4FEA3B
:100BAC00411B4BEAD06B4FEA401A50465946821B08
:100BBC0061EB07034FF000004FF00001990041EA90
:100BCC009271900002460B4612EB060843EB0709A4
:100BDC004FF000024FF000034FEAC91343EA586389
:100BEC004FEAC8129046994642464B460599C1F1C8
:100BFC002006A1F1200022FA01F403FA06F6344390
:100C0C0023FA00F0044323FA01F5CDE90245DDE9AE
:100C1C000223012B04D305494FF43170FFF754FC28
:100C2C00029B184607B0BDE8F08F00BF20180000EB
:100C3C0000B583B001900091019B1B681846FFF72B
:100C4C0091FF034619460098FFF796FF0346184696
:100C5C0003B05DF804FB000000B583B00190019B6C
:100C6C001B68184600F092F80346002B04D1054986
:100C7C004FF4F670FFF728FC4FF0A043184603B072
:100C8C005DF804FB5018000000B585B001900846D3
:100C9C0011461A4603468DF803300B468DF8023088
:100CAC0013468DF8013001AB1846FFF7D5FF0390C2
:100CBC009DF803209DF802305B001A439DF801302B
:100CCC009B001A439DF818301B0242EA03019DF861
:100CDC001C301B04019A1943039B02F5E07243F884
:100CEC00221000BF05B05DF804FB00B585B0039081
:100CFC000023019300230093002301220121039878
:100D0C00FFF7C2FF00BF05B05DF804FB00B585B06E
:100D1C00019001AB1846FFF79FFF0390019B012246
:100D2C0002FA03F31946039800F026F800BF05B049
:100D3C005DF804FB00B585B0019001AB1846FFF7D8
:100D4C008BFF0390039BD3F804350293029BDA4389
:100D5C00019B012101FA03F31A40039BC3F80825F8
:100D6C00019B01229A40029B1A40039BC3F80C255D
:100D7C0000BF05B05DF804FB82B001900091019BAF
:100D8C00009AC3F8082500BF02B0704784B00190E8
:100D9C00019B5B09029300230393029B002B03D15D
:100DAC004FF0FF33039300BF019B03F01F0301932C
:100DBC00039A019B22FA03F303F00103002B14BFE7
:100DCC0001230023DBB2184604B0704700B583B092
:100DDC0003460091ADF80630BDF80630B3F5A07FA0
:100DEC0006D11120FFF7A6FF1420FFF7A3FF00E0A8
:100DFC0000BF00BF03B05DF804FB000000B589B074
:100E0C00002307934FF496730693144A02AB92E8AF
:100E1C00030083E8030002AB114A19461148FFF79F
:100E2C00BBFC0790079B0593059B002B04D00E4A37
:100E3C0026210598FFF710FB06990A48FFF7F8FEE4
:100E4C000490012300930123049A00210548FFF725
:100E5C0006FE00BF09B05DF804FB00BFFC180000E3
:100E6C00D90D0000041900008018000008B51120ED
:100E7C00FFF73BFF1420FFF738FF1120FFF746FF69
:100E8C001420FFF743FFFFF7B9FF0248FFF780FD7F
:100E9C0030BFFDE704190000BFF34F8F00BF064BB6
:100EAC00DB6803F4E0620449044B1343CB60BFF3EB
:100EBC004F8F00BF00BFFDE700ED00E00400FA0516
:100ECC0082B01D4B1B68B3F1FF3F0AD11B4B1B6853
:100EDC00DBB201931A4B1B681B0903F00F03009341
:100EEC0005E0154B1B680193164B1B680093019B87
:100EFC00062B1DD1009B033B042B17D801A252F8E3
:100F0C0023F000BF250F0000290F00002D0F00005B
:100F1C00310F0000350F000001230AE0012308E027
:100F2C00012306E0012304E0012302E0012300E099
:100F3C000023184602B0704730010010E00F00F09B
:100F4C00E80F00F03401001082B0174B1B68DBB2C5
:100F5C000193164B1B681B0903F00F030093019BB5
:100F6C00062B1DD1009B033B042B17D801A252F872
:100F7C0023F000BF950F0000990F00009D0F00009B
:100F8C00A10F0000A50F000001230AE0002308E0D8
:100F9C00002306E0002304E0002302E0002300E02D
:100FAC000023184602B07047E00F00F0E80F00F085
:100FBC0082B01D4B1B68B3F1FF3F0AD11B4B1B6862
:100FCC00DBB201931A4B1B681B0903F00F03009350
:100FDC0005E0154B1B680193164B1B680093019B96
:100FEC00062B1DD1009B033B042B17D801A252F8F2
:100FFC0023F000BF15100000191000001D10000098
:10100C00211000002510000001230AE0012308E054
:10101C00012306E0012304E0012302E0012300E0A8
:10102C000023184602B0704730010010E00F00F0AA
:10103C00E80F00F03401001082B0174B1B68DBB2D4
:10104C000193164B1B681B0903F00F030093019BC4
:10105C00062B1DD1009B033B042B17D801A252F881
:10106C0023F000BF85100000891000008D100000D7
:10107C00911000009510000001230AE0002308E005
:10108C00002306E0002304E0002302E0002300E03C
:10109C000023184602B07047E00F00F0E80F00F094
:1010AC0082B01D4B1B68B3F1FF3F0AD11B4B1B6871
:1010BC00DBB201931A4B1B681B0903F00F0300935F
:1010CC0005E0154B1B680193164B1B680093019BA5
:1010DC00062B1DD1009B033B042B17D801A252F801
:1010EC0023F000BF05110000091100000D110000D4
:1010FC00111100001511000001230AE0012308E082
:10110C00012306E0012304E0012302E0012300E0B7
:10111C000023184602B0704730010010E00F00F0B9
:10112C00E80F00F03401001082B0174B1B68DBB2E3
:10113C000193164B1B681B0903F00F030093019BD3
:10114C00062B1DD1009B033B042B17D801A252F890
:10115C0023F000BF75110000791100007D11000013
:10116C00811100008511000001230AE0002308E032
:10117C00002306E0002304E0002302E0002300E04B
:10118C000023184602B07047E00F00F0E80F00F0A3
:10119C0082B0174B1B68DBB20193164B1B681B0903
:1011AC0003F00F030093019B062B1DD1009B033B07
:1011BC00042B17D801A252F823F000BFDD11000058
:1011CC00E1110000E5110000E9110000ED11000033
:1011DC0001230AE0002308E0002306E0002304E0DA
:1011EC00002302E0002300E00023184602B0704701
:1011FC00E00F00F0E80F00F082B01D4B1B68B3F15C
:10120C00FF3F0AD11B4B1B68DBB201931A4B1B68C7
:10121C001B0903F00F03009305E0154B1B680193AA
:10122C00164B1B680093019B062B1DD1009B033BA7
:10123C00042B17D801A252F823F000BF5D12000056
:10124C006112000065120000691200006D120000AE
:10125C0000230AE0002308E0012306E0012304E058
:10126C00012302E0012300E00023184602B070477E
:10127C0030010010E00F00F0E80F00F03401001016
:10128C0082B01D4B1B68B3F1FF3F0AD11B4B1B688F
:10129C00DBB201931A4B1B681B0903F00F0300937D
:1012AC0005E0154B1B680193164B1B680093019BC3
:1012BC00062B1DD1009B033B042B17D801A252F81F
:1012CC0023F000BFE5120000E9120000ED1200004F
:1012DC00F1120000F512000001230AE0012308E0DE
:1012EC00012306E0012304E0012302E0012300E0D6
:1012FC000023184602B0704730010010E00F00F0D8
:10130C00E80F00F03401001082B01D4B1B68B3F1E4
:10131C00FF3F0AD11B4B1B68DBB201931A4B1B68B6
:10132C001B0903F00F03009305E0154B1B68019399
:10133C00164B1B680093019B062B1DD1009B033B96
:10134C00042B17D801A252F823F000BF6D13000034
:10135C007113000075130000791300007D13000059
:10136C0001230AE0012308E0012306E0012304E045
:10137C00012302E0012300E00023184602B070476D
:10138C0030010010E00F00F0E80F00F03401001005
:10139C0082B0154B1B680193144B1B680093019B87
:1013AC00062B1DD1009B033B042B17D801A252F82E
:1013BC0023F000BFD5130000D9130000DD1300008B
:1013CC00E1130000E513000000230AE0002308E00D
:1013DC00002306E0012304E0012302E0012300E0E6
:1013EC000023184602B07047300100103401001081
:1013FC0082B0154B1B680193144B1B680093019B27
:10140C00062B1DD1009B033B042B17D801A252F8CD
:10141C0023F000BF35140000391400003D14000007
:10142C00411400004514000000230AE0002308E0EA
:10143C00002306E0002304E0012302E0012300E086
:10144C000023184602B07047300100103401001020
:10145C0008B5FFF7CDFF0346002B07D04FF0102344
:10146C004FF08042D3F80832C2F8583500BF08BD9F
:10147C0000BF044BD3F80034002BFAD000BF00BFE0
:10148C00704700BF00E0014000B583B00190054AF1
:10149C00019BC2F80435FFF7EBFF00BF03B05DF80A
:1014AC0004FB00BF00E00140024B034A1A6000BF7E
:1014BC00704700BF000000200090D00308B5FFF774
:1014CC00FFFC0346002B06D0964B1B681B0A964A62
:1014DC0003F01F031360FFF737FD0346002B02D008
:1014EC00924B934A1A60FFF763FD0346002B06D01C
:1014FC00904B1B685B0B904A03F007031360FFF7DC
:10150C009BFD0346002B05D08C4BDB688B4A23F0EC
:10151C008073D360FFF7C4FD0346002B0ED04FF051
:10152C0080430022C3F80C214FF080430022C3F803
:10153C0010214FF080430022C3F83825FFF7F4FD4B
:10154C000346002B02D07E4B03221A60FFF720FECD
:10155C000346002B0BD07B4B05221A607A4B0122E1
:10156C001A607A4B00221A60794B3F221A60FFF7FF
:10157C0043FE0346002B76D04FF08053754AD3F8C8
:10158C000434C2F820354FF08053724AD3F8083433
:10159C00C2F824354FF080536E4AD3F80C34C2F89D
:1015AC0028354FF080536B4AD3F81034C2F82C35E1
:1015BC004FF08053674AD3F81434C2F830354FF0EB
:1015CC008053644AD3F81834C2F834354FF0805342
:1015DC00604AD3F81C34C2F840354FF080535D4A52
:1015EC00D3F82034C2F844354FF08053594AD3F81D
:1015FC002434C2F848354FF08053564AD3F8283477
:10160C00C2F84C354FF08053524AD3F82C34C2F800
:10161C0050354FF080534F4AD3F83034C2F854351C
:10162C004FF080534B4AD3F83434C2F860354FF046
:10163C008053484AD3F83834C2F864354FF080539D
:10164C00444AD3F83C34C2F868354FF08053414AD1
:10165C00D3F84034C2F86C354FF080533D4AD3F880
:10166C004434C2F87035FFF70BFE0346002B05D04F
:10167C00394B1B68394A03F04F031360FFF744FEE4
:10168C000346002B0DD04FF08043D3F8003403F009
:10169C000103002B05D04FF080436FF00102C3F81B
:1016AC000024FFF775FE0346002B05D02C4B1B685E
:1016BC002B4A43F4806313602A4BD3F88830294AB1
:1016CC0043F47003C2F88830BFF34F8F00BFBFF3F1
:1016DC006F8F00BFFFF7BCFE4FF01023D3F8003222
:1016EC00002B05DB4FF01023D3F80432002B15DA56
:1016FC000120FFF7C9FE4FF010231522C3F800227A
:10170C00FFF7B6FE4FF010231522C3F80422FFF7A3
:10171C00AFFE0020FFF7B8FEFFF7BEFBFFF7C4FEDD
:10172C0000BF08BD240300104035014074C00740C1
:10173C000DF0ADBA440200103C050040F0ED00E0A5
:10174C00A005004010560040885600401856004036
:10175C001456004000C0004058020010E40E004037
:10176C003C17004000ED00E0072904D90023024A91
:0C177C00C0E90031106070473000002010
:101788002E2E2F2E2E2F2E2E2F2E2E2F2E2E2F2E6C
:101798002E2F696E746567726174696F6E2F6E7231
:1017A80066782F6E7266785F676C75652E680000C4
:1017B800433A5C55736572735C576F6E5265736517
:1017C8006172636847726F75705C4465736B746FA0
:1017D800705C4465765C456D6265646465645C6EE6
:1017E8005246355F53444B5F31372E312E305C6D96
:1017F8006F64756C65735C6E7266785C647269762A
:101808006572735C7372635C6E7266785F74696D1F
:1018180065722E63000000002E2E2F2E2E2F2E2EE6
:101828002F2E2E2F2E2E2F2E2E2F6D6F64756C655A
:10183800732F6E7266782F68616C2F6E72665F7494
:10184800696D65722E6800002E2E2F2E2E2F2E2EDB
:101858002F2E2E2F2E2E2F2E2E2F6D6F64756C652A
:10186800732F6E7266782F68616C2F6E72665F6771
:1018780070696F2E68000000433A5C557365727397
:101888005C576F6E526573656172636847726F75F6
:10189800705C4465736B746F705C4465765C456D11
:1018A8006265646465645C6E5246355F53444B5FA1
:1018B80031372E312E305C6578616D706C65735CE4
:1018C800746573742D656D6265646465642D7379E0
:1018D8007374656D735C6E524635325F345F486170
:1018E8007264776172655F54696D65725C6D616978
:1018F8006E2E630000000306000000000080004018
:0419080000040000D7
:04190C000090D00374
:040000030000037185
:00000001FF
