:100000000000012071030000590300005B030000A1
:100010005D0300005F0300006103000000000000BA
:10002000000000000000000000000000630300006A
:100030006503000000000000670300006903000082
:100040006B0300006B030000192C0000153C00003E
:100050002D3C00006B0300006B0300006B030000ED
:100060006B0300006B0300006B0300006B030000D8
:100070006B0300006B0300006B0300006B030000C8
:100080006B0300006B0300006B0300006B030000B8
:100090006B0300006B0300006B0300006B030000A8
:1000A0006B0300006B0300006B0300006B03000098
:1000B0006B0300006B030000000000000000000064
:1000C0006B0300006B0300006B0300006B03000078
:1000D0006B0300006B0300006B03000000000000D6
:1000E0000000000000000000000000000000000010
:1000F0000000000000000000000000000000000000
:1001000000000000000000000000000000000000EF
:1001100000000000000000000000000000000000DF
:1001200000000000000000000000000000000000CF
:1001300000000000000000000000000000000000BF
:1001400000000000000000000000000000000000AF
:10015000000000000000000000000000000000009F
:10016000000000000000000000000000000000008F
:10017000000000000000000000000000000000007F
:10018000000000000000000000000000000000006F
:10019000000000000000000000000000000000005F
:1001A000000000000000000000000000000000004F
:1001B000000000000000000000000000000000003F
:1001C000000000000000000000000000000000002F
:1001D000000000000000000000000000000000001F
:1001E000000000000000000000000000000000000F
:1001F00000000000000000000000000000000000FF
:10020000344935480A1A02D0072291438D463349B2
:1002100033480A1A06D00722914381F30988022243
:1002200082F314882F483049304A00F041F83048B2
:100230003049314A00F03CF830483149314A00F049
:1002400037F831483149324A00F032F83148324902
:10025000324A00F02DF832483249334A00F028F88B
:1002600032483349334A00F023F8334833490022F7
:1002700000F029F832483349002200F024F83248CF
:100280003249091A05F028FF314A90471F48204992
:10029000884205D00268043003B4904703BCF7E7F6
:1002A00000208646EC46002000212A4A9047FEE7BF
:1002B000884207D0521A05D0037801300B70013103
:1002C000013AF9D17047884202D002700130FAE752
:1002D000704700000000012000E000200000012025
:1002E000000001202C7100000000002070000020A0
:1002F000CC030000CC030000EC6000002C71000077
:10030000000000200000002038610000386100007B
:100310003861000038610000386100003861000079
:1003200038610000386100002C7100009C710000F1
:1003300070000020700000207000002044070020A2
:1003400044070020440700204407002044270020E1
:1003500099030000C9550000FEE7FEE7FEE7FEE74F
:10036000FEE7FEE7FEE7FEE7FEE7FEE700F002B885
:10037000FFF7FCBF0F484FF00701884385460E4842
:1003800080470E48016841F470010160BFF34F8F50
:10039000BFF36F8FFFF734BF09480A490A4A884202
:1003A00007D0521A05D0037801300B700131013AA1
:1003B000F9D1704700000120995C000088ED00E051
:0C03C00038610000000000200000002058
:1003CC0000B5A1B00590049103920293049802F039
:1003DC008BF8039B1593029B169300231793002312
:1003EC008DF8603000231993229B1A9300231F93DE
:1003FC000FA91F9B0822049802F050F908231F93A1
:10040C00119B1293BDF84030ADF84C30BDF8423022
:10041C00ADF84E3000238DF851309DF83C3003F090
:10042C000303DBB2012B26D10F9BC3F395231C9343
:10043C009DF83C30C3F3C203DBB28DF85030BDF8ED
:10044C003C30C3F38313DBB21B931B9B9A0009A9AB
:10045C001F9B049802F022F91B9B9B001F9A1344CC
:10046C001F9312AA09A915AB009313461B9A1C984B
:10047C0000F0D2FF2FE09DF83C3003F00303DBB219
:10048C00022B28D1BDF83E30C3F389139BB21E93C7
:10049C009DF83C30C3F3C203DBB28DF850301E9B89
:1004AC00082B28BF08231D9307A91F9B1D9A04988E
:1004BC0002F0F4F81F9A1D9B13441F931E9A1D9B68
:1004CC00D31A1E9315AB12AA07A81D9901F046F872
:1004DC001E9B002BE3D1049802F015F800BF21B04D
:1004EC005DF804FB00B583B00190019B1B781A46A4
:1004FC000C4B9B5C002B05D0019B0433184604F07D
:10050C00CBFD0BE0019B1B781A46064B9B5C002B2A
:10051C0004D1019B0C33184603F05CFF00BF03B001
:10052C005DF804FB7806002000B587B003900291BB
:10053C0013468DF8073000230593039B1B781A464E
:10054C00114B9B5C002B09D0039B04339DF80720B7
:10055C000299184604F002FE05900FE0039B1B78ED
:10056C001A46094B9B5C002B08D1039B0C339DF85E
:10057C0007200299184603F0A5FF0590059B184625
:10058C0007B05DF804FB00BF7806002082B0019034
:10059C000091034B01221A7000BF02B0704700BFDC
:1005AC00B000002030B58DB003468DF807301A4BE3
:1005BC0002AC1D460FCD0FC495E80F0084E80F0068
:1005CC00062302934FF0FF3303934FF0FF33049352
:1005DC004FF0FF3305934FF0EB7308939DF8073002
:1005EC00002B01D00D4A00E0002202AB19460C484A
:1005FC0002F0ACFA0B900B9B0A930A9B002B04D0D5
:10060C00084A43210A9801F06DF8074A9DF8073013
:10061C00137000BF0DB030BDAC6100009905000037
:10062C000000002038610000B100002000B583B04C
:10063C0001238DF807309DF807301846FFF7B2FFFD
:10064C0000BF03B05DF804FB00B589B003900291C4
:10065C000192019B8DF81F30124B00221A709DF8ED
:10066C001F301A4602991048FFF75EFF0690069B52
:10067C000593059B002B04D00C4A5321059801F0DF
:10068C0031F800BF0A4B1B78002B07D0054B1B78A9
:10069C00DBB283F00103DBB2002BF3D100BF09B056
:1006AC005DF804FBB0000020000000203861000061
:1006BC00B100002000B585B003900291054B00936A
:1006CC004023054A02990398FFF77AFE00BF05B054
:1006DC005DF804FB550600007000002082B001900C
:1006EC0000BF02B07047000000B583B00190054810
:1006FC00FFF7F8FE0020FFF755FF00BF03B05DF8D1
:10070C0004FB00BF0000002082B00190019BDB685D
:10071C0001225A7100BF02B07047000000B583B0CF
:10072C004FF0FF330193FFF781FF0421084800F0DD
:10073C008FFD0190019B002B03DA0649482001F044
:10074C00C4F80348FFF7E0FF00BF03B05DF804FBFB
:10075C0014610000EC61000000B583B001900091C1
:10076C00019B1B681B6800990198984700BF03B058
:10077C005DF804FB00B583B00190019B1B685B68BE
:10078C000198984700BF03B05DF804FB00B583B037
:10079C000190019B1B689B680198984700BF03B0B0
:1007AC005DF804FB82B001900B468DF80330019B81
:1007BC00DB689DF803201A7100BF02B0704782B04D
:1007CC000190019BDB681B79184602B0704782B020
:1007DC000190019BDB6801225A7100BF02B0704787
:1007EC0082B00190019BDB685B79184602B07047C0
:1007FC0000B585B0019000910C4B00221A700C488A
:10080C0001F0D6FD0390039B002B01D0039B08E065
:10081C00084801F063FF084A084BD31ADB0802931F
:10082C000023184605B05DF804FB00BF1C02002035
:10083C00246100006462000014610000EC600000A0
:10084C00024A034BD31ADB081846704714610000A8
:10085C00EC60000000B587B001900B468DF80330BA
:10086C009DF80330002B1FD0FFF7EAFF0490002304
:10087C00059313E0059B9B000E4A13440393039BC3
:10088C001B881A46019B1B689A4204D1019B059A4E
:10089C001A60002309E0059B01330593059A049B1C
:1008AC009A42E7D3052300E00023184607B05DF811
:1008BC0004FB00BF0000002000B585B001900B4682
:1008CC008DF803309DF8032001AB11461846FFF755
:1008DC00C1FF0346002B07D1019BDB00054A1344E3
:1008EC000393039B1B6800E00023184605B05DF8DA
:1008FC0004FB00BFEC60000084B001900B468DF847
:10090C000330019BDB00174A134402939DF803301C
:10091C00013B032B1CD801A252F823F0390900002B
:10092C0041090000490900005309000002238DF819
:10093C000F3011E004238DF80F300DE0029B1B7972
:10094C008DF80F3008E0029B5B798DF80F3003E0D7
:10095C0000238DF80F3000BF9DF80F30184604B0FF
:10096C00704700BFEC60000084B001900091002340
:10097C008DF80F30019B1B7803F00403DBB2002BC6
:10098C0024D0019B1B78C3F30103DBB2012B02D0F3
:10099C00022B0CD017E0009B1B68019A1288C2F343
:1009AC008312D2B213449A1C009B1A600BE0009B7A
:1009BC001B68019A5288C2F3891292B213449A1C92
:1009CC00009B1A6000BF01238DF80F309DF80F308B
:1009DC00184604B07047000000B58BB00023ADF88A
:1009EC0026303E4800F0FEFF3D4800F0FBFF3D4B3B
:1009FC009B6804933C4B1B680693049A069B13401C
:100A0C0002339B00374A13440433089304AB194652
:100A1C000898FFF7A9FF0346002B09D0049A069B00
:100A2C00134002339B002F4A134404330893EDE721
:100A3C0000BF0023079311E0049B5A1C0492069AF2
:100A4C001340079A920001A90A44264902339B00DD
:100A5C000B445B681360079B01330793079B012BC7
:100A6C00EAD99DF80430C3F30103DBB2012B10D09B
:100A7C00022B1CD1BDF80A30ADF82630BDF806307B
:100A8C00C3F389139BB203339A08049B1344049356
:100A9C0013E0BDF80A30ADF82630BDF80430C3F3CE
:100AAC008313DBB21A46049B1344049305E00F49ED
:100ABC004FF4C27000F009FF00BF094800F09EFF20
:100ACC000590059B002B02D0049B064A9360BDF851
:100ADC00263018460BB05DF804FB00BF340600202E
:100AEC00300600201C0200201C0000207462000054
:100AFC0000B585B00021074800F0FDFE0390039B74
:100B0C000293029B83F310030193019B184605B0DB
:100B1C005DF804FB3806002000B589B00390029103
:100B2C0001920093039B1B0C0793FFF7E1FF0690C8
:100B3C00FFF786FE0246079B934204D3214940F2FD
:100B4C00A91000F0C2FE069B1904009B5A1C0A9BBC
:100B5C001340079A0A431C4902339B000B445A600A
:100B6C00009A0A9B134002339B00174A1344043328
:100B7C000593039B03F00703D9B2059A137861F32D
:100B8C00C5031370019B03F00F03D9B2059A1388A8
:100B9C0061F389131380029BC3F31501059A136843
:100BAC0061F39F231360059A1378012161F301030C
:100BBC001370059A13786FF38203137000BF09B09A
:100BCC005DF804FB746200001C02002000BF70473B
:100BDC0000B58BB00390029113468DF80730039B40
:100BEC000233089301238DF81F30002000F026FEFD
:100BFC003E4B5A68029B1A603D4B1A683B4B9968F6
:100C0C003A4B5B68CB1A13440133099314E001216E
:100C1C00384800F0B7FEFFF7DFFE05900599354820
:100C2C0000F0B0FE324B1A68304B99682F4B5B6862
:100C3C00CB1A134401330993089A099B9A42E6D8BC
:100C4C009DF81F30002B48D0002304939DF80730EB
:100C5C00002B17D09DF81030012262F301038DF8A0
:100C6C0010309DF8103043F004038DF81030039BC6
:100C7C0003F00F03DAB2BDF8103062F38913ADF84C
:100C8C00103016E09DF81030022262F301038DF84B
:100C9C0010309DF8103043F004038DF81030039B96
:100CAC00C3F309039AB2BDF8123062F38F13ADF897
:100CBC0012300E4B5A680E4B1B68134002339B00CC
:100CCC000A4A134404330693049A069B1A60074B92
:100CDC005A68089B1344054A5360002000F0C2FD7B
:100CEC009DF81F3018460BB05DF804FB1C02002069
:100CFC001C0000203806002000B58BB00590049134
:100D0C0003920293204B1B68079306AB01221946F2
:100D1C000298FFF75DFF0346002B24D0069B02339D
:100D2C0009930023089311E0089B9B00039A1A4433
:100D3C00099B591C099107990B40126813490233FE
:100D4C009B000B445A60089B01330893089A029B42
:100D5C009A42E9D3069A079B00931346029A049988
:100D6C000598FFF7D9FE094B1B78002B05D000BF67
:100D7C0000F06AF80346002BFAD1FFF727FF00BFFB
:100D8C000BB05DF804FB00BF1C0000201C0200200F
:100D9C0000B583B0019000910023002200990198C6
:100DAC00FFF7AAFF00BF03B05DF804FB00B587B0E6
:100DBC00039002910192019B059305AA01230299CC
:100DCC000398FFF799FF00BF07B05DF804FB00B56F
:100DDC0087B00390029101920093019B0493009BB6
:100DEC00059304AA022302990398FFF785FF00BF1D
:100DFC0007B05DF804FB00B58BB003900291019233
:100E0C000093019B0593009B06930C9B07930D9BF2
:100E1C0008930E9B099305AA052302990398FFF7E3
:100E2C006BFF00BF0BB05DF804FB0000054B9A682C
:100E3C00044B5B689A420CBF01230023DBB21846BB
:100E4C00704700BF1C02002000B599B0FFF7EEFF01
:100E5C000346002B01D00023B9E19B4B0022C3F8C1
:100E6C001824BFF34F8F00BF974B9B680493974B8D
:100E7C001B681093049A109B134002339B00924AF8
:100E8C001344043311930023179300231693002368
:100E9C000F9304AB19461198FFF766FD0346002B20
:100EAC0019D0894BD3F81834002B14D1864B5A68BF
:100EBC00049B9A4205D8844B5B68834A9360002359
:100ECC0085E1049A109B134002339B007E4A134425
:100EDC0004331193DDE70023159311E0049B5A1C96
:100EEC000492109A1340159A920001A90A4476496B
:100EFC0002339B000B445B681360159B0133159305
:100F0C00159B012BEAD99DF8043003F00303DBB2E7
:100F1C00022B40F09C80BDF80630C3F389139BB2C2
:100F2C000D93BDF80630C3F389139BB2502B28BF29
:100F3C0050239BB20C930C9BC3F309039AB2BDF8DC
:100F4C00063062F38F13ADF806300C9B08330B930D
:100F5C009DF80430C3F3C203DBB20F930B995C48CA
:100F6C0001F031FA1790179B002B00F0D3801798E3
:100F7C0001F0BAFA01A9169B0822179801F070FB30
:100F8C00169B08331693049BDA43109B13400133D2
:100F9C009B000A930C9A0A9B9A4242D90A9B002BFB
:100FAC0008D0049A109B134002339B00464A13440A
:100FBC00043300E0474B08930A9B002B02D00A9B9A
:100FCC00DBB201E00C9BDBB28DF81F300A9B002BCF
:100FDC0001D0404B00E0002306930A9B002B06D067
:100FEC000C9BDAB20A9BDBB2D31ADBB200E0002313
:100FFC008DF817309DF81F20169B0899179801F053
:10100C002FFB9DF81F30169A13441693069B002B4A
:10101C0016D09DF81720169B0699179801F020FB07
:10102C000EE0049A109B134002339B00264A134493
:10103C0004330993169B0C9A0999179801F010FB2D
:10104C000D9B03339A08049B1344049362E09DF8B0
:10105C00043003F00303DBB2012B5BD1BDF8043089
:10106C00C3F38313DBB2062B28BF0623DAB2BDF819
:10107C00043062F38913ADF80430BDF80430C3F3C7
:10108C008313DBB202330E939DF80430C3F3C20317
:10109C00DBB20F930E9B9B0019460D4801F093F9A0
:1010AC001790179B002B35D0179801F01DFA01A94A
:1010BC00169B0822179801F0D3FA169B0833169347
:1010CC00002315931DE000BF1C0200201C00002013
:1010DC002461000028020020049B5A1C0492109AE0
:1010EC00134002339B003C4A1344191D169B0422E7
:1010FC00179801F0B5FA169B04331693159B013320
:10110C001593BDF80430C3F38313DBB21A46159B59
:10111C009342E1D3179B002B39D02F4BD3F81034CB
:10112C0014932D4BD3F81834002B1BD0179801F0C7
:10113C00EAF946E000238DF84F301498FFF750FB86
:10114C000346002B02D001238DF84F309DF84F3011
:10115C00002B03D017991498FFF7FEFA149BDB6849
:10116C001B681493149B002BE4D1179801F0CBF956
:10117C00002000F063FB184BD3F81834002B02D17D
:10118C00049B154A9360002000F06CFB19E0124B95
:10119C00D3F81034129306E01298FFF7F7FA129B6B
:1011AC00DB681B681293129B002BF5D10B4A0C4B7E
:1011BC00D31ADB081B0443F002030A491846FFF755
:1011CC00E7FDFFF733FE034683F00103DBB218465D
:1011DC0019B05DF804FB00BF1C0200200C6100007C
:1011EC00EC600000E462000000B585B000230393BE
:1011FC0023E0164BD3F81034029301238DF80730FB
:10120C000FE00298FFF7DBFA03461A46039B934262
:10121C0003D100238DF8073006E0029BDB681B68C6
:10122C000293029B002BECD19DF80730002B01D0D0
:10123C00039B07E0039B01330393039B092BD8DD2E
:10124C004FF0FF33184605B05DF804FB1C0200207C
:10125C0000B585B001900B468DF80330FFF7C4FF45
:10126C000390039BB3F1FF3F01D1039B22E0039B4F
:10127C00DBB219460198FFF795FA104BD3F81034EE
:10128C00002B08D10D4A019BC2F81034019BDB687E
:10129C0000221A600DE0094BD3F81034DA68019B78
:1012AC00DB6812681A60054BD3F81034DB68019ABE
:1012BC001A60039B184605B05DF804FB1C02002065
:1012CC0000B583B00C4BD3F8103401930A4B0122B8
:1012DC001A7009E00198FFF77AFA0198FFF74AFAB9
:1012EC00019BDB681B680193019B002BF2D100BFB3
:1012FC0000BF03B05DF804FB1C02002082B001901B
:10130C00009100BF02B0704710B584B003900291F9
:10131C00039BDB88002B0AD0039BDB881A461F4BF0
:10132C00009313461E4A1F49029800F095FC039B3C
:10133C001B7A052B2ED0039B5B7A002B12D0039BC0
:10134C009B881A46039B1B7A19461046FFF7D4FA62
:10135C0003461A46144B53F822301A461349029886
:10136C0000F07AFC039B1B6819460298FFF7C6FF36
:10137C00039B1B7A1A460E4B53F82240039B9B8807
:10138C0000211846FFF798FA0346224609490298AD
:10139C0000F062FC00BF04B010BD00BF1863000079
:1013AC0028630000606300003400002078630000B4
:1013BC00200000207C63000000B585B003900291F2
:1013CC0013468DF80730039B1B7A052B0FD0039B1C
:1013DC005B7A002B06D00D4B1B681A460C49029801
:1013EC0000F03AFC0B49029800F036FC07E09DF83F
:1013FC000730002B03D00749029800F02DFC02980F
:10140C0000F008FC00BF05B05DF804FB34000020C0
:10141C00786300008863000030B58BB007900691AC
:10142C00059204930E9B1B7B8DF827300E9B00229C
:10143C001A730E990498FFF767FF059B062B7FD84C
:10144C0001A252F823F000BF711400007B140000BD
:10145C008B1400009F140000BD140000E514000064
:10146C001515000007990E9800F0F6FB69E0069B35
:10147C001B681A4607990E9800F0EEFB61E0069B7C
:10148C001A68069B04331B6807990E9800F0E4FB5E
:10149C0057E0069B1A68069B04331968069B0833B1
:1014AC001B6800930B4607990E9800F0D5FB48E09B
:1014BC00069B1968069B04331868069B08331B6847
:1014CC00069A0C3212680192009303460A46079959
:1014DC000E9800F0C1FB34E0069B1868069B0433A1
:1014EC001C68069B08331B68069A0C321268069916
:1014FC001031096802910192009323460246079924
:10150C000E9800F0A9FB1CE0069B1C68069B04339C
:10151C001D68069B08331B68069A0C3212680699E4
:10152C0010310968069814300068039002910192FA
:10153C0000932B46224607990E9800F08DFB00E095
:10154C0000BF00220E990498FFF736FF0E9B9DF802
:10155C0027201A7300BF0BB030BD00BF00B587B099
:10156C000390029101920093029B082B60D8009B80
:10157C001B7B8DF81330009B00221A730099019885
:10158C00FFF7C2FE0023059314E0059A029B9A42D2
:10159C0009D2039A059B13441B781A4626490098D6
:1015AC0000F05AFB03E02549009800F055FB059B21
:1015BC0001330593059B072BE7D92149009800F0CF
:1015CC004BFB0023059326E0059A029B9A421BD203
:1015DC00039A059B13441B788DF812309DF812303A
:1015EC007E2B0AD89DF81230184604F0D2FC034624
:1015FC00002B02D09DF8123000E02E231A46114920
:10160C00009800F029FB03E00F49009800F024FB40
:10161C00059B01330593059B072BD5D90122009916
:10162C000198FFF7C9FE009B9DF813201A7300E088
:10163C0000BF07B05DF804FB8C63000094630000EE
:10164C00986300009C630000A063000086B00390C8
:10165C000291019201238DF817309DF81730204A22
:10166C00039B13601E4A029B53601D4A019B9360AF
:10167C00039B44F20102934212D0039B44F20202F8
:10168C00934220D1019B164AD360154BDB681B6833
:10169C00134A9361124BDB685B68114AD36112E009
:1016AC00019B0F4A13610E4B1B699B680C4A5361DB
:1016BC000B4B1B691B680A4A9361094B1B695B68DE
:1016CC00074AD36100BF72B600BF00BF9DF8173048
:1016DC00DBB2002BFAD162B600BF00BF06B0704778
:1016EC003C06002000B583B002900091019244F2B8
:1016FC00010071466A4600F003F803B000BD00BF5C
:10170C0030B58BB007900691059272B600BFFFF70B
:10171C00D7FD00BFFFF798FB0346002BFAD1079BC0
:10172C0044F20102934216D0079B44F20202934208
:10173C003ED1059B09932C4A2C4BD31ADB081B0476
:10174C0043F00100099B5B681A46099B1B682849FA
:10175C00FFF73DFB39E0059B0893234A234BD31A33
:10176C00DB081B0443F00104089B9D68089B9B68E5
:10177C00184600F0D1FF03461846089B5B681946D3
:10178C00089B1B68069A02920193009103462A4615
:10179C0018492046FFF72FFB134A144BD31ADB08CA
:1017AC001B0443F0010314491846FFF7F1FA0CE04F
:1017BC000D4A0E4BD31ADB081B0443F00103069AA7
:1017CC000E491846FFF7F2FA00BF0D4B1B6803F0E9
:1017DC000103002B00D000BE059A06990798FFF76D
:1017EC0035FF00BF0BB030BD0C610000EC60000099
:1017FC00A4630000C0630000E8630000FC63000009
:10180C00F0ED00E072B600BF034B1B680133024AD7
:10181C00136000BF704700BF5C060020064B1B68BE
:10182C00013B054A1360044B1B68002B01D162B6C7
:10183C0000BF00BF704700BF5C06002000B583B03E
:10184C00019000F025F80346012B03D004494320F6
:10185C0000F03BF8FFF7D6FF00BF03B05DF804FBC8
:10186C001464000000B583B003468DF8073000F017
:10187C000FF80346012B03D00449512000F025F842
:10188C00FFF7CCFF00BF03B05DF804FB146400004D
:10189C0084B0EFF305830193019BC3F30803039317
:1018AC00039B002B0DD1EFF314830093009B029349
:1018BC00029B03F00103002B0CBF01230023DBB2BE
:1018CC0000E00123184604B0704700B585B003460C
:1018DC000091ADF80630BDF806300293009B0393DF
:1018EC0002AB1A46002144F20200FFF709FF00BFC9
:1018FC0005B05DF804FB10B487B001900091019B1A
:10190C00009A53E8004F104643E8000191F0000F95
:10191C00F7D1059404900391059B184607B05DF828
:10192C00044B704710B487B001900091019B009A52
:10193C0053E8004F44EA020043E8000191F0000F25
:10194C00F6D1059404900391049B184607B05DF8FA
:10195C00044B704710B487B001900091019B009A22
:10196C0053E8004F04EA020043E8000191F0000F35
:10197C00F6D1059404900391059B184607B05DF8C9
:10198C00044B704710B487B001900091019B009AF2
:10199C0053E8004F04EB020043E8000191F0000F04
:1019AC00F6D1059404900391049B184607B05DF89A
:1019BC00044B704710B487B001900091019B009AC2
:1019CC0053E8004FA4EB020043E8000191F0000F34
:1019DC00F6D1059404900391049B184607B05DF86A
:1019EC00044B704700B583B0019001210198FFF7BB
:1019FC0099FF0346184603B05DF804FB00B583B0AD
:101A0C00019000210198FFF7A5FF0346184603B08B
:101A1C005DF804FB00B583B001900B468DF80330E4
:101A2C00019B002B03D10849E820FFF74EFF019BD7
:101A3C00DA689DF803300199098A01FB03F313441A
:101A4C00184603B05DF804FB8464000000B583B055
:101A5C0001900091019B002B03D10849F520FFF761
:101A6C0034FF009B019AD2689B1A019A128AB3FB2D
:101A7C00F2F3DBB2184603B05DF804FB846400009B
:101A8C0000B585B00190019B002B01D10E234CE0D9
:101A9C00019B1B68002B03D12649FF20FFF715FF84
:101AAC00019B5B68002B04D122494FF48070FFF737
:101ABC000CFF019B9B68002B04D11E4940F20110C6
:101ACC00FFF703FF019BDB68002B04D119494FF48E
:101ADC008170FFF7FAFE019B1B8A002B04D115497C
:101AEC0040F20310FFF7F1FE019B9A68019B5B68C3
:101AFC00D31A8DF80F30019B1B68019A52681A603B
:101B0C0007E0019B1A681368591C11609DF80F209F
:101B1C001A709DF80F305A1E8DF80F20002BF0D143
:101B2C00019B1B6800221A710023184605B05DF852
:101B3C0004FB00BF8464000000B585B00190019BDC
:101B4C00002B04D11C494FF49270FFF7BEFE00230A
:101B5C0003930020FFF772FE019B1B681A68019B20
:101B6C005B689A421FD9019B1B681A68013A1A607C
:101B7C001B681B7819460198FFF74CFF0390019BDB
:101B8C009A68019B1B681B68D31A8DF80B30019B5C
:101B9C001B681B799DF80B209A4204D9019B1B688A
:101BAC009DF80B201A710020FFF75CFE039B184672
:101BBC0005B05DF804FB00BF8464000010B584B070
:101BCC0001900091019B002B04D1114940F2471068
:101BDC00FFF77BFE009B002B04D10D494FF4A47042
:101BEC00FFF773FE009B03930020FFF727FE019B7A
:101BFC001B681C68621C1A6003990198FFF726FF8A
:101C0C00034623700020FFF72DFE00BF04B010BD6B
:101C1C008464000000B583B00190019B002B03D1BC
:101C2C000C493120FFF751FE019B9B68002B0CD017
:101C3C00019B5B69019A1069019A1168019A92687B
:101C4C009847019B00229A6000E000BF03B05DF84A
:101C5C0004FB00BFEC6400000EB400B584B001902E
:101C6C00019B002B03D118494220FFF72EFE019B4C
:101C7C005B69002B03D114494320FFF726FE019B1F
:101C8C001B68002B03D110494420FFF71EFE019B5B
:101C9C005B68002B03D10C494520FFF716FE059B12
:101CAC00002B0AD00023039306AB039303AB1A4615
:101CBC000599019800F0B8F900E000BF04B05DF898
:101CCC0004EB03B0704700BFEC64000000B583B0B8
:101CDC0001900B468DF803309DF803300A2B03D18D
:101CEC000D210198FFF7F2FF019B1A68019B9B687D
:101CFC00581C0199886013449DF803201A70019BAD
:101D0C009A68019B5B689A4202D30198FFF782FFA5
:101D1C0000BF03B05DF804FB00B587B003900291DF
:101D2C000192009300230593009B03F00103002B09
:101D3C0024D00BE0029B01330293059B01330593E6
:101D4C009DF8133019460398FFF7C0FF029B1B78D0
:101D5C008DF813309DF81330002BEBD106E0019B6E
:101D6C00013B019320210398FFF7B0FF019A059BDB
:101D7C009A422ED9019B002BF1D12AE0029B002B19
:101D8C000BD0029804F040F9059006E0019B013B52
:101D9C00019320210398FFF799FF019A059B9A4222
:101DAC000FD9019B002BF1D10BE0029B0133029365
:101DBC00059B013305939DF8133019460398FFF7E3
:101DCC0085FF029B1B788DF813309DF81330002B88
:101DDC00EBD100BF07B05DF804FB000000B589B083
:101DEC000390029101920093029B079301230693A7
:101DFC0007E0079A019BB2FBF3F30793069B0133B1
:101E0C000693079A019B9A42F3D2009A069B9A4238
:101E1C0001D9009B06930B9B03F00103002B22D1ED
:101E2C000A9B002B1FD00B9B03F00203002B06D048
:101E3C00009B002B03D130238DF8173002E02023B8
:101E4C008DF8173008E00A9B013B0A939DF8173078
:101E5C0019460398FFF73AFF0A9B002B03D0069A0A
:101E6C000A9B9A42EFD301230793009B012B03D9C2
:101E7C00009B013B009309E0029A079BB2FBF3F332
:101E8C000493049A019B9A4200D205E0079B019AA5
:101E9C0002FB03F30793E8E7029A079BB2FBF3F309
:101EAC000493049B079A02FB03F3029AD31A02933E
:101EBC00154A049B13441B7819460398FFF706FF39
:101ECC00079A019BB2FBF3F30793079B002BE3D11B
:101EDC000B9B03F00103002B11D00A9B002B0ED09F
:101EEC0006E00A9B013B0A9320210398FFF7EEFEC4
:101EFC000A9B002B03D0069A0A9B9A42F1D300BF8F
:101F0C0009B05DF804FB00BFB465000000B589B0F2
:101F1C000590049103920293049B002BB8BF5B4283
:101F2C0006930123079307E0039B069A92FBF3F3B6
:101F3C000693079B01330793039B069A9A42F3DAA5
:101F4C00029A079B9A4201D9029B07930A9B002B8A
:101F5C000AD0049B002B04DB0B9B03F00403002B27
:101F6C0002D00A9B013B0A930B9B03F00203002B4C
:101F7C0002D0029B002B16D00B9B03F00103002B0D
:101F8C0011D10A9B002B0ED006E00A9B013B0A9351
:101F9C0020210598FFF79AFE0A9B002B03D0079A85
:101FAC000A9B9A42F1D3049B002B07DA049B5B42F9
:101FBC0004932D210598FFF789FE08E00B9B03F095
:101FCC000403002B03D02B210598FFF77FFE0B9BFE
:101FDC0003F00203002B19D00B9B03F00103002B21
:101FEC0014D1029B002B11D10A9B002B0ED006E0C2
:101FFC000A9B013B0A9330210598FFF767FE0A9B69
:10200C00002B03D0079A0A9B9A42F1D304990B9B9D
:10201C0001930A9B0093029B039A0598FFF7DEFE3F
:10202C0000BF09B05DF804FB00B58FB005900491BA
:10203C000392059B002B04D1AD4940F25220FFF7CF
:10204C0044FC059B5B69002B04D1A9494FF4157026
:10205C00FFF73BFC059B1B68002B04D1A44940F205
:10206C005520FFF732FC059B5B68002B04D1A0497F
:10207C0040F25620FFF729FC049B002B00F09381C3
:10208C00049B1B788DF83730049B013304939DF827
:10209C003730002B00F07E819DF83730252B40F037
:1020AC006D8100230A9301230C93049B1B788DF8FC
:1020BC0037309DF83730302B0DD0302B1BDC2B2BD1
:1020CC0011D02D2B17D10A9B43F001030A93049BCB
:1020DC000133049312E00A9B43F002030A93049B1E
:1020EC00013304930AE00A9B43F004030A93049B14
:1020FC000133049302E000230C9300BF0C9B002BD4
:10210C00D3D1002309939DF837302A2B0CD1039B94
:10211C001B68191D039A11601B68099A13440993D3
:10212C00049B013304931AE0049B1B788DF8373021
:10213C009DF837302F2B12D99DF83730392B0ED80C
:10214C00049B01330493099A13469B0013445B00D0
:10215C001A469DF837301344303B0993D3E70023DC
:10216C000B93049B1B788DF837309DF837302E2B52
:10217C001DD1049B01330493049B1B788DF83730DD
:10218C009DF837302F2B12D99DF83730392B0ED8BC
:10219C00049B013304930B9A13469B0013445B007E
:1021AC001A469DF837301344303B0B93E4E7049BFD
:1021BC001B788DF837309DF837306C2B03D09DF899
:1021CC003730682B07D1049B01330493049B1B7895
:1021DC008DF83730EFE79DF83730252B00F0C480B1
:1021EC00252BC0F2C680782B00F3C380582BC0F28D
:1021FC00C080583B202B00F2BC8001A252F823F087
:10220C00012300007F2300007F2300007F230000B8
:10221C007F2300007F2300007F2300007F2300002A
:10222C007F2300007F2300007F2300009122000009
:10223C00B32200007F2300007F2300007F230000D7
:10224C007F230000B32200007F2300007F230000C7
:10225C007F2300007F2300007F2300007F230000EA
:10226C00412300007F2300007F2300002523000072
:10227C007F230000D72200007F2300007F23000073
:10228C0001230000039B1B68191D039A11601B6836
:10229C000C930C9B8DF81F309DF81F301946059838
:1022AC00FFF714FD66E0039B1B68191D039A116070
:1022BC001B680C930A9B0193099B00930B9B0A22AE
:1022CC000C990598FFF722FE54E0039B1B68191D1F
:1022DC00039A11601B680C930C990A9B0193099B40
:1022EC0000930B9B0A220598FFF778FD42E000BF94
:1022FC004C650000039B1B68191D039A11601B6839
:10230C000C930C990A9B0193099B00930B9B102235
:10231C000598FFF763FD2DE0039B1B68191D039ABD
:10232C0011601B6808930A9B099A08990598FFF796
:10233C00F3FC1FE0039B1B68191D039A11601B68BB
:10234C000C9330210598FFF7C1FC78210598FFF715
:10235C00BDFC0C9900230193082300930823102241
:10236C000598FFF73BFD05E025210598FFF7AEFC2E
:10237C0000E000BF049B0133049305E09DF8373067
:10238C0019460598FFF7A2FC049B1B78002B7FF4E1
:10239C0077AE00E000BF059B1B7B002B04D005989B
:1023AC00FFF738FC00E000BF0FB05DF804FB00BF86
:1023BC0000B583B001900198FFF762FB0346184605
:1023CC0003B05DF804FB00B58BB001900091019B4C
:1023DC001B8A043B0793009A079B1344DA1C079B48
:1023EC00B2FBF3F38DF81B300198FFF7A5FB0590BA
:1023FC00059B002B01D1002338E0059B00221A71AC
:10240C00059B01225A71079B9AB2059BDA80059BAA
:10241C0009939DF81B30013B0493099B019A1A60A8
:10242C00002308931DE00198FFF786FB0390039BA4
:10243C00002B0ED0059B5B790133DAB2059B5A71E8
:10244C00099B039A1A60039B019A1A60039B0993D8
:10245C0004E0059800F00EF8002307E0089B013318
:10246C000893089A049B9A42DDD3059B18460BB03F
:10247C005DF804FB00B58BB00190019B0793079BA3
:10248C005B798DF81B30019B08939DF81B30013B49
:10249C0005930023099305E0089B1B680893099B8F
:1024AC0001330993099A059B9A42F5D3089B1B6843
:1024BC000493019B0893002309930BE0089B1B6872
:1024CC00039308990498FFF779FB039B0893099BE6
:1024DC00013309939DF81B30099A9A42EED300BF41
:1024EC0000BF0BB05DF804FB00B585B00190019BFB
:1024FC000393039B043301211846FFF743FA00BFF3
:10250C0005B05DF804FB00B587B00190019B059305
:10251C00059B043301211846FFF74CFA034603933D
:10252C0003AB0493049B1B78002B02D10198FFF79B
:10253C00A1FF00BF07B05DF804FB000000B591B02F
:10254C000390029101920093039B002B03D143490A
:10255C00B620FFF7BAF9039B0993039B0F93099BD2
:10256C00DB881A46099B5B7902FB03F3043B089357
:10257C00009A089B9A4203D33849C420FFF7A5F967
:10258C00099BDB880793009B1A1D079BB2FBF3F397
:10259C000E93009B0433079AB3FBF2F2079901FBED
:1025AC0002F29B1A0D93019B1A68009B1344089A24
:1025BC009A4203D2089A009BD31A01E0019B1B6834
:1025CC000C93019B0C9A1A6005E00F9B1B680F93F0
:1025DC000E9B013B0E930E9B002BF6D100230B930D
:1025EC00079A0D9BD31A0A930A9A0C9B934228BF05
:1025FC0013460A932AE0029A0B9B134406930F9AF4
:10260C000D9B1344043305939DF84830002B05D0E3
:10261C000A9A0599069803F027FD04E00A9A069990
:10262C00059803F021FD00230D930F9B1B680F935E
:10263C000C9A0A9BD31A0C930B9A0A9B13440B9378
:10264C00079A0C9B934228BF13460A930C9B002BB2
:10265C00D1D100BF00BF11B05DF804FBC465000010
:10266C0000B589B00590049103920293039B0793E4
:10267C0007AA00230093029B04990598FFF75EFFBD
:10268C00079B039A9A4203D00349F620FFF71DF9E2
:10269C0000BF09B05DF804FBC465000000B589B04B
:1026AC000590049103920293039B079307AA0123BD
:1026BC000093029B04990598FFF740FF079B039A30
:1026CC009A4204D004494FF48070FFF7FEF800BF23
:1026DC0009B05DF804FB00BFC465000082B0019036
:1026EC00019B9B6800229A60019B9B6800221A61E7
:1026FC00019B9B6800225A61019B9B680022DA6057
:10270C00019B9B6800225A60019B9B6800221A6007
:10271C0000BF02B07047000000B585B00190019871
:10272C0000F00EF80390039B002B01D0039B00E0FC
:10273C00024B184605B05DF804FB00BF2C66000088
:10274C0086B00190164B0593164B04931FE0049A28
:10275C00059BD31ADB10DA0F13445B10DB00059AD0
:10276C0013440393039B1B680293029A019B9A42A6
:10277C0002D9039B04930AE0029A019B9A4203D26A
:10278C00039B0833059302E0039B5B6804E0059A06
:10279C00049B9A42DBD30023184606B0704700BF57
:1027AC00006A0000186B000000B585B00190019B19
:1027BC00002B0AD0074B43F001030393019B9B01B1
:1027CC000293039B0298984700E000BF05B05DF8A8
:1027DC0004FB00BF506B000000B583B00190019B5F
:1027EC001B68184600F069F80346002B04D1054914
:1027FC004FF4F670FFF769F84FF0A043184603B09A
:10280C005DF804FB186B000000B585B0019001ABBE
:10281C001846FFF7E1FF0390019B012202FA03F334
:10282C001946039800F035F800BF05B05DF804FBBD
:10283C0000B585B0019001AB1846FFF7CDFF0390B2
:10284C00019B012202FA03F31946039800F02BF8BE
:10285C0000BF05B05DF804FB00B585B0019001AB7D
:10286C001846FFF7B9FF0390039800F00AF80246E8
:10287C00019B22FA03F303F00103184605B05DF83F
:10288C0004FB82B00190019BD3F81035184602B0BE
:10289C00704782B001900091019B009AC3F8082503
:1028AC0000BF02B0704782B001900091019B009A6A
:1028BC00C3F80C2500BF02B0704784B00190019B97
:1028CC005B09029300230393029B002B03D14FF06F
:1028DC00FF33039300BF019B03F01F030193039A83
:1028EC00019B22FA03F303F00103002B14BF012315
:1028FC000023DBB2184604B0704700B585B00190D8
:10290C004FF0A042019B1B6803F5E07340F20C6191
:10291C0042F823104FF0A042019B5B6803F5E07373
:10292C0040F20C6142F82310019B1B681846FFF71C
:10293C006BFF019B5B681846FFF766FF4FF0A042E8
:10294C00019B1B6803F5E07340F20D6142F8231004
:10295C004FF0A042019B5B6803F5E07340F20D6100
:10296C0042F823100420FFF71FFF002303931EE0FF
:10297C00019B5B681846FFF76FFF0346002B03D0E3
:10298C00039B002B17D124E0019B1B681846FFF713
:10299C004FFF0420FFF708FF019B1B681846FFF749
:1029AC0033FF0420FFF700FF039B01330393039BCA
:1029BC00082BDDDD00E000BF019B5B681846FFF7CC
:1029CC0037FF0420FFF7F0FE019B5B681846FFF70A
:1029DC001BFF05B05DF804FB00B589B001900091B8
:1029EC00009B0793019B1B788DF80C30019B1B7986
:1029FC008DF81030019B5B798DF81130019B9B6831
:102A0C00DBB28DF81230019BDB68DBB28DF8133032
:102A1C00019B1B690593019B5B690693074A079B06
:102A2C0052F823300649079A51F8221003AA10468F
:102A3C00984700BF09B05DF804FB00BF600600209A
:102A4C006806002000B587B00390029101920093B4
:102A5C00039B1B7805931249059B019A41F823208F
:102A6C001049059B009A41F82320029B5B7B002BAD
:102A7C0002D00298FFF741FF00230493039B181D1B
:102A8C00019B002B01D0084A00E00022059B029913
:102A9C0000F0E2FB0490049B184607B05DF804FBC1
:102AAC006006002068060020E529000000B589B00A
:102ABC0001900091009B0793019B1B788DF80C30C3
:102ACC00019B5B680493019B9B68DBB28DF814300F
:102ADC00019BDB680693074A079B52F82330064993
:102AEC00079A51F8221003AA1046984700BF09B064
:102AFC005DF804FB700600207406002000B589B058
:102B0C0001900091009B0793019B1B788DF80C3072
:102B1C00019B5B680493019B9B68DBB28DF81430BE
:102B2C00019BDB680693074A079B52F82330064942
:102B3C00079A51F8221003AA1046984700BF09B013
:102B4C005DF804FB700600207406002030B58FB0D1
:102B5C00039002910192039B1B780C9326490C9BCA
:102B6C00019A41F82320029B1A6924490C9B41F8D5
:102B7C002320029B5B7F1946214A0C9B13440A4677
:102B8C001A70029B04AC1D460FCD0FC495E80F00C4
:102B9C0084E80F000C9B089300230D93039B1B7878
:102BAC001A46174B9B5C002B0DD0039B181D019BE9
:102BBC00002B01D0134A00E0002204AB194602F0AE
:102BCC0005FA0D9014E0039B1B781A460C4B9B5C8A
:102BDC00002B0DD1039B03F10C00019B002B01D0AA
:102BEC00094A00E0002204AB194601F089FB0D9064
:102BFC000D9B18460FB030BD7006002074060020E7
:102C0C0078060020B92A0000092B000008B5064BF5
:102C1C001B68002B03D105495120FEF756FE024BD1
:102C2C001B68984700BF08BD7C0600205C6B000049
:102C3C0082B00190019B044A934201D1034B00E006
:102C4C000023184602B07047002000407C0600208C
:102C5C0000B587B001900091019B002B03D118495E
:102C6C007720FEF732FE0198FFF7E2FF0590059BF7
:102C7C00002B1ED000238DF813300020FEF7DEFD54
:102C8C00059B1B79002B03D001238DF8133005E035
:102C9C00059B009A1A60059B01221A710020FEF711
:102CAC00E1FD9DF81330002B03D011230393039BFC
:102CBC0002E000230393039B184607B05DF804FB66
:102CCC005C6B000000B585B00190019B002B03D11B
:102CDC000A499B20FEF7F9FD0198FFF7A9FF039025
:102CEC00039B002B05D0039B00221A60039B002240
:102CFC001A7100BF05B05DF804FB00BF5C6B0000EF
:102D0C0082B003468DF807309DF90730002B0CDBA1
:102D1C009DF8073003F01F0205499DF907305B0948
:102D2C00012000FA02F241F8232000BF02B07047E4
:102D3C0000E100E082B003468DF807309DF90730C2
:102D4C00002B0DDB9DF8073003F01F0206499DF99F
:102D5C0007305B09012000FA02F2603341F82320AE
:102D6C0000BF02B0704700BF00E100E082B0034634
:102D7C0000918DF807309DF90730002B0ADB009B82
:102D8C00DAB20C499DF907305201D2B20B4483F8E8
:102D9C0000230BE0009BDAB207499DF8073003F0E3
:102DAC000F03043B5201D2B20B441A7600BF02B09F
:102DBC00704700BF00E100E000ED00E082B0019040
:102DCC00019B03F06043B3F1005F0CBF01230023B0
:102DDC00DBB2184602B0704782B00190019B1B0B0E
:102DEC005BB2184602B0704700B583B003460A4682
:102DFC008DF8073013468DF806309DF80630072BFA
:102E0C0003D908496B20FEF760FD9DF806209DF95B
:102E1C00073011461846FFF7A9FF00BF03B05DF855
:102E2C0004FB00BFC46B000000B583B003468DF8F3
:102E3C0007309DF907301846FFF762FF00BF03B05B
:102E4C005DF804FB00B583B003468DF807309DF99F
:102E5C0007301846FFF76EFF00BF03B05DF804FBA8
:102E6C0082B001900B468DF803309DF80330019A27
:102E7C00134401221A6000BF02B0704784B0019065
:102E8C000B46ADF80230BDF80230019A1344002213
:102E9C001A60BDF80230019A13441B680393039B1C
:102EAC0000BF04B0704782B001900B46ADF8023001
:102EBC00BDF80230019A13441B68002B14BF012388
:102ECC000023DBB2184602B0704782B0019000912B
:102EDC00019B009AC3F8042300BF02B0704782B074
:102EEC0001900091019B009AC3F8082300BF02B027
:102EFC00704782B00190019B0622C3F8002500BFE9
:102F0C0002B0704782B00190019B0022C3F80025EB
:102F1C0000BF02B0704784B0039002910192039BF2
:102F2C00029AC3F80825039B019AC3F80C2500BF2D
:102F3C0004B0704782B001900091019B009AC3F8D5
:102F4C00242500BF02B0704784B00190019BD3F8D8
:102F5C00C4340393019B039AC3F8C424039B1846FF
:102F6C0004B0704782B001900B468DF803309DF889
:102F7C000320019BC3F8882500BF02B0704784B0C2
:102F8C00039002910192029A039BC3F84425039B80
:102F9C00019AC3F8482500BF04B0704784B0039071
:102FAC0002910192029A039BC3F83425039B019A68
:102FBC00C3F8382500BF04B0704782B0019000916F
:102FCC00019B009AC3F8002200BF02B0704782B088
:102FDC000190019BD3F84C35184602B0704782B073
:102FEC000190019BD3F80032184602B0704782B0B2
:102FFC000190019BD3F83C35184602B0704782B063
:10300C000190019B0122C3F8502500BF02B070470C
:10301C0082B00190019B0022C3F8502500BF02B082
:10302C00704782B00190019B0122C3F8402500BF7C
:10303C0002B0704782B00190019B0022C3F840257A
:10304C0000BF02B07047000000B583B00190019B37
:10305C001B68184600F041F80346002B04D10549C3
:10306C004FF4F670FEF731FC4FF0A043184603B056
:10307C005DF804FBF46B000000B585B001900846C8
:10308C0011461A4603468DF803300B468DF8023074
:10309C0013468DF8013001AB1846FFF7D5FF0390AE
:1030AC009DF803209DF802305B001A439DF8013017
:1030BC009B001A439DF818301B0242EA03019DF84D
:1030CC001C301B04019A1943039B02F5E07243F870
:1030DC00221000BF05B05DF804FB84B00190019B89
:1030EC005B09029300230393029B002B03D14FF047
:1030FC00FF33039300BF019B03F01F030193039A5B
:10310C00019B22FA03F303F00103002B14BF0123EC
:10311C000023DBB2184604B0704784B0019003233F
:10312C000393019B03F00103002B02D04FF40243E5
:10313C000393019B03F00203002B02D048F20123FE
:10314C000393019B03F00403002B02D048F20223EB
:10315C000393039B184604B07047000000B585B07C
:10316C000190009101238DF80F30009B1B7B032BEA
:10317C0056D801A252F823F0FD31000015320000A0
:10318C00D531000095310000009B9B6803F480232F
:10319C00002B07D00198FFF71AFF0246009B1B6912
:1031AC009A420DD1009B9B6803F48023002B39D1EC
:1031BC000198FFF70CFF0246009B5B699A4231D0E5
:1031CC0000238DF80F302DE00198FFF700FF024629
:1031DC00009B1B699A4207D10198FFF708FF024632
:1031EC00009B5B699A421FD000238DF80F301BE0C7
:1031FC000198FFF7ECFE0246009B1B699A4215D022
:10320C0000238DF80F3011E00198FFF7F0FE024615
:10321C00009B1B699A420BD000238DF80F3007E0FE
:10322C0000BF06E000BF04E000BF02E000BF00E00A
:10323C0000BF9DF80F3083F00103DBB2002B05D0EB
:10324C000198FFF75FFE0198FFF753FE9DF80F30D2
:10325C00184605B05DF804FB00B58BB005900491E1
:10326C0003920293049B002B03D14A49E720FEF7FB
:10327C002CFB049B1A68049B5B689A4203D145495A
:10328C00E820FEF722FB059B1B791A46342302FB30
:10329C0003F3414A13440893089B93F82D30002BF9
:1032AC0003D008230793079B70E0059B1A68059BC6
:1032BC001B791946394B53F8213019461046FFF744
:1032CC00C7FC0346002B03D011230793079B5DE03B
:1032DC00089B039A1A60089B029A5A60089B00226A
:1032EC009A60089B002283F83020089B002283F808
:1032FC002F20049B5A7B089B83F83220049B186870
:10330C000023019306230093032300220021FFF7DF
:10331C00B3FE049B586800230193062300930323F8
:10332C0000220021FFF7A8FE059B1B680993049B54
:10333C001968049B5B681A460998FFF7ECFD049B1F
:10334C009B6819460998FFF7F5FD089B1B68002B35
:10335C0015D0059B1B681846FFF73EFD03461A4621
:10336C00049B1B7B19461046FFF73EFD059B1B6813
:10337C001846FFF731FD03461846FFF755FD089B2D
:10338C00012283F82D2000230793079B18460BB0CE
:10339C005DF804FB2C6C000084060020906C00008F
:1033AC0000B585B00190019B1B791A46342302FBB2
:1033BC0003F30D4A13440393039B93F82D30012B15
:1033CC0004D00A4940F24F10FEF77FFA019B1B68AC
:1033DC001846FFF78EFD039B022283F82D2000BFB9
:1033EC0005B05DF804FB00BF840600202C6C0000C7
:1033FC0000B583B001900091009B03F00103002BFA
:10340C0003D00198FFF7FBFD02E00198FFF700FEE7
:10341C00009B03F00203002B03D00198FFF701FE81
:10342C0002E00198FFF706FE00BF03B05DF804FB55
:10343C0030B589B003900291019200930023079359
:10344C0008238DF81B30039B002283F82E20019B50
:10345C00DB681846FFF7B2FC034683F00103DBB2CE
:10346C00002B03D010230793079BFDE19D49029885
:10347C00FFF735FD039B93F82F30DBB2002B09D0FF
:10348C00039B9B6819460298FFF71FFD11230793B6
:10349C00079BE9E1009B03F00403002B06D1009B82
:1034AC0003F01003002B01D1012300E0002303F0F3
:1034BC000103DAB2039B83F82F20039B019A03F1DB
:1034CC000C0415460FCD0FC42B682360009B1B0901
:1034DC0003F00103002B14BF01230023DAB2039B7A
:1034EC0083F83020039B009A1A62019B5B78194683
:1034FC000298FFF737FD4FF482710298FFF7BEFC7C
:10350C004FF492710298FFF7B9FC4FF4B071029826
:10351C00FFF7B4FC4FF4A4710298FFF7AFFC0099CD
:10352C000298FFF765FF019B1B78032B00F2DE80EE
:10353C0001A252F823F000BF77360000BF3600001E
:10354C001F36000055350000009B03F01003002BC4
:10355C0004D065494FF4D970FEF7B7F9009B03F01E
:10356C000803002B04D0604940F2B310FEF7ADF90C
:10357C00009B03F00403002B04D05B494FF4DA707A
:10358C00FEF7A3F9019B1B691846FFF717FC0346CE
:10359C0083F00103DBB2002B03D010230793079BAE
:1035AC0062E14FF480710298FFF707FD019BD96827
:1035BC00019B5B681A460298FFF7E1FC4FF4A87177
:1035CC000298FFF75BFC20210298FFF749FC0821C9
:1035DC000298FFF745FC00BF4FF4A8710298FFF763
:1035EC0062FC034683F00103DBB2002BF4D14FF4F1
:1035FC00A8710298FFF742FC019B1969019B9B681B
:10360C001A460298FFF7BBFC039B4FF480229A608A
:10361C006FE0019BD968019B5B681A460298FFF723
:10362C00AEFC019B1B691846FFF7C8FB034683F0F1
:10363C000103DBB2002B03D010230793079B13E18C
:10364C00019B1969019B9B681A460298FFF7A6FC1F
:10365C004FF484510298FFF7B0FC039B02229A604E
:10366C0020210298FFF7FCFB43E0019BD968019BEA
:10367C005B681A460298FFF782FC009B03F020035C
:10368C00002B09D04FF480710298FFF796FC039B36
:10369C004FF480229A6007E04FF400710298FFF714
:1036AC008CFC039B02229A6020210298FFF7D8FB26
:1036BC001FE0019BD968019B5B681A460298FFF7D3
:1036CC006DFC4FF480510298FFF777FC039B0222AC
:1036DC009A6000238DF81B3020210298FFF7C0FB65
:1036EC0007E000BF02029C012C6C0000072307932B
:1036FC0000BF009B03F00803002B09D1019B1B7832
:10370C00032B05D09DF81B3019460298FFF7A8FB38
:10371C00039B1B68002B1FD0009B03F00403002BA2
:10372C0002D0039B00229A60009B03F04003002B05
:10373C0005D1039B9B6843F00202039B9A60039B99
:10374C009B6843F40072039B9A60039B9B68194629
:10375C000298FFF7BAFB86E000238DF81A304FF47D
:10376C00A4710298FFF79FFB0346002B02D00123A4
:10377C008DF81A304FF482710298FFF794FB0346D0
:10378C00002B07D04FF482710298FFF777FB0123CF
:10379C008DF81A304FF492710298FFF784FB0346B0
:1037AC00002B38D04FF492710298FFF767FB4FF45F
:1037BC00B0710298FFF777FB03468DF81930029829
:1037CC00FFF70DFC05909DF8193083F00103DBB277
:1037DC00002B04D1059B03F40073002B0AD120218C
:1037EC000298FFF73DFB14210298FFF739FB0023E9
:1037FC008DF81A309DF81930002B0CD0059B03F472
:10380C008073002B07D04FF4A4710298FFF736FB9E
:10381C0000238DF81A309DF81A3083F00103DBB2C7
:10382C00002B9CD10298FFF78FFB0490039B002286
:10383C0083F82F20049B002B04D00498FFF76DFC19
:10384C00079010E0009B03F04003002B0BD1039971
:10385C000298FFF783FC034683F00103DBB2002BD5
:10386C0001D003230793079B184609B030BD00BF56
:10387C0000B587B0039002910192039B1B79002B3A
:10388C0007D1029B5B68FF2B03D8029B9B68FF2B25
:10389C0010D9039B1B79012B07D1029B5B68FF2B73
:1038AC0003D8029B9B68FF2B04D91B4940F26A206A
:1038BC00FEF70BF800230593039B1B791A46342360
:1038CC0002FB03F3154A13440493049B1B68002B5F
:1038DC0008D1029B1B78022B04D10F4940F27220B5
:1038EC00FDF7F3FF049B1B68002B08D1029B1B7890
:1038FC00032B04D1084940F27320FDF7E6FF039B2C
:10390C001968019B029A0498FFF792FD0590059B9C
:10391C00184607B05DF804FB2C6C000084060020F0
:10392C0000B58BB00390019200930B468DF80B30D1
:10393C0001238DF814309DF80B308DF81530009B59
:10394C00069300230793019B08930023099305AB6F
:10395C00002219460398FFF78BFF034618460BB05D
:10396C005DF804FB30B58BB001900091009B1B6897
:10397C00002B04D1A24940F2C120FDF7A6FF4FF461
:10398C0092710198FFF78FFA0346002B3ED04FF44B
:10399C0092710198FFF772FA4FF482710198FFF758
:1039AC0082FA034683F00103DBB2002B2ED0009B7E
:1039BC009B6819460198FFF792FA009B02229A60C5
:1039CC00009B9B6819460198FFF77FFA4FF4B07182
:1039DC000198FFF768FA034683F00103DBB2002B72
:1039EC0007D10198FFF7FBFA034603F40073002B91
:1039FC0007D120210198FFF733FA14210198FFF722
:103A0C002FFA009B012283F82E20F6E04FF48271EE
:103A1C000198FFF748FA0346002B5DD04FF48271F2
:103A2C000198FFF72BFA009B1B6A03F04003002B55
:103A3C001AD1009B93F82E3083F00103DBB2002BDC
:103A4C0012D000990198FFF789FB0346002B14BF95
:103A5C0001230023DBB283F00103DBB203F001038B
:103A6C00DAB2009B83F82E20009B1B6A03F0040340
:103A7C00002B79D1009B04AC03F10C050FCD0FC4C6
:103A8C002B6823604FF4B0710198FFF7F7F94FF4EE
:103A9C00AE710198FFF7F2F9009B93F8303083F088
:103AAC000103DBB2002B04D1009B93F82E30002BCA
:103ABC005AD000210198FFF780FA009B00229A60EF
:103ACC0050490198FFF70BFA0198FFF785F9034667
:103ADC001846FFF7B7F947E04FF4A4710198FFF7C8
:103AEC00CDF9009B1B7B002B22D1009B04AC03F176
:103AFC000C050FCD0FC42B682360009B93F830305E
:103B0C0083F00103DBB2002B2ED000210198FFF7CC
:103B1C0054FA009B00229A603A490198FFF7DFF9AA
:103B2C000198FFF759F903461846FFF78BF91BE08C
:103B3C004FF400710198FFF740FA009B40F202220B
:103B4C009A6030490198FFF7CAF9009B9B681946A7
:103B5C000198FFF7BAF908210198FFF781F92021A4
:103B6C000198FFF77DF948E00198FFF7EDF909900E
:103B7C00099B03F00203002B03D001238DF80C30BA
:103B8C001DE0099B03F00403002B03D002238DF8E6
:103B9C000C3014E0099B03F00103002B03D003232A
:103BAC008DF80C300BE0009B93F82E30002B03D0DB
:103BBC0004238DF80C3002E000238DF80C30009BB0
:103BCC0093F8303083F00103DBB2002B03D0009B61
:103BDC00002283F82F20009B1B6A03F00403002BA8
:103BEC0004D0009B93F82E30002B06D0009B1B6852
:103BFC00009A516803AA104698470BB030BD00BF1D
:103C0C002C6C000002029C0108B503490348FFF725
:103C1C00A9FE00BF08BD00BF840600200030004094
:103C2C0008B503494FF04020FFF79CFE00BF08BDCC
:103C3C00B806002082B003468DF807309DF9073096
:103C4C00002B0CDB9DF8073003F01F0205499DF992
:103C5C0007305B09012000FA02F241F8232000BF73
:103C6C0002B0704700E100E082B003468DF80730E7
:103C7C009DF90730002B13DB9DF8073003F01F0272
:103C8C0009499DF907305B09012000FA02F2203343
:103C9C0041F82320BFF34F8F00BFBFF36F8F00BFDE
:103CAC0000BF02B0704700BF00E100E082B00346E5
:103CBC0000918DF807309DF90730002B0ADB009B33
:103CCC00DAB20C499DF907305201D2B20B4483F899
:103CDC0000230BE0009BDAB207499DF8073003F094
:103CEC000F03043B5201D2B20B441A7600BF02B050
:103CFC00704700BF00E100E000ED00E082B00190F1
:103D0C00019B1B0B5BB2184602B0704700B583B029
:103D1C0003460A468DF8073013468DF806309DF899
:103D2C000630072B03D908496B20FDF7CEFD9DF813
:103D3C0006209DF9073011461846FFF7B7FF00BF64
:103D4C0003B05DF804FB00BF986C000000B583B0B5
:103D5C0003468DF807309DF907301846FFF76AFFC8
:103D6C0000BF03B05DF804FB00B583B003468DF8CB
:103D7C0007309DF907301846FFF776FF00BF03B0F8
:103D8C005DF804FB84B001900B46ADF80230BDF831
:103D9C000230019A134400221A60BDF80230019AD5
:103DAC0013441B680393039B00BF04B0704782B09D
:103DBC0001900B46ADF80230BDF80230019A134465
:103DCC001B68002B14BF01230023DBB2184602B082
:103DDC00704782B001900091019B009AC3F80423B4
:103DEC0000BF02B0704782B001900091019BD3F8E4
:103DFC000423009B1340002B14BF01230023DBB2D0
:103E0C00184602B0704782B001900091019B009A55
:103E1C00C3F8082300BF02B0704784B00190019B27
:103E2C00D3F880340393019B039AC3F88024039B3B
:103E3C00184604B0704782B00190019B0422C3F86D
:103E4C00002500BF02B0704782B00190019B002298
:103E5C00C3F8002500BF02B0704784B003900291F4
:103E6C000192039B019AC3F81425039B029AC3F891
:103E7C000C2500BF04B0704700B583B001904FF023
:103E8C00FF324FF0FF310198FFF7E7FF00BF03B09F
:103E9C005DF804FB82B00190019BD3F80C351846F9
:103EAC0002B0704782B00190019BD3F814351846CC
:103EBC0002B0704782B00190019BD3F808351846C8
:103ECC0002B0704782B00190019BD3F810351846B0
:103EDC0002B0704784B0039002910192039B029A46
:103EEC00C3F80825039B019AC3F8102500BF04B042
:103EFC00704700B583B001904FF0FF324FF0FF31A7
:103F0C000198FFF7E7FF00BF03B05DF804FB82B038
:103F1C000190019BD3F81835DBB2184602B07047FC
:103F2C0082B001900B468DF803309DF80320019B65
:103F3C00C3F81C2500BF02B0704782B001900B463D
:103F4C008DF803309DF80330019A134401221A6056
:103F5C0000BF02B0704782B001900B468DF8033061
:103F6C0013468DF802309DF803209DF80230134360
:103F7C00DBB21A46019BC3F86C2500BF02B0704738
:103F8C0082B001900091019B009AC3F8242500BFD8
:103F9C0002B0704700B583B00190019B1B681846B6
:103FAC0000F096F80346002B04D105494FF4F67047
:103FBC00FDF78BFC4FF0A043184603B05DF804FBF3
:103FCC00C86C000000B585B00190084611461A4631
:103FDC0003468DF803300B468DF8023013468DF8EE
:103FEC00013001AB1846FFF7D5FF03909DF8032075
:103FFC009DF802305B001A439DF801309B001A4378
:10400C009DF818301B0242EA03019DF81C301B047A
:10401C00019A1943039B02F5E07243F8221000BF8A
:10402C0005B05DF804FB00B585B003900023019347
:10403C00002300930023012201210398FFF7C2FF04
:10404C0000BF05B05DF804FB00B585B003900B46CE
:10405C008DF80B309DF80B3000220192002200925B
:10406C00002200210398FFF7ADFF00BF05B05DF8FB
:10407C0004FB00B585B0039000230193002300934B
:10408C000023012200210398FFF79CFF00BF05B01D
:10409C005DF804FB00B585B0019001AB1846FFF745
:1040AC0079FF0390019B012202FA03F3194603984E
:1040BC0000F004F800BF05B05DF804FB82B001907D
:1040CC000091019B009AC3F8082500BF02B070470D
:1040DC0084B00190019B5B09029300230393029B24
:1040EC00002B03D14FF0FF33039300BF019B03F070
:1040FC001F030193039A019B22FA03F303F00103BC
:10410C00002B14BF01230023DBB2184604B0704708
:10411C0000B583B001900091009B1B68B3F1FF3F89
:10412C0009D0009B1B681846FFF7B4FF009B1B6867
:10413C001846FFF778FF009B5B68B3F1FF3F05D093
:10414C00009B5B6800211846FFF77EFF019B1A68F5
:10415C00009B9B6919461046FFF712FF019B1868DC
:10416C00009B597D009B1B7D1A46FFF7F4FE019BBB
:10417C001868009B1968009B5B681A46FFF76DFE78
:10418C00009B1B7D012B22D1009B9B68B3F1FF3F51
:10419C0005D0009B9B6800211846FFF755FF009B3C
:1041AC00DB68B3F1FF3F09D0009BDB681846FFF7D3
:1041BC0071FF009BDB681846FFF735FF019B186801
:1041CC00009BD968009B9B681A46FFF783FE00BFD3
:1041DC0003B05DF804FB000000B583B001900B4602
:1041EC008DF80330019B1B684FF48E711846FFF756
:1041FC00C9FD019B1B684FF4A2711846FFF7C2FD65
:10420C00019B1B680E491846FFF7E3FD019B1B68D9
:10421C001846FFF773FD03461A469DF803301946FE
:10422C001046FFF773FD019B1B681846FFF766FDF0
:10423C0003461846FFF78AFD00BF03B05DF804FB88
:10424C008000020000B583B00190019B1B680849F7
:10425C001846FFF7D8FD019B1B681846FFF74EFD6B
:10426C0003461846FFF780FD00BF03B05DF804FB62
:10427C008402020000B587B00190019B1B681846B0
:10428C00FFF708FE0590019B1B681846FFF70AFE16
:10429C000490019B1B681846FFF70CFE0390019BD2
:1042AC001B681846FFF70EFE0290019B1B68184610
:1042BC00FFF7E2FD019B1B681846FFF71AFE059BF2
:1042CC00B3F1FF3F02D00598FFF7D3FE049BB3F187
:1042DC00FF3F02D00498FFF7CCFE029BB3F1FF3FE7
:1042EC0002D00298FFF7C5FE039BB3F1FF3F02D04B
:1042FC000398FFF7BEFE00BF07B05DF804FB00009B
:10430C0000B587B0039002910192029B002B03D160
:10431C002D49AA20FDF7D9FA039B1B791A462C23A9
:10432C0002FB03F3294A1344049300230593049BD3
:10433C0093F82A30002B03D008230593059B3EE00D
:10434C00039B1A68039B1B791946214B53F82130A8
:10435C0019461046FEF77CFC0346002B03D01123B4
:10436C000593059B2BE002990398FFF7D1FE049B64
:10437C00019A5A60029B1A69049B1A60049B5B6841
:10438C00002B05D0029B1B7F19460398FFF724FFD7
:10439C00039B1B681846FFF74EFD049B00229A6195
:1043AC00049B0022DA61049B002283F82920049BE1
:1043BC0000225A61049B012283F82A20059B18468F
:1043CC0007B05DF804FB00BF006D0000EC06002098
:1043DC00646D000000B585B00190019B1B791A46F5
:1043EC002C2302FB03F3114A13440393019B1B6818
:1043FC001846FFF729FD039B5B68002B02D0019840
:10440C00FFF720FF0198FFF735FF019B1B6818464B
:10441C00FEF758FC039B002283F82A20039B002202
:10442C005A6000BF05B05DF804FB00BFEC0600202D
:10443C0000B585B0019000914FF48E710198FFF793
:10444C00A1FC009B9A68009B1B6A13441B788DF897
:10445C000F30009B1B6A5A1C009B1A629DF80F3090
:10446C0019460198FFF75CFD00BF05B05DF804FB31
:10447C0000B585B001900091009B5B69039316E039
:10448C00009B93F82830DBB2002B01D0002314E002
:10449C004FF48E710198FFF78AFC034683F00103F9
:1044AC00DBB2002BECD100990198FFF7C1FF009B08
:1044BC001B6A039A9A42EBD80123184605B05DF8A3
:1044CC0004FB000000B587B0039002910192039B9E
:1044DC001B791A462C2302FB03F33C4A1344049326
:1044EC00049B93F82A30012B04D039494FF48C707B
:1044FC00FDF7EBF9029B002B04D1354940F2191062
:10450C00FDF7E3F9019B002B04D131494FF48D7079
:10451C00FDF7DBF9039800F05DF80346002B03D0A0
:10452C0011230593059B4CE0049B019A5A61049B53
:10453C00029A9A60049B00221A62049B002283F860
:10454C00282000230593039B1B684FF48E7118469B
:10455C00FFF718FC039B1B6808211846FFF7EDFCBE
:10456C00039B1B6804991846FFF762FF049B5B686A
:10457C00002B25D1039B1B6804991846FFF778FF85
:10458C00034683F00103DBB2002B02D00F2305930B
:10459C0013E000BF039B1B684FF48E711846FFF7A6
:1045AC0006FC034683F00103DBB2002BF2D1039B24
:1045BC001B680C211846FFF7C0FC049B00225A61B3
:1045CC00059B184607B05DF804FB00BFEC06002005
:1045DC00006D000082B00190019B1B791946074ABF
:1045EC002C2301FB03F3134414331B68002B14BF5F
:1045FC0001230023DBB2184602B07047EC06002002
:10460C0010B582B001900091009B9B69002B08D1E2
:10461C004FF484710198FFF7B5FB0198FFF777FC15
:10462C0013E04FF484710198FFF7ACFB009BDA6840
:10463C00009B5B6AD4180198FFF769FC0346237052
:10464C00009B5B6A5A1C009B5A6202B010BD00B5FD
:10465C0089B003900291019201238DF81030029BD6
:10466C000693019B0593039B5B68039A116804AA4C
:10467C001046984700BF09B05DF804FB00B587B041
:10468C000190009100238DF80830009B0493019B4E
:10469C009B680393019B00225A61019B5B68019A02
:1046AC00116802AA1046984700BF07B05DF804FBDA
:1046BC0000B58BB0019000914FF400710198FFF799
:1046CC0092FB0346002B39D04FF492710198FFF7FF
:1046DC006EFB0346002B31D04FF492710198FFF71B
:1046EC0051FB4FF401710198FFF78DFB009B93F880
:1046FC00293083F00103DBB2002B03D00421019895
:10470C00FFF71BFC02238DF80C300198FFF785FB9B
:10471C0003460693009B9B690593009BDB680493FF
:10472C00009B00229A61009B0022DA61009B5B686F
:10473C00009A116803AA1046984752E00421019888
:10474C00FFF751FB0346002B4BD04FF484710198BB
:10475C00FFF72DFB0346002B43D000990198FFF780
:10476C004FFF009B9A69009B5B6A9A4239D1009B70
:10477C00DB69002B19D0009BDB680993009B5B6AFB
:10478C000893009BDA69009B9A61009B1A69009B55
:10479C00DA60009B0022DA61009B00225A62099ABF
:1047AC0008990098FFF753FF1BE0009B93F8293002
:1047BC0083F00103DBB2002B03D004210198FFF737
:1047CC00BCFB4FF401710198FFF71DFB009B00220D
:1047DC009A61009B596A009BDB681A460098FFF7A8
:1047EC0036FF4FF48E710198FFF7E1FA0346002B68
:1047FC0024D0009B5B690793009B1B6A079A9A4223
:10480C000DD9009B93F82830DBB283F00103DBB2A7
:10481C00002B04D000990198FFF70AFE0EE04FF42C
:10482C008E710198FFF7AEFA009B5B69002B05D0E7
:10483C00009B5B6919460098FFF720FF4FF4A271AB
:10484C000198FFF7B4FA0346002B1CD04FF4A27169
:10485C000198FFF797FA009B93F82930002B03D0AF
:10486C0000210198FFF769FB009B9B69002B0AD084
:10487C00009B00229A61009B596A009BDB681A46D8
:10488C000098FFF7E4FE00BF0BB05DF804FB0000DE
:10489C0008B503490348FFF70BFF00BF08BD00BF75
:1048AC00EC0600200020004082B003468DF8073053
:1048BC009DF90730002B0CDB9DF8073003F01F022D
:1048CC0005499DF907305B09012000FA02F241F815
:1048DC00232000BF02B0704700E100E082B0034625
:1048EC008DF807309DF90730002B13DB9DF807304E
:1048FC0003F01F0209499DF907305B09012000FAFA
:10490C0002F2203341F82320BFF34F8F00BFBFF3D7
:10491C006F8F00BF00BF02B0704700BF00E100E026
:10492C0082B0034600918DF807309DF90730002BBB
:10493C000ADB009BDAB20C499DF907305201D2B266
:10494C000B4483F800230BE0009BDAB207499DF877
:10495C00073003F00F03043B5201D2B20B441A761A
:10496C0000BF02B0704700BF00E100E000ED00E0C6
:10497C0082B00190019B03F06043B3F1005F0CBF68
:10498C0001230023DBB2184602B0704782B00190BD
:10499C00019B1B0B5BB2184602B0704700B583B08D
:1049AC0003460A468DF8073013468DF806309DF8FD
:1049BC000630072B03D908496B20FCF786FF9DF8BE
:1049CC0006209DF9073011461846FFF7A9FF00BFD6
:1049DC0003B05DF804FB00BF686D000000B583B048
:1049EC0003468DF807309DF907301846FFF75CFF3A
:1049FC0000BF03B05DF804FB00B583B003468DF82F
:104A0C0007309DF907301846FFF768FF00BF03B069
:104A1C005DF804FB84B001900B46ADF80230BDF894
:104A2C000230019A134400221A60BDF80230019A38
:104A3C0013441B680393039B00BF04B0704782B000
:104A4C0001900B46ADF80230BDF80230019A1344C8
:104A5C001B68002B14BF01230023DBB2184602B0E5
:104A6C00704782B001900091019BD3F80022009B0B
:104A7C00DB431A40019BC3F8002200BF02B0704711
:104A8C0082B001900091019B009AC3F8042300BFEF
:104A9C0002B0704782B001900091019B009AC3F85C
:104AAC00082300BF02B0704784B00190019BD3F87B
:104ABC0080340393019B039AC3F88024039B18460C
:104ACC0004B0704782B00190019B0822C3F8002506
:104ADC0000BF02B0704782B00190019B0022C3F866
:104AEC00002500BF02B0704784B003900291019280
:104AFC00039B029AC3F80C25039B019AC3F8142557
:104B0C0000BF04B0704700B583B001904FF0FF3286
:104B1C004FF0FF310198FFF7E7FF00BF03B05DF8DE
:104B2C0004FB82B00190019BD3F80C35184602B0FF
:104B3C00704782B00190019BD3F81435184602B02F
:104B4C00704782B00190019BD3F80835184602B02B
:104B5C00704782B00190019BD3F81035184602B013
:104B6C00704784B0039002910192039B029AC3F8A0
:104B7C000825039B019AC3F8102500BF04B07047A9
:104B8C0000B583B001904FF0FF324FF0FF31019828
:104B9C00FFF7E7FF00BF03B05DF804FB82B00190A4
:104BAC000B468DF803309DF80330019A1344012213
:104BBC001A6000BF02B0704782B001900B468DF8AE
:104BCC00033013468DF802309DF803209DF8023017
:104BDC001343DBB21A46019BC3F86C2500BF02B02D
:104BEC00704782B001900091019B009AC3F8242574
:104BFC0000BF02B0704784B0039002910192029AF8
:104C0C00039BC3F84425039B019AC3F8482500BFB6
:104C1C0004B0704782B00190019BD3F84C35184614
:104C2C0002B0704782B00190019BD3F83C35184616
:104C3C0002B0704700B583B00190019B1B68184609
:104C4C0000F096F80346002B04D105494FF4F6709A
:104C5C00FCF73BFE4FF0A043184603B05DF804FB95
:104C6C00986D000000B585B00190084611461A46B3
:104C7C0003468DF803300B468DF8023013468DF841
:104C8C00013001AB1846FFF7D5FF03909DF80320C8
:104C9C009DF802305B001A439DF801309B001A43CB
:104CAC009DF818301B0242EA03019DF81C301B04CE
:104CBC00019A1943039B02F5E07243F8221000BFDE
:104CCC0005B05DF804FB00B585B00390002301939B
:104CDC00002300930023012201210398FFF7C2FF58
:104CEC0000BF05B05DF804FB00B585B003900B4622
:104CFC008DF80B309DF80B300022019200220092AF
:104D0C00002200210398FFF7ADFF00BF05B05DF84E
:104D1C0004FB00B585B0039000230193002300939E
:104D2C000023012200210398FFF79CFF00BF05B070
:104D3C005DF804FB00B585B0019001AB1846FFF798
:104D4C0079FF0390019B012202FA03F319460398A1
:104D5C0000F004F800BF05B05DF804FB82B00190D0
:104D6C000091019B009AC3F8082500BF02B0704760
:104D7C0084B00190019B5B09029300230393029B77
:104D8C00002B03D14FF0FF33039300BF019B03F0C3
:104D9C001F030193039A019B22FA03F303F001030F
:104DAC00002B14BF01230023DBB2184604B070475C
:104DBC0000B583B001900091009B1B68B3F1FF3FDD
:104DCC0009D0009B1B681846FFF7B4FF009B1B68BB
:104DDC001846FFF778FF009B5B68B3F1FF3F05D0E7
:104DEC00009B5B6800211846FFF77EFF019B1A6849
:104DFC00009B9B6919461046FFF7F3FE019B186850
:104E0C00009B597D009B1B7D1A46FFF7D5FE019B2D
:104E1C001868009B1968009B5B681A46FFF764FED4
:104E2C00009B1B7D012B22D1009B9B68B3F1FF3FA4
:104E3C0005D0009B9B6800211846FFF755FF009B8F
:104E4C00DB68B3F1FF3F09D0009BDB681846FFF726
:104E5C0071FF009BDB681846FFF735FF019B186854
:104E6C00009BD968009B9B681A46FFF77AFE00BF2F
:104E7C0003B05DF804FB000000B583B001900B4655
:104E8C008DF80330019B1B684FF488711846FFF7AF
:104E9C00C1FD019B1B684FF490711846FFF7BAFDDA
:104EAC00019B1B684FF492711846FFF7B3FD019BF1
:104EBC001B684FF4A2711846FFF7ACFD019B1B68F1
:104ECC004FF4AC711846FFF7A5FD019B1B680F4909
:104EDC001846FFF7D5FD019B1B681846FFF756FDDA
:104EEC0003461A469DF8033019461046FFF756FD47
:104EFC00019B1B681846FFF749FD03461846FFF750
:104F0C006DFD00BF03B05DF804FB00BF1003420051
:104F1C0000B583B00190019B1B6808491846FFF748
:104F2C00B9FD019B1B681846FFF730FD0346184678
:104F3C00FFF762FD00BF03B05DF804FB10034200F5
:104F4C0000B587B00190019B1B681846FFF7E9FD7F
:104F5C000590019B1B681846FFF7EBFD0490019B25
:104F6C001B681846FFF7EDFD0390019B1B68184664
:104F7C00FFF7EFFD0290019B1B681846FFF7C3FD7E
:104F8C00019B1B681846FFF7FBFD059BB3F1FF3F28
:104F9C0002D00598FFF7BDFE049BB3F1FF3F02D092
:104FAC000498FFF7B6FE029BB3F1FF3F02D00298C4
:104FBC00FFF7AFFE039BB3F1FF3F02D00398FFF75F
:104FCC00A8FE00BF07B05DF804FB000000B587B079
:104FDC00039002910192029B002B03D12B49CF200D
:104FEC00FCF773FC039B1B791A461346DB00134436
:104FFC009B00274A1344049300230593049B93F8C6
:10500C002030002B03D008230593059B3AE0039B2B
:10501C001A68039B1B7919461E4B53F8213019460D
:10502C001046FDF715FE0346002B03D01123059304
:10503C00059B27E002990398FFF7BAFE049B019A9F
:10504C005A60029B1A69049B1A60049B5B68002BD4
:10505C0005D0029B1B7F19460398FFF70DFF039B9E
:10506C001B681846FFF72EFD049B00229A61049BD7
:10507C000022DA61049B00225A61049B012283F80E
:10508C002020059B184607B05DF804FBD06D00008E
:10509C0018070020386E000000B585B00190019B08
:1050AC001B791A461346DB0013449B002A4A13440F
:1050BC000393019B1B680293039B5B68002B02D03C
:1050CC000198FFF725FF20210298FFF7CAFC039BEC
:1050DC009B69002B08D04FF4A2710298FFF79AFC41
:1050EC0004210298FFF75AFD4FF4AC710298FFF7B8
:1050FC0091FC0C210298FFF751FD00BF4FF4AC71ED
:10510C000298FFF79CFC034683F00103DBB2002BF3
:10511C00F4D1039B9B69002B0AD04FF4A271029827
:10512C00FFF78DFC034683F00103DBB2002BE5D1C6
:10513C000298FFF7D0FC0198FFF702FF0298FDF7E9
:10514C00C1FD039B002283F82020039B00225A60A0
:10515C0000BF05B05DF804FB1807002000B589B04E
:10516C00039002910192039B1B791A461346DB00B4
:10517C0013449B00564A13440593059B93F8203027
:10518C00012B04D0534940F25310FCF79EFB029BB9
:10519C00002B04D14F494FF4AA70FCF796FB019BEE
:1051AC00002B04D14B4940F25510FCF78EFB039BAE
:1051BC001B79002B02D1019BFF2B04D945494FF4DD
:1051CC00AB70FCF782FB0298FFF7D2FB034683F02F
:1051DC000103DBB2002B03D010230793079B73E072
:1051EC00039800F079F80346002B03D011230793A2
:1051FC00079B69E0059B019A5A61059B029A9A608C
:10520C0000230793039B1B684FF490711846FFF71C
:10521C0001FC039B1B684FF4AC711846FFF7FAFBBB
:10522C00039B1868059B9968059B5B691A46FFF7F9
:10523C00E2FC039B1B6808211846FFF7AFFC059B9B
:10524C005B68002B3FD1039B1B684FF49071184691
:10525C00FFF7F5FB03468DF81B30039B1B684FF4DF
:10526C00AC711846FFF7EBFB03468DF81A309DF82E
:10527C001B3083F00103DBB2002B06D09DF81A30F3
:10528C0083F00103DBB2002BDDD19DF81A30002B2B
:10529C0002D00F23079313E0039B1B680C211846C5
:1052AC00FFF77CFC00BF039B1B684FF4AC711846E6
:1052BC00FFF7C5FB034683F00103DBB2002BF2D1F1
:1052CC00059B00225A61079B184609B05DF804FB48
:1052DC0018070020D06D000082B00190019B1B7953
:1052EC001946084A0B46DB000B449B00134414334D
:1052FC001B68002B14BF01230023DBB2184602B03D
:10530C00704700BF1807002000B589B003900291C8
:10531C00019201238DF81030029B0693019B05939B
:10532C00039B5B68039A116804AA1046984700BF58
:10533C0009B05DF804FB00B587B001900091002323
:10534C008DF80830009B0493019B9B680393019B91
:10535C0000225A61019B5B68019A116802AA1046EF
:10536C00984700BF07B05DF804FB00B589B0019009
:10537C0000914FF492710198FFF761FB0346002BEB
:10538C0022D04FF492710198FFF744FB02238DF861
:10539C0008300198FFF788FB034605930198FFF747
:1053AC0041FC03460493009BDB680393009B0022A3
:1053BC009A61009B0022DA61009B5B68009A11687D
:1053CC0002AA104698473BE04FF488710198FFF70A
:1053DC0036FB0346002B33D04FF488710198FFF74E
:1053EC0019FB0198FFF71EFC0790009B9B69079A1D
:1053FC009A4225D1009BDB69002B17D0009BDB6800
:10540C00069320210198FFF72CFB009BDA69009B87
:10541C009A61009B1A69009BDA60009B0022DA619A
:10542C00069A07990098FFF76FFF09E0009B00228E
:10543C009A61009BDB681A4607990098FFF764FF96
:10544C004FF4A2710198FFF7FAFA0346002B18D01B
:10545C004FF4A2710198FFF7DDFA009B9B69002BBA
:10546C000FD0009B00229A61009B0022DA61019808
:10547C00FFF7D8FB0146009BDB681A460098FFF744
:10548C0043FF4FF490710198FFF7D9FA0346002BB4
:10549C0014D04FF490710198FFF7BCFA0C210198CD
:1054AC00FFF77CFB009B5B69002B07D00198FFF793
:1054BC00B1FB034619460098FFF73DFF4FF4AC7162
:1054CC000198FFF7BCFA0346002B10D04FF4AC71D7
:1054DC000198FFF79FFA009B5B69002B07D001989E
:1054EC00FFF798FB034619460098FFF724FF00BF0F
:1054FC0009B05DF804FB000008B503490348FFF749
:10550C0034FF00BF08BD00BF18070020002000407A
:10551C0000B583B00190019B04331846FDF740FFA2
:10552C0000BF03B05DF804FB00B587B00390019297
:10553C001A460B468DF80B3013468DF80A300023B3
:10554C000593039B181D9DF80A309DF80B10019ACA
:10555C00FEF7E6F90590059B184607B05DF804FBCD
:10556C0000B587B06B4600221A605A609A60DA6008
:10557C0016230093172301934FF0CC730293062349
:10558C008DF80C306946002300220A48FDF75AFAC0
:10559C000590059B0493049B002B04D0064A1F2105
:1055AC000498FCF79FF80348FFF7B2FF00BF07B061
:1055BC005DF804FB3C6E00004C6E000000B585B03D
:1055CC0068238DF80F3000238DF803300021002064
:1055DC00FBF70EF90290029B002B04D01C4A2B21E6
:1055EC000298FCF77FF8FBF799F81A4A1A4BD31A72
:1055FC00DB081B0443F0030318491846FBF7C8FBF0
:10560C0000BFFBF721FC0346002BFAD1FFF7A8FFE4
:10561C000DF103029DF80F1001231148FFF784FFD1
:10562C000190019B002B0CD10A4A0B4BD31ADB08BF
:10563C001B0443F003039DF80F200A491846FBF79F
:10564C00B5FB00BFFBF700FC0346002BFAD1FEE7CD
:10565C004C6E00000C610000EC600000C06E00009D
:10566C003C6E0000D46E0000BFF34F8F00BF064BA2
:10567C00DB6803F4E0620449044B1343CB60BFF3D3
:10568C004F8F00BF00BFFDE700ED00E00400FA05FE
:10569C0082B01D4B1B68B3F1FF3F0AD11B4B1B683B
:1056AC00DBB201931A4B1B681B0903F00F03009329
:1056BC0005E0154B1B680193164B1B680093019B6F
:1056CC00062B1DD1009B033B042B17D801A252F8CB
:1056DC0023F000BFF5560000F9560000FD560000FF
:1056EC00015700000557000001230AE0012308E0E0
:1056FC00012306E0012304E0012302E0012300E082
:10570C000023184602B0704730010010E00F00F083
:10571C00E80F00F03401001082B0174B1B68DBB2AD
:10572C000193164B1B681B0903F00F030093019B9D
:10573C00062B1DD1009B033B042B17D801A252F85A
:10574C0023F000BF65570000695700006D5700003B
:10575C00715700007557000001230AE0002308E090
:10576C00002306E0002304E0002302E0002300E015
:10577C000023184602B07047E00F00F0E80F00F06D
:10578C0082B01D4B1B68B3F1FF3F0AD11B4B1B684A
:10579C00DBB201931A4B1B681B0903F00F03009338
:1057AC0005E0154B1B680193164B1B680093019B7E
:1057BC00062B1DD1009B033B042B17D801A252F8DA
:1057CC0023F000BFE5570000E9570000ED5700003B
:1057DC00F1570000F557000001230AE0012308E00F
:1057EC00012306E0012304E0012302E0012300E091
:1057FC000023184602B0704730010010E00F00F093
:10580C00E80F00F03401001082B0174B1B68DBB2BC
:10581C000193164B1B681B0903F00F030093019BAC
:10582C00062B1DD1009B033B042B17D801A252F869
:10583C0023F000BF55580000595800005D58000077
:10584C00615800006558000001230AE0002308E0BD
:10585C00002306E0002304E0002302E0002300E024
:10586C000023184602B07047E00F00F0E80F00F07C
:10587C0082B01D4B1B68B3F1FF3F0AD11B4B1B6859
:10588C00DBB201931A4B1B681B0903F00F03009347
:10589C0005E0154B1B680193164B1B680093019B8D
:1058AC00062B1DD1009B033B042B17D801A252F8E9
:1058BC0023F000BFD5580000D9580000DD58000077
:1058CC00E1580000E558000001230AE0012308E03C
:1058DC00012306E0012304E0012302E0012300E0A0
:1058EC000023184602B0704730010010E00F00F0A2
:1058FC00E80F00F03401001082B0174B1B68DBB2CC
:10590C000193164B1B681B0903F00F030093019BBB
:10591C00062B1DD1009B033B042B17D801A252F878
:10592C0023F000BF45590000495900004D590000B3
:10593C00515900005559000001230AE0002308E0EA
:10594C00002306E0002304E0002302E0002300E033
:10595C000023184602B07047E00F00F0E80F00F08B
:10596C0082B0174B1B68DBB20193164B1B681B09EB
:10597C0003F00F030093019B062B1DD1009B033BEF
:10598C00042B17D801A252F823F000BFAD59000028
:10599C00B1590000B5590000B9590000BD590000BB
:1059AC0001230AE0002308E0002306E0002304E0C2
:1059BC00002302E0002300E00023184602B07047E9
:1059CC00E00F00F0E80F00F082B01D4B1B68B3F144
:1059DC00FF3F0AD11B4B1B68DBB201931A4B1B68B0
:1059EC001B0903F00F03009305E0154B1B68019393
:1059FC00164B1B680093019B062B1DD1009B033B90
:105A0C00042B17D801A252F823F000BF2D5A000026
:105A1C00315A0000355A0000395A00003D5A000036
:105A2C0000230AE0002308E0012306E0012304E040
:105A3C00012302E0012300E00023184602B0704766
:105A4C0030010010E00F00F0E80F00F034010010FE
:105A5C0082B01D4B1B68B3F1FF3F0AD11B4B1B6877
:105A6C00DBB201931A4B1B681B0903F00F03009365
:105A7C0005E0154B1B680193164B1B680093019BAB
:105A8C00062B1DD1009B033B042B17D801A252F807
:105A9C0023F000BFB55A0000B95A0000BD5A0000EF
:105AAC00C15A0000C55A000001230AE0012308E096
:105ABC00012306E0012304E0012302E0012300E0BE
:105ACC000023184602B0704730010010E00F00F0C0
