:1000000000000120750300005D0300008511000061
:1000100061030000630300006503000000000000AE
:100020000000000000000000000000006703000066
:1000300069030000000000006B0300006D03000076
:10004000352D00006F030000752D0000452D0000C8
:10005000512D00006F0300004529000015300000FD
:10006000013200001532000029320000DD2F0000AF
:100070006F030000012F00006F0300006F030000FA
:1000800065320000BD090000412E0000692D00000E
:100090008D31000093310000993100009F31000044
:1000A000A5310000AB3100003D32000051320000AC
:1000B000112E0000B92B000000000000000000001D
:1000C0006F030000212E0000312E00005D2D000086
:1000D000ED2F0000912A00006F03000000000000D7
:1000E0000000000000000000000000000000000010
:1000F0000000000000000000000000000000000000
:1001000000000000000000000000000000000000EF
:1001100000000000000000000000000000000000DF
:1001200000000000000000000000000000000000CF
:1001300000000000000000000000000000000000BF
:1001400000000000000000000000000000000000AF
:10015000000000000000000000000000000000009F
:10016000000000000000000000000000000000008F
:10017000000000000000000000000000000000007F
:10018000000000000000000000000000000000006F
:10019000000000000000000000000000000000005F
:1001A000000000000000000000000000000000004F
:1001B000000000000000000000000000000000003F
:1001C000000000000000000000000000000000002F
:1001D000000000000000000000000000000000001F
:1001E000000000000000000000000000000000000F
:1001F00000000000000000000000000000000000FF
:10020000354936480A1A02D0072291438D463449AF
:1002100034480A1A06D00722914381F30988022242
:1002200082F3148830483149314A00F044F83148AB
:100230003149324A00F03FF831483249324A00F041
:100240003AF832483249334A00F035F832483349F7
:10025000334A00F030F833483349344A00F02BF881
:1002600033483449344A00F026F8344834490022EF
:1002700000F02CF833483449002200F027F83348C6
:100280003349091A082902DB002202604160314A21
:1002900090471F481F49884205D00268043003B4C4
:1002A000904703BCF7E700208646EC46002000217B
:1002B000294A9047FEE7884207D0521A05D00378B2
:1002C00001300B700131013AF9D17047884202D0F8
:1002D00002700130FAE770470000012000E00020C2
:1002E00000000120000001204445000030000020F3
:1002F00050000020D0030000D0030000123900009D
:1003000044450000300000203000002094390000F7
:1003100094390000943900009439000094390000A9
:1003200094390000943900009439000042450000DF
:1003300064450000500000205000002050000020C4
:1003400090130020901300209013002090130020A1
:10035000903300209D0300003D330000FEE7FEE7E0
:10036000FEE7FEE7FEE7FEE7FEE7FEE7FEE7FEE765
:1003700000F002B8FFF7FCBF0F484FF007018843B9
:1003800085460E4880470E48016841F470010160BF
:10039000BFF34F8FBFF36F8FFFF732BF09480A4992
:1003A0000A4A884207D0521A05D0037801300B70F0
:1003B0000131013AF9D17047000001208134000079
:1003C00088ED00E0643900000000002030000020CB
:1003D0001FB50021039001AA44F20100CDE90111EB
:1003E00000F004F805B05DF804FB000072B6094B9C
:1003F000D3F8F020D20700D500BEBFF34F8FD968E5
:10040000054A01F4E0610A43DA60BFF34F8F00BF91
:10041000FDE700BF00ED00E00400FA0510B5D0E9EB
:100420000243D1E90202A04272EB03032CBF012078
:10043000002010BD08B50A4800F0A9FA094AD2E91F
:100440000031C018084BD3E9002341F1000190426C
:1004500071EB030303D210F1807041F1000108BD7C
:100460003000002058000020D000002037B505469D
:100470000C460A4801A900F0CEFE60B10570446048
:1004800001A9064800F0F1FE18B1054800F084FA11
:10049000002003B030BD0420FBE700BFBC000020FB
:1004A0003000002038B5184B1B78044613B90025DE
:1004B000284638BD0028FAD0037F03F0FF05002B43
:1004C000F5D0FFF7B7FFD4E90223904271EB0303A5
:1004D00014D3236903B92377D4E9053098472169F8
:1004E0000029E4D0237F03F0FF05002BDFD0D4E9FF
:1004F00002325B1842F10002C4E90232034821468D
:1005000001F04BFFD4E700BF6000002098390000E5
:1005100013B5114B1149186801900823104858224F
:1005200000F066FE044698B90E4A0F4801A900F093
:1005300037F9044660B90C48012100F00BFA012399
:100540000A4A0948194600F06DF9094B01221A7050
:10055000204602B010BD00BF9439000064000020A6
:10056000BC000020C905000030000020FFFF7F0014
:10057000600000203AB103685A614A1E514251415D
:100580001961002070470720704738B5037F044683
:100590000D4683B98261FFF74DFF2369281841F1A9
:1005A0000001C4E9020103B1256121460020BDE834
:1005B0003840FFF75BBF002038BD0000014800F065
:1005C000E6B900BF300000202DE9F347064600F0F1
:1005D000C9F940B1584AD2E9003113F1807341F1B1
:1005E0000001C2E900310021304600F0CAF938B1FB
:1005F000524C236823B12068FFF754FF0023236087
:100600000121304600F0BDF920B1FFF713FF4C4B3C
:10061000C3E900014B48494D4B4C4C4F01A900F038
:1006200034FE002842D1DFF82081444CDFF82491C9
:10063000404601F0C8FE2368002872D07BB12368D1
:10064000D0E90252D3E902138D4272EB03032AD29E
:1006500023681B7F1BB12168404601F09EFE404687
:1006600001F0ABFED0E9027A0546FFF7E3FE381A47
:100670006AEB010A01287AF1000345DBB0F5350F7A
:1006800040D3FFF79BFF324A02444FF49603002108
:10069000484600F0E7F800283ED1236813B93046F9
:1006A00000F0B8F8256002B0BDE8F0870378012BB0
:1006B0001DD0022B09D14FF00008204601F07DFE2D
:1006C000002836D080F81C80F7E73BB941680B7FE3
:1006D00023B901230B77204601F05FFE01A91948D9
:1006E00000F0FEFD01A9174800F0CFFD99E7416831
:1006F0002B68994202D100232B60EFE7204601F0DE
:1007000065FEEBE7AA68C0E70021484600F02FF934
:100710002846FFF7C7FE01E00D28F9D0002323602B
:1007200086E7002BBFD1304602B0BDE8F04700F0AD
:1007300075B801233B70D1E758000020D800002095
:10074000D0000020BC00002098390000600000208C
:10075000FFFFB4003000002072B6024A1368013374
:1007600013607047DC000020034A1368013B1360EC
:1007700003B962B6704700BFDC000020FFF7ECBF92
:10078000FFF7F2BF435882B03BB1002343504358B8
:100790000193019B012002B070471846FBE700005F
:1007A00070B5184C4379184D44F8232005EBC3036A
:1007B0001B792BBB03680A88C3F8082590F904400D
:1007C0008B7802795B01002CDBB214DB0F490E1928
:1007D00086F800330123640902F01F0203FA02F2D3
:1007E00041F82420437905EBC302012145F8330089
:1007F0001171002070BD064902F00F028B54F1E721
:100800000820F7E7E8000020E000002000E100E019
:1008100014ED00E0036801221A60704703680122AA
:100820005A60704773B501F15005AD000068ADB274
:100830004FF480348C400026C0F80843C0F8484389
:10084000465101F5A8714559019522F07F42019D5D
:1008500040F82120C0F844430BB1C0F8044302B073
:1008600070BD00002DE9F74F0D4622F07F4402686D
:100870004FF4803705F150068F408046B60002EBFA
:100880008500C2F84873B6B2C2F80873D2F80415EE
:1008900099464FF0000BD0F84035C0F8401542F8AB
:1008A00006B05B1A9259009223F07F43012B009A05
:1008B0004FEA850A0CD1264B4FF4806043F00103C8
:1008C0009847D8F8003043F806B09B590193019B34
:1008D000D8F80010D1F80465C1F84473A31B23F0C5
:1008E0007F43012B1CD11A4B05F5A875013443F049
:1008F000010341F825404FF480609847D8F8003054
:10090000D3F804359E4209D1D8F800300020C3F84E
:100910004473C3F8047303B0BDE8F08F0D20FAE709
:100920008A44C9F1FF13CAF84045D1F80405221AD8
:10093000013A22F07F4203F57F439342EED3002A2F
:10094000E2D10134CAF84045D1F804359842DAE7DB
:10095000B039000003680222C3F8442309B1C3F888
:100960000423704700684FF48271FFF70BBF4FF408
:10097000803303FA01F10368C3F84813C3F808137E
:10098000704750318900006889B2FFF7FBBE0368E9
:10099000D3F804057047000090F90430002B09DB00
:1009A0005A09012103F01F0301FA03F340320249FF
:1009B00041F82230704700BF00E100E0024B034ADB
:1009C0001B681068184700BFE8000020E000002006
:1009D00070B5064D0646002455F8043B0BB1304671
:1009E00098470134042CF7D170BD00BFF8000020F7
:1009F0004388033300EB830399420BD382884FF67D
:100A0000FF739A4208D0038833B18068431C584270
:100A10005841704702207047012070470B4A0C492B
:100A20005388142000FB0311CB6833B904204968B4
:100A300010700122074801F0B9BB07490523137064
:100A400002238B80012209680023F3E710010020B4
:100A500028010020000000206401002007B50023C9
:100A600005490093054A09680548082301F070FB11
:100A700003B05DF804FB00BF64010020C43900002E
:100A80000000002007B5002301460093034A0448F4
:100A9000082301F05DFB03B05DF804FBBC390000E6
:100AA0000000002013B500230C4600930146084ABD
:100AB0000848042301F04CFB38B9074B142101FB13
:100AC000043101230B7402B010BD48F20D60FAE747
:100AD000B8390000000000202801002037B50A487E
:100AE0000A4B42689C8819685388032503330570B4
:100AF0009BB2002000909B0001EB8401044801F0B0
:100B000027FB03B030BD00BF1001002064010020AE
:100B10000000002038B5144B14220D4602FB0030B3
:100B20002B68446804F58051A3B15C88033403EB5F
:100B300084048C4215D22368013312D02046FFF77B
:100B400057FF012808D002280BD00028F1D12C60D3
:100B5000012038BD0834ECE76388033304EB8304D9
:100B6000E7E70020F5E700BF28010020426873B5E1
:100B700004460D466AB3234BD9688A4229D31B69C0
:100B80009A4226D812F0030323D11F49008909890C
:100B900088421ED12068916888421AD11B4841685A
:100BA0008A4203D901F580518A420DD381698A4274
:100BB0000CD901F580518A4208D201222A80B3FA69
:100BC00083F0400902B070BD1A46F7E748F20963A6
:100BD000F5E700262E800196288801A9FFF79AFFE5
:100BE00030B92B8801339BB2012B2B80F3D9E9E775
:100BF000019B226899689142EED16360024B1B8988
:100C00002381DFE7000000201001002028010020E0
:100C10002DE9F8431C461D4B1B7806460F4615462A
:100C200073B382B37CB3DFF86C804FF01409A388F0
:100C3000012B02D948F2096020E009FB03F318F800
:100C400003302BB9A0882146FFF764FF20B920604C
:100C5000A3880133A380EAE723681EB1998832880C
:100C60009142EFD11FB119883A889142EAD19A682E
:100C7000C5E90023064B1B892B810020BDE8F883C2
:100C800048F20160FAE748F20460F7E70801002043
:100C9000100100202801002008B5074B5888191DB5
:100CA000FFF738FF18B1BDE80840FFF717BFBDE8F0
:100CB0000840FFF7B3BE00BF100100202DE9F04748
:100CC000A24FDFF8AC8288B006463B6823B9A04843
:100CD000414600F0DAFA38603D6829784B1E052B52
:100CE00007D8DFE813F020007A007A000C010C012D
:100CF000630148F20E641422002103A802F07FFD74
:100D000041F61D539C4208BF00243B6804941A78A6
:100D1000023A042A00F20282DFE812F0E301EF0156
:100D20001102190220022EB18A4B00225A604FF4A0
:100D30000644E0E72B79032B1CD8DFE803F014020C
:100D40002A35854A1378022B1AD0137D022B4FF0D7
:100D5000010317D114214B43D1180020D054486807
:100D6000FFF790FE03E001232B71FFF777FE0028C9
:100D700000F0BF80774B00225A6048F20D64BAE75A
:100D80000023E7E7734A13700023536041F61D54B4
:100D9000B1E772497248002302222B718A800968E8
:100DA000012201F003FAE2E76C4C00262E71206864
:100DB000FFF768FE6B4BDFF8A0C15B882568142243
:100DC00053430CEB03020CF8036051685560A5888F
:100DD000158102222160A280C9E7B5F814A0AA7D7E
:100DE000DFF87491AEB1022AEB8806D9142101FB19
:100DF0000A91DA1C088902440A81142202FB0A992A
:100E0000C3F57F43B9F80A20FD331344A9F80A302B
:100E10008DE7142303FB0A9318895C6804EB8004B4
:100E2000062A69D8DFE802F0274E36441D5A04002E
:100E300041F61D54AA7DEB88022A06D9142101FB34
:100E40000A91DA1C088902440A81142202FB0A99D9
:100E5000C3F57F43B9F80A20FD331344A9F80A30DB
:100E600049E74148414900234360AB690360FFF70C
:100E70007DFE00285BD00223AB7500230093042382
:100E8000EA182146364801F063F9002831D048F2CB
:100E90000D64CFE72B69002B14BF03230123AB752F
:100EA0000023009305F10C02042304F10801E9E793
:100EB0000123AB750022EB8800922A699B0004F1A4
:100EC0000C01DFE703290CBF05230623AB750023C4
:100ED0000093042305F10802E118D3E70623AB755C
:100EE000224B1988204B5868FFF7DCFD0446002888
:100EF000A0D108B0BDE8F08748F20E649AE7002E52
:100F00007FF415AF2B79012B34D0022B3FF43EAF89
:100F1000002B7FF4EEAE02232B710DF10A01EB687A
:100F2000039303A8CDE90466FFF720FE10B948F249
:100F30000964E0E60498BDF80A108388EB80038812
:100F40002B81FFF7AFFD044629E000BF24010020FC
:100F50005001002008010020280100206401002029
:100F60000000002010010020EC0000206C01002097
:100F700020010020DFF8009203AA4B463146A81D4D
:100F8000FFF746FE044670B9B9F804100498FFF75D
:100F900089FD044648F209639C423FF4F7AE002CF9
:100FA0007FF4A9AEA5E7C9E90066F3E7002E7FF458
:100FB000BEAE6C4B1A7BBAB11E731A78013A062A80
:100FC0003FF697AE01A151F822F000BF7710000064
:100FD0009D100000BB100000C1100000F30C0000C9
:100FE000C7100000D91000001A78072AE5D801A11F
:100FF00051F822F015100000BB0F0000BB0F0000DD
:101000003B1000004F100000731000007310000030
:10101000371000001A89544901321A8100225A807F
:101020001A730A78B2FA82F252099A720A7DB2FAF7
:1010300082F25209DA72012207E04C4958688A8824
:101040004088033202448A8002221A70B5E75C8825
:10105000454A4649142505FB042208685468506037
:101060008888108102200C6088800021117406227B
:10107000EBE70722E9E79A7A32B9DA7A8AB90022ED
:101080001A705A805A6081E6374900229A72CA68FB
:10109000002AF2D1097C0029EFD05A80FFF7FCFD2D
:1010A00051E70022DA72304A116A0029E7D192F83A
:1010B0002420002AE3D00122EFE7FFF70FFD42E7EB
:1010C000FFF7ACFC3FE75A88274B142101FB0233A2
:1010D0005868FFF7D7FC36E700225A60FFF7BEFCDE
:1010E00031E701228DF80C201A89ADF818209A8872
:1010F000DB68ADF81A20059310E002228DF80C2071
:101100001A89ADF818209A88ADF81A20DA689B7D04
:1011100005929A1F534253418DF81C3003A8FFF7E4
:1011200057FC0026414612483E6000F0D9F81148AD
:10113000012100F0E5F800287FF4C7ADD9E60322CD
:101140008DF80C20DA88ADF818201A89D0E704222F
:101150008DF80C20DB88ADF81830DFE705238DF81B
:101160000C30DBE710010020280100206401002082
:101170005001002060010020700100204068FFF74E
:101180009DBD00001EF0040F1CBFEFF309800AE0B4
:10119000EFF308800549064A884201D8904202D8F8
:1011A0008D464FF00000034B18470000000001205F
:1011B00000E00020DD110000BFF34F8F0549064B12
:1011C000CA6802F4E0621343CB60BFF34F8F00BFE5
:1011D000FDE700BF00ED00E00400FA0508B5034B91
:1011E0009A6ADB6AFFF7E8FF08BD00BF00ED00E088
:1011F00010B561B1B2FBF3F403FB1424A4B244B9FB
:10120000C0E9001484608281C381204610BD0E2095
:10121000FCE70920FAE737B550E8013F9DB2C489E1
:1012200025448489A54228BF2D1B0489A54202BFFD
:10123000BFF32F8F002207E0C5EA030540E8015401
:10124000002CE9D14FF001028DF803200193019A9F
:101250000A609DF8031001F0FF0321B1006810FA45
:1012600082F003B030BD1846FBE70A884B889A42EB
:1012700009D150E8012FC2EA024240E80123002BC5
:10128000F7D1012070470020704737B550E8023F82
:101290001FFAA3F5C488A54202BFBFF32F8F002217
:1012A0000DE0C48925448489A54228BF2D1BC3EACB
:1012B000054540E80254002CE8D14FF001028DF8BA
:1012C00003200193019A0A609DF8031001F0FF03C7
:1012D00021B1006800EB124003B030BD1846FBE7B7
:1012E0000A884B889A4209D150E8022FC2EA22426A
:1012F00040E80223002BF7D10120704700207047FF
:1013000010B5034653E8002FA2EB010043E80004A8
:1013100094F0000FF6D110BD2DE9F0478368D3F8A3
:101320004831C3F340059B0788B0074606D5002225
:10133000114608B0BDE8F04700F062BA012906D9AD
:101340001E4A022108B0BDE8F04700F02DBA1C4C3F
:101350001C4EDFF874A04FF06408A946361B182312
:10136000B6FBF3F6AE4204F1180402D108B0BDE8B2
:10137000F08754F8180C54E90523017900689A1A8B
:101380001B1ADBB2039308FB03F3B3FBF2F3CDE9C3
:10139000019334F8043C0093CDE9061254F8083C5C
:1013A00011FB08F13846B1FBF2F1CDE904215246B8
:1013B000082100F0F9F90135D4E700BFCC3900006D
:1013C0002C3900002C390000DF3900002DE9F843EA
:1013D000089E1D460C46F1B9194E1A49891BB2EBFD
:1013E000D10F4FEAD10905D2174F043607EB820718
:1013F000A14502D100232B6009E056F834803868FB
:10140000D8F8001002F02EFA18B9C5F80080BDE82F
:10141000F8830134ECE70028ECD00178436839B157
:101420003146104698473368002BE3D02E60EEE734
:10143000110103EB02125B58002BDBD02A60E6E7B8
:101440002C390000643900001400002008B102F0BB
:1014500030BA704707B58368DA7E8A421ED01B22F5
:101460008DF800205B228DF8012031228DF80220BA
:101470003B228DF8032033228DF8042001F12F0246
:101480008DF805206D22D9768DF8062000228DF882
:101490000720044900696A4600F091FC03B05DF83A
:1014A00004FB00BF953B00000A4609B1FFF7D2BF1D
:1014B0008168CA760069024A024900F080BC00BF18
:1014C000353F0000953B000007B583681A7F8A42CC
:1014D00018D01B228DF800205B228DF801203422C9
:1014E0008DF8022001F12F028DF803206D2219776B
:1014F0008DF8042000228DF80520044900696A4611
:1015000000F05DFC03B05DF804FB00BF953B0000FC
:101510002DE9F34105460F461446002614B902B0E2
:10152000BDE8F081686803682246D3F80C80B919D9
:1015300001ABC047019B1E44E41A002BEED1AB68FF
:101540001A78032AEAD0D3F848219206FBD5B3F8DB
:1015500048216FF34512A3F84821DFE70A46014905
:1015600000F02DBCF43A000011B10069FFF7F6BF9E
:1015700070470000014900F022BC00BF6B3A000038
:101580000A4619B10249006900F019BC704700BF52
:10159000FA3A00000A4619B10249006900F00FBC8E
:1015A000704700BF003B00002DE9F04F044685B0B6
:1015B0000E4690460025705D02F0F0F820BB5FFA01
:1015C00088FA3046FFF742FFA3685B7E401BA3EB1F
:1015D000080B584506EB050918D94A46002712F8AA
:1015E000011B039308460292019102F0D7F8DDE94E
:1015F000022318B101990A2931D0BB4608EB070133
:101600008B422BD90137EAE70135D4E74B46002757
:10161000B84217D013F8012B0A2A05EB070A1BD191
:10162000206900F0C1FB49463A462046FFF770FFAB
:101630002069FFF79FFF5FFA88F120460AF1010554
:10164000FFF792FF2069711900F0B9FB206905B01E
:10165000BDE8F04FFFF78EBF0137D9E75F4620693D
:1016600000F0A2FB3A4649462046FFF751FF3D44B1
:10167000705D02F093F838B92069FFF77BFF51469F
:101680002046FFF771FF9CE70135F1E72DE9F341B3
:1016900005468068424F002480222146A0308DF804
:1016A000034002F0ACF83F49286900F088FB286944
:1016B00000F07AFB4FF47A7647F001076868036818
:1016C0000122D3F810800DF1030101ABC047019B4B
:1016D0005BB94FF6C010B847019B002BEED1013E1D
:1016E000B6B2002EEAD10D2035E09DF80330AA688D
:1016F0001B2B48D092F8A0101B29EDD1522B42D1C0
:101700001444002384F8A03092F8A1105B291FD163
:1017100002F1A20602211D4616F8010B4C1C3B28C3
:10172000E1B264B21AD1002C20DB01F1A004144410
:10173000002314F8010BD8B9FA2B28BFFA23FA2D8D
:1017400013752B4628BFFA23937582F8A00002E098
:1017500082F8A0300B2002B0BDE8F08105EB8503D4
:1017600000EB4303303B80299DB2D5D10C20F2E73A
:1017700003EB830300EB43004E1C303883B230068A
:10178000F1B2F3D4D5E711190134E4B2092C81F890
:10179000A030A1D9002382F8A0300420DBE700BFED
:1017A000503F0000423F00000CB473B506AB044646
:1017B00053F8046B01938368D3F848516D0719D52A
:1017C000DD7E8D4216D0B3F81B50FFF76DFE206909
:1017D00001AA314600F072FBE9B22046FFF764FE31
:1017E000290A02D02046FFF76FFE02B0BDE8704024
:1017F00002B07047206901AA314600F05FFBF4E7B0
:101800002DE9F04F8BB0836817466C4A009204466E
:101810006B4A5B680D460821FFF7C6FFA668706833
:10182000FFF714FEB168033082B211B12046FFF712
:10183000BBFE644A00212046FFF7B6FF002F3DD0D3
:10184000002D3BD04FF00C0AA9460AFB075A082688
:10185000D9F80400FFF7FAFD8046D9F80000FFF739
:10186000F5FD4044B04209F10C0988BF86B2CA4573
:10187000EED106F10408544B544A00931FFA88F83D
:1018800006F107090821204643461FFA89F9FFF7A8
:101890008BFF4F494A462046FFF786FE2DB1DFF801
:1018A0002CB14FF0000ABA450AD1A368D3F80C80D6
:1018B000B8F1000F3ED10BB0BDE8F08F0826D8E795
:1018C000D5E9002373B32AB30192424A009208215A
:1018D000414A2046FFF768FF6868FFF7B7FD0390AD
:1018E0002868FFF7B3FD0399B31C591A091AC9B246
:1018F0002046FFF739FE394920693A2200F05FFAA5
:10190000A96899B14A462046FFF74EFE0AF1010A3E
:101910000C35C8E7009343465A4608212046FFF796
:1019200043FFEDE7002AEBD00092F4E72069FFF7D0
:1019300021FEEBE700220592174606AE009605ABA6
:101940000121404602F10109FFF740FD059D3DB12F
:101950002868FFF77BFDB84200D987B24A46EDE719
:10196000B9F1010FA7D01E4ADFF860A02946204632
:10197000FFF71AFF2A46BD1CADB205AB0096012148
:10198000404602F10109FFF721FD059B002B92D093
:101990001B68009308212B4652462046FFF704FFA0
:1019A000059B596831B17A1D92B22046FFF7FCFDC4
:1019B0004A46E2E72069FFF7DDFDF9E7473F00000F
:1019C0008F3B0000983B0000563F0000A23B000008
:1019D000AA3B0000BC400000BD3B00000C3B0000E7
:1019E000C63B000000221146FFF70ABF022910B5CE
:1019F000044608D18368D3F848319B0703D5BDE876
:101A00001040FFF7EFBF2069054A064900F0D7F9FB
:101A10002069054A0349BDE8104000F0D0B900BF75
:101A20003E3F0000953B0000393F0000012906D0F1
:101A3000022906D18368D3F848319B0701D5FFF707
:101A4000D1BF024A0221FFF7AFBE00BF413B0000F9
:101A500038B58368D3F84821C2F3400592070C4695
:101A600006D500221146FFF7CBFE2C46204638BD96
:101A70000029FBD05B68024A0221FFF795FEF5E7DB
:101A8000D43B0000012937B50546144604D103B004
:101A9000BDE83040FFF7A6BF023918BF0121FFF7AC
:101AA000D7FF48B963680193044B0093044A236845
:101AB00002212846FFF778FE03B030BDF83B000056
:101AC000EF3B0000012907B504D103B05DF804EB3A
:101AD000FFF788BF02290AD153680193084B00938E
:101AE0001368084AFFF760FE03B05DF804FB8CBF83
:101AF0000121002103B05DF804EBFFF7A9BF00BF8F
:101B0000F83B0000EF3B0000013910B518BF012180
:101B10000446FFF79DFF40B9044A0549206900F0DB
:101B20004EF9A36845F218021A8310BD2F3F00003A
:101B3000953B00000129F7B50446154633D1856869
:101B4000FFF7A4FD18BBA36820691F7D9E7DFA21C5
:101B5000FFF704FD20691D49FA2200F030F9204604
:101B6000FFF794FD98B9A368197D6976A368C91B2E
:101B70009B7D2B762046C9B2FFF702FD297E891B8B
:101B8000C9B2204603B0BDE8F040FFF703BDA3682B
:101B900045F218021A830E4A0421204603B0BDE81C
:101BA000F040FFF701BE022994BF00210121FFF799
:101BB0004FFF48B96B680193064B00932B68064AA8
:101BC00002212046FFF7F0FD03B0F0BD063B000008
:101BD0000D3C0000F83B0000EF3B00002DE9F04118
:101BE000013986B018BF01210546FFF731FF40BB20
:101BF000AB68DFF85480D3F840610446EEB1082C9E
:101C00001BD030460023092203A900F038FB9DF8C1
:101C10001420A968304609230132A03100F02FFBBF
:101C2000AB68049EA0330093671C23464246002104
:101C30002846FFF7B9FD3C46E0E7AB68002283F891
:101C4000A02006B0BDE8F081473C0000013910B586
:101C500018BF01210446FFF7FBFE30B9A368B3F8B3
:101C6000482160F38202A3F8482110BD013910B564
:101C700018BF01210446FFF7EBFE30B9A268B2F8A5
:101C8000483143F00403A2F8483110BD013910B5C2
:101C900018BF01210446FFF7DBFE30B9A368B3F893
:101CA000482160F3C302A3F8482110BD013910B5E3
:101CB00018BF01210446FFF7CBFE30B9A268B2F885
:101CC000483143F00803A2F8483110BD022973B52A
:101CD0000D4694BF0021012104461646FFF7B8FEC9
:101CE000014658B9022D0BD1736801930C4B009338
:101CF0000C4A336829462046FFF756FD02B070BDF6
:101D0000A368094AD3F8483113F0080F074B18BFEE
:101D10001346074A204602B0BDE87040FFF744BDB5
:101D2000F83B0000EF3B0000513C0000543C000039
:101D3000583C0000013910B518BF01210446FFF7D7
:101D400087FE48B9A368C3F83801E3685B68BDE85B
:101D50001040186800F01DBB10BD00007FB50139B0
:101D600018BF01210446FFF773FE0546B8B9E368C2
:101D70005B681E68304600F009FBB268A168C3B218
:101D8000CDE9013264204343B3FBF2F3DBB20093AD
:101D9000D1F83831034A29462046FFF705FD04B043
:101DA00070BD00BF693C0000826810B504462AB1CE
:101DB00043690168006998470023A36010BD0EB411
:101DC00003B5039921B104AB01AA019300F076F8A1
:101DD00002B05DF804EB03B070470A2938B5044639
:101DE0000D4602D10D21FFF7F8FFA3682268591CA8
:101DF000A160D554D4E901329A4204D32046BDE80B
:101E00003840FFF7D1BF38BD2DE9F84F9846DDE9DE
:101E10000A43154682460F460A464FF00109AA4278
:101E20000FD2C14538BFC14613F0010B01D16CB9C7
:101E300000240126B8F1010F1BD908F1FF386E43C9
:101E4000F8E709F10109B2FBF5F2E8E79B070ED5C7
:101E5000B8F1000F0CBF30262026A145E9D2013C85
:101E600031465046FFF7B9FF002CF6D1E0E72026B7
:101E7000F3E7B7FBF6F39D42E1D9DFF83C80B7FB0F
:101E8000F6F3504618F8031006FB1377FFF7A5FF8B
:101E90003346AB42B6FBF5F6F1D2BBF1000F02D0F0
:101EA0000CB1A14501D3BDE8F88F20215046013C7B
:101EB000FFF793FFF4E700BFBF4000002DE9F74FA5
:101EC000054617468846002900F03E8118F8011B98
:101ED00049B92B7B002B00F03781284603B0BDE8C1
:101EE000F04FFFF761BF252940F0B780002698F832
:101EF00000302D2B424608F1010823D0302B24D08E
:101F00002B2B25D000242A2B02F1010123D13B6881
:101F10001A1D1B683A601C440A4613782E2B26D1E2
:101F200001324FF0000A104610F8011BA1F1300CED
:101F3000BCF1090F1DD80A2303FB0A13A3F1300AD1
:101F40000246F0E746F00106D1E746F00206CEE78A
:101F500046F00406CBE711F8013CA3F13000092854
:101F6000DBD80A2202FB0434303C0A46CBE74FF0B0
:101F7000000A12F8011B01F0FB0068289046F8D017
:101F8000782909D86F290CD8632962D022D825294D
:101F900063D0582900F0888098F80030002B95D144
:101FA00097E770390829F7D801A353F821F000BF4B
:101FB00023210000991F0000991F0000B920000094
:101FC000991F000097200000991F0000991F000032
:101FD000A9200000642901D06929DDD13A68D2F82E
:101FE0000090111D89EAE9723960A2EBE9724FF0A5
:101FF000010B092A35DCD34538BFD3462CB1B9F1E2
:10200000000F01DB720700D5013CB30702D5BAF11E
:10201000000F03D0F00701D44CBB0024B9F1000F2E
:102020002DDAC9F100092D212846FFF7D6FE06F06A
:102030000302022A04D1BAF1000F01D11CBB002413
:10204000CDE9004653460A2249462846FFF7DCFE02
:10205000A2E73B681A1D19783A602846FFF7BDFED3
:102060009AE70A230BF1010BB2FBF3F2C1E7A34598
:10207000D4D220212846013CFFF7AFFECCE7710700
:10208000D5D52B21D0E7A345DAD230212846013C13
:10209000FFF7A3FED2E73968CDE900460A1D3A6092
:1020A00053460A220968D0E739680A1D3A60CDE92B
:1020B000004653461022F5E73B681A1D3A6016F0B9
:1020C0000106D3F8009024D1B9F1000F03D048469F
:1020D00001F0EFFB0646B4421DD809F1FF3919F8AB
:1020E000011F00293FF458AF2846FFF776FEF6E7B8
:1020F00028460136FFF771FE19F806100029F7D1BE
:10210000A642BFF449AF20212846013CFFF765FEF7
:10211000F6E70026F0E720212846013CFFF75DFEA8
:10212000D9E73B681A1D3A60302128461C68FFF742
:1021300054FE78212846FFF750FE00220823CDE9FF
:1021400000322146102280E703B0BDE8F08F00BFC7
:102150002DE9F04308B302B3D0F800E0BEF1000F60
:102160001ED0FBB14568D5F80490B3FBF9F509FB27
:102170001535BDB942EA010C1CF0030F14D1C56836
:10218000A94211D34D1EEC180569AC420CD8DEF8FB
:102190000C40A446BDE8F04360470E20BDE8F08344
:1021A0000820FBE70920F9E71020F7E7F0B5D8B1E0
:1021B000D0F800C0BCF1000F18D0CAB14568D5F8FE
:1021C00000E00EF1FF350D4214D1C568A94211D3CC
:1021D0004D1E0EFB02540569AC420BD8DCF81040D2
:1021E000A446BDE8F04060470E20F0BD0820FCE7A3
:1021F0000920FAE71020F8E72DE9F84FB0F806A01B
:102200004579D2F800B09DF828900AFB05F5043D09
:1022100088460BEB0301A94203F1040488BFA5EB38
:10222000030BB4FBFAF607460AFB1644C2F800B0EB
:102230004EB9AAEB04055D4528BF5D46BBF1000F12
:1022400004D1BDE8F88F3F68013EF1E7043408EBA4
:1022500006003C442A46B9F1000F0DD02146ABEBF5
:10226000050B01F0A3FADA452E443F6855464FF0BE
:10227000000428BF5D46E1E701462046EFE71FB5B1
:1022800003920122009203AAFFF7B6FF05B05DF8A2
:1022900004FB026813685268934291BFD01A8068A9
:1022A0000130801888BFC01A704710B5044600205E
:1022B000FEF764FA2046FFF7ECFF04460020FEF725
:1022C0005FFA204610BD00002DE9F04F8368D3F877
:1022D0004831C3F340059B078BB0064606D5002264
:1022E00011460BB0BDE8F04FFFF78ABA012906D9B5
:1022F000204A02210BB0BDE8F04FFFF755BA1E4C43
:102300001E4BDFF88090DFF880A01B1B1822B3FB68
:10231000F2F8A84502D10BB0BDE8F08FE36809934D
:102320002368A768D3F808B02046FFF7BEFF94F8EB
:1023300010E0134A642303FB00F1BEF1000F18BF45
:102340004A4603FB0BF3B3FBF7F3CDE9043BB1FBC8
:10235000F7F1099B0191CDE90672CDE902070093DF
:102360005246636908213046FFF71EFA01351834DA
:10237000CFE700BFCC390000143900002C39000031
:10238000CF400000D8400000E44000000368986897
:102390007047036800229A60704770B5446806462B
:1023A0000D46206818B1B3682946984718B92368C4
:1023B0002B60256070BD2468F3E74368186808B196
:1023C00002681A6070474368186870474368186865
:1023D00000B97047884203D102681A600120704733
:1023E00003460068F4E700004FF4A06300FB0330ED
:1023F000084B1A18A0F5806030B50344064C03F56D
:1024000080619342A1EB030003D253F8045BA54221
:10241000F7D030BD000200200ED0ADDE2DE9F04F28
:10242000DFF8FC90DFF80881DFF808B185B00546D9
:1024300000260020FEF7A2F9D9F800705FFA86FAAC
:102440002FB1D9F804702E4B002F08BF1F46002073
:10245000FEF796F9002F3FD05046FFF7C5FF3346F1
:102460005A46082104462846FFF79EF93B46254A6E
:1024700008212846FFF798F908F2FF33002C35D0E1
:102480004FF480626420CDE902424443A40ACDE9BE
:1024900000341D4A434608212846FFF785F91B4BA7
:1024A0001B7853452AD01A4B1A684FF00043F3406B
:1024B0001342184A184B08BF1346184A08212846E9
:1024C000FFF772F9164A0C2303FB062308219B68C9
:1024D000144A2846FFF768F90136032E09F10C0962
:1024E00008F5A068A5D105B0BDE8F08F00930E4AAD
:1024F000434608212846FFF757F9D0E70B4BDCE7A6
:10250000C0410000ED410000FB41000078010020C7
:102510007C010020D8410000CF4100004D42000066
:10252000001100205A42000035420000C74100005F
:1025300000030020E241000038B5074C051E04F1FD
:10254000080318BF1C4623682BB11A6822605B6819
:1025500028469847F7E738BD2C11002020B9054BD5
:1025600001225A70FFF7E8BF012802D1014A90709A
:10257000F8E770472411002038B50C4C23789BB93C
:102580000B486360A3602361E36000F049F80546EF
:1025900000F052F801232370064BD3F800340BB13E
:1025A0000123A370284638BD8525F5E724110020B6
:1025B0005D2500000000014038B5134CA3780546A6
:1025C00003F0FF0073B115B16B680120984700203C
:1025D000FEF7D4F8E3680133E3600020BDE838403B
:1025E000FEF7CEB8FEF7CAF825B1226913463BB90B
:1025F0002A602561E368002BECD100F033F8E9E7AD
:102600009D42F7D01B68F2E72411002000F18040C2
:10261000002382B0036003680193019B02B07047FE
:10262000044A137923B9012110609180184670473C
:102630008520704788110020084B1A68D20704D4FF
:10264000C02283F8002301221A604FF08042012348
:10265000C2F81835024A1370704700BF00E100E06D
:102660009011002038B54FF48270FFF7CFFF4FF084
:1026700080430222C3F804230C4AD2F8FC0040F045
:102680008073C2F8FC300A4B1C6844F001011960E9
:102690005D685968491BB1F50A5FFAD31C604FF0B9
:1026A0008043C2F8FC0001229A6038BD00ED00E0D2
:1026B000001000E04FF0804110B5D1F8003163B157
:1026C0004FF48070FFF7A2FF0D4B58790122C1F83B
:1026D000082310B95A711B6898474FF08042D2F80E
:1026E000043163B14FF48270FFF790FF0223C2F808
:1026F0000833034BBDE810401B680120184710BD8C
:102700008811002000F1804000F5C040002382B015
:10271000036003680193019B02B07047800000F1E1
:10272000A040D0F8002722F44032C0F80027D0F8AB
:10273000003743EA0141C0F800177047054B4FF0DE
:10274000FF32072843F8202084BFC01880F84820B3
:10275000704700BF9411002010B5184991F8583007
:1027600053BB4FF0FF3222FA03F0C00748BFC8182E
:1027700003F1010348BF80F83020202BF3D100245F
:10278000E0B20134FFF7DAFF0C2CF9D10C4B002238
:10279000C0204A6583F80603402018604FF4BE70DD
:1027A000FFF7B0FF074B4FF00040C3F804030123CD
:1027B00081F85830104610BD0820FCE79411002025
:1027C00000E100E000600040F0B5394E331893F9A5
:1027D0003030002B69DA8D78C5F34005002D0BBF32
:1027E000082300230C240824A34201D10420F0BDB7
:1027F00056F82370013743D137185CB246F82320CE
:1028000087F8304015B9F21882F848008A785507E1
:1028100016D4D70736D5820002F1A042D2F800576D
:1028200025F00205C2F80057224FC50800F0070C3A
:10283000012202FA0CF217F805C042EA0C027A559E
:102840008A780D7812F0020225D09B0003F18043B4
:1028500003F5C0430002D3F8102522F4473222F4D6
:102860004072C3F810252D04D3F8102500F4F85059
:1028700005F4403528431043C3F810050020B6E79F
:102880000133B1E74D7800F5E0724FF0A047AD009D
:1028900047F82250C8E7083C46FA84F494F8500000
:1028A00040EA851584F85050E8E708209FE700BF0C
:1028B00094110020E811002038B5204C251895F916
:1028C0003020072A18DD083A44FA82F494F8503090
:1028D0009B09032B0BD14FF0A043D3F81015C14037
:1028E00001F001010231BDE83840FFF717BF012BAD
:1028F0000CBF02210321F6E7D3B2072B1DD89300AA
:1029000003F1804303F5C043D3F8100540F0010004
:10291000C3F8100502F1400040B2800080B2FFF71A
:10292000F1FE51B195F9303054F823302BB1012329
:1029300003FA02F2024BC3F8042338BD94110020BD
:10294000006000402DE9F74F00244E4D01944FF4F4
:102950008072012102F1804303F5C04390B21B68ED
:10296000012B06D1D5F804330B4202D0FFF7CAFE83
:102970000C430432B2F5907F4FEA4101EAD1414B5A
:10298000D3F87C31012B0CD14FF4BE70FFF7BAFEA7
:102990004FF0A04344F00044D3F820250192C3F83F
:1029A0002025E3B2D3B1384F01260025344210D0A0
:1029B000AB0003F1804303F5C043D3F81005D3F80F
:1029C000101557F8253023B1C1F30141C0F304209D
:1029D00098470135082D4FEA4606E7D1002C48DA22
:1029E000294D4FF0A048294E4FF00009012716F954
:1029F000013B5A1C31D0C3F3C20208326A44DCB234
:102A000012F8042C03F03F0A03F0070307FA03F35C
:102A10001A4222D00AF5E073504658F82330C3F327
:102A2000014BBBF1020F0CBF03210221FFF776FE21
:102A300007FA0AF3C8F8203505EB0A0393F930309A
:102A400055F823304BB1A109032904D0BBF1020F83
:102A500012D1012901D15046984709F10109B9F174
:102A6000040FC4D1D8F820350193C8F82035002BC5
:102A7000B9D103B0BDE8F08FBBF1030FEDD102294E
:102A8000E8E700BF0060004094110020E41100203E
:102A9000F0B53F4B3F4CD3F8142185B08AB10022EA
:102AA000C3F81421D3F814310093009B637943F0E9
:102AB000080303F01202122A637104BF43F02003DB
:102AC0006371334BD3F804218AB10022C3F8042187
:102AD000D3F804310193019B637943F0040303F0BD
:102AE0001102112A637104BF43F020036371284B64
:102AF000D3F80821BAB10025C3F80851D3F808214A
:102B00000292029A24480422C3F808232946C3F8F3
:102B10000055236898472368204829469847012391
:102B2000237105B0F0BD637903F00F020F2A08D0BE
:102B3000D80701D4190704D462799207F1D45B074E
:102B4000EFD56279276802F0F30312F020020BD070
:102B500023F0300343F010036371012100203B4652
:102B600005B0BDE8F04018470B4D95E8030002AEF4
:102B700086E8030015E9030043F0100385E803002D
:102B8000C4E90222637101213046B847C9E700BF9A
:102B900000500240F011002000120020F811002027
:102BA00000F1804000F5E830002382B00360036844
:102BB0000193019B02B070471FB53C493C4CD1F8D2
:102BC0000021002A47D04FF48070FFF7E9FFA37C73
:102BD000DA4302F0010204EB8201496811B9617C19
:102BE00002292DD1607C022818BF04EB83034FF02B
:102BF00000010BBF01235868637459604FF0010353
:102C00008DF80C10E1740EBF02910290A2748DF841
:102C10000430236801A89847637C022B01D101236B
:102C20006374237D53B101238DF804300023029394
:102C30008DF80C30237501A82368984704B010BDA7
:102C4000E37C002BE8D18DF80430029301238DF84A
:102C50000C30E374DDE7D1F80431002BE1D04FF400
:102C60008270FFF79DFFC1F80025A37C627404EB1E
:102C700083038DF80C2059688DF8042021B15A6027
:102C80000291236801A89847A37CDB4303F001036A
:102C900004EB83035A682AB1029200225A6001A809
:102CA000236898470023A374BBE700BF00D001400E
:102CB0000812002000F18040002382B00360036806
:102CC0000193019B02B070474FF0804310B5D3F8D9
:102CD0000443610709D5D3F8083133B14FF4847048
:102CE000FFF7E8FF114B1B689847A2060CD54FF081
:102CF0008043D3F814313BB14FF48A70FFF7DAFF09
:102D00000B4B00201B68984763060ED54FF080439D
:102D1000D3F818314BB14FF48C70FFF7CBFF044B55
:102D2000BDE810401B680120184710BD201200208C
:102D30002412002008B5FFF7C7FFBDE80840FFF7E1
:102D4000B9BC0000014B1B68184700BF28120020C7
:102D5000014B1B68184700BF30120020014B1B6855
:102D6000184700BF38120020014B1B68184700BFEE
:102D700040120020014B1B68184700BF481200207A
:102D80000023435082B043580193019B02B0704727
:102D9000D0F8103170B505460C4653B14FF4887128
:102DA000FFF7EEFF63795A0703D523680BB10120C3
:102DB0009847D5F814315BB14FF48A712846FFF774
:102DC000DFFF63791B0703D523680BB10220984707
:102DD000D5F81C315BB128464FF48E71FFF7D0FF58
:102DE000607910F0100002D1236803B19847D5F83C
:102DF000043163B14FF482712846FFF7C1FF01230C
:102E0000237123681BB1BDE870400320184770BDD3
:102E100001490248FFF7BCBF5012002000C001402A
:102E200001490248FFF7B4BF5812002000100240C9
:102E300001490248FFF7ACBF6012002000200240A9
:102E400010B52D4CD4F8003186B0C3B1D4F804339A
:102E5000D90714D50023C4F80031D4F80031019308
:102E6000019B4FF48073ADF81030D4F80C358DF819
:102E70001230224B06AA12E903001B689847D4F8C7
:102E80000431E3B1D4F804339A0718D50023C4F809
:102E90000431D4F804310293029B4FF48273ADF8ED
:102EA0001030D4F81835ADF81230D4F84835ADF8F4
:102EB0001430124B06AA12E903001B689847D4F895
:102EC0000831BBB1D4F804335B0713D50023C4F831
:102ED0000831D4F808310393039B4FF48473ADF8A1
:102EE000103006AA054B12E903001B6806B0BDE8C6
:102EF0001040184706B010BD0020014068120020A5
:102F0000074B0022C3F8002182B0D3F800210192C0
:102F1000019AD3F80805034B1B68C0B202B01847EA
:102F200000D000406C1200200023435082B0435870
:102F30000193019B02B070472DE9F047DFF89880BC
:102F400004460D46914600F5A07A4FF480370026DE
:102F5000D4F80433B10001F5A0713B4289B20DD021
:102F6000DAF8003053B1C4F848732046C4F8087347
:102F7000FFF7DAFF58F82530F0B298470136B1452F
:102F80004FEA47070AF1040AE2D1D4F80433DA071A
:102F90000CD5D4F800314BB120464FF48071FFF7C7
:102FA000C3FF0D4B042053F825309847D4F8043361
:102FB0009B070ED5D4F804315BB120464FF48271E3
:102FC000FFF7B2FF044B052053F82530BDE8F0476A
:102FD0001847BDE8F08700BF7012002002480322A6
:102FE0000021FFF7A9BF00BF00B000400248042243
:102FF0000121FFF7A1BF00BF0040024000F1804067
:1030000000F5E040002382B0036003680193019B58
:1030100002B07047F0B5524B524CD3F8043185B032
:10302000002B3DD094F82E204FF48270FFF7E6FF7E
:103030002AB394F82F3013BB494AD2F80031002B41
:1030400032D04FF48070FFF7D9FF638B94F82D00D6
:10305000834250D921891B1A9BB289B26383CB1A50
:10306000616801EB4303C2F82C36C2F830064FF416
:103070008270FFF7C3FF3A4B01225A6014E0636885
:1030800002932389ADF80C30E36800218DF8041019
:1030900033BB2374236801A89847002384F82F309A
:1030A00094F82E30002BC7D12D4BD3F810315BB1E3
:1030B0004FF48870FFF7A2FF0023237402238DF8DA
:1030C000043001A823689847254BD3F81431EBB19D
:1030D0004FF48A70FFF792FF0023237405B0F0BD10
:1030E000208B608363602081E160002AD2D11C4B79
:1030F00001221A60CEE7BAD1E368012184F82F10CB
:1031000013B100216183AEE76383B0E766694FF0D6
:1031100000470125002EE1D0B6FA86F227FA02F325
:103120004632920026EA030602F1804303F5E043AB
:103130001B68002BEED01046A2F58C72FFF75EFFE5
:10314000D30882F00402C2F380028DF808308DF8B3
:10315000045023688DF8092001A89847DAE700BFDA
:10316000007000407812002030B4064A52F8204027
:10317000054A002532F8101022F81050234630BCC2
:10318000184700BFB4120020A81200200020FFF74B
:10319000EBBF0120FFF7E8BF0220FFF7E5BF0320E8
:1031A000FFF7E2BF0420FFF7DFBF0520FFF7DCBF1A
:1031B0002DE9F347002406460F46904600F5A0751A
:1031C0004FF48039A2462B688BB1D6F8043309FA44
:1031D00004F21A420BD0C5F800A02B680193A0009E
:1031E000019B00F5A07398B2D7E9003198470134EC
:1031F000444505F10405E6D102B0BDE8F0870000C2
:10320000024903480422FFF7D3BF00BFCC120020BD
:1032100000800040024903480422FFF7C9BF00BFF5
:10322000D812002000900040024903480422FFF712
:10323000BFBF00BFE412002000A0004002490348C5
:103240000622FFF7B5BF00BFF012002000A001402A
:10325000024903480622FFF7ABBF00BFFC12002063
:1032600000B0014013B5084CD4F800314BB1074B06
:103270001B6898470023C4F80031D4F8003101934B
:10328000019B02B010BD00BF0000014008130020E8
:103290004FF0A0431022C3F80C2570474FF0A04315
:1032A0002022C3F80C2570474FF0A0438022C3F8BA
:1032B0000C2570474FF0A0434FF40062C3F80C2573
:1032C000704700000D280AD14FF0A0431022174884
:1032D000C3F808254FF480410022FDF756B90E28A7
:1032E00009D14FF0A0432022C3F80825104800223E
:1032F0004FF48041F1E70F2809D14FF0A04380221D
:10330000C3F808250B4800224FF48041E5E7102858
:103310000AD14FF0A0434FF40062C3F808250648D5
:1033200000224FF48041D8E7704700BF10130020FF
:103330003013002050130020701300204FF0A043E2
:1033400007B50322C3F81027C3F81427C3F81C27B6
:10335000C3F82C271022C3F80C252022C3F80C2513
:103360008022C3F80C254FF40062C3F80C25FFF748
:1033700003F90020FFF720F9FDF7CAF808B1FDF7BF
:1033800027F8244A24480021FDF7F4F8234A24486A
:103390000021FDF7EFF8234A23480021FDF7EAF862
:1033A000224A23480021FDF7E5F8FFF7D5F9214B24
:1033B0001A889B78ADF804208DF806301E4A032346
:1033C00001A90D208DF80530FFF7FEF91A4A01A971
:1033D0000E20FFF7F9F9184A01A90F20FFF7F4F9B9
:1033E000154A01A91020FFF7EFF908B1FCF7F0FF2B
:1033F00001210D20FFF760FA01210E20FFF75CFA92
:1034000001210F20FFF758FA01211020FFF754FA8D
:10341000FEE700BF91320000E84200009D3200004C
:10342000EC420000A9320000F0420000B53200007A
:10343000F4420000E4420000C53200004FF0805327
:10344000D3F83001421C04BF4FF0704393F8E00FF3
:10345000831F5842584170474FF0704393F8E02F54
:10346000062A09D1D3F8E83FC3F30313033B032B28
:1034700002D8024AD05C7047002070470043000029
:1034800008B5FFF7DBFF40B14FF080538F4AD3F808
:103490002433C3F30423C2F84035FFF7DDFF10B136
:1034A0008B4B8C4A5A67FFF7C9FF48B14FF08053E6
:1034B0004FF08042D3F84432C3F34233C2F83C3574
:1034C000FFF7CAFF30B1844AD2F8FC3023F0807392
:1034D000C2F8FC30FFF7B2FF40B14FF0804300224A
:1034E000C3F80C21C3F81021C3F83825FFF7B4FF47
:1034F00020B14FF080430322C3F8A025FFF7ACFFB3
:1035000060B1764B0522C3F810260122C3F8882645
:103510000022C3F818263F22C3F814264FF0805328
:10352000D3F83021511C09BF4FF07043D3F8343128
:1035300093F8E02FD3F8E83F08BFC3F30313062A3C
:103540004DD1033B032B03D8654AD35C002B46D0F7
:103550004FF08052634BD2F80414C3F82015D2F810
:103560000814C3F82415D2F80C14C3F82815D2F89F
:103570001014C3F82C15D2F81414C3F83015D2F86F
:103580001814C3F83415D2F81C14C3F84015D2F837
:103590002014C3F84415D2F82414C3F84815D2F8FF
:1035A0002814C3F84C15D2F82C14C3F85015D2F8CF
:1035B0003014C3F85415D2F83414C3F86015D2F897
:1035C0003814C3F86415D2F83C14C3F86815D2F85F
:1035D0004014C3F86C15D2F84424C3F87025FFF7E3
:1035E0002DFF48B14FF080534FF08042D3F858324E
:1035F00003F04F03C2F8E43EFFF720FF48B14FF05D
:103600008043D3F80024D20744BF6FF00102C3F80F
:1036100000244FF08053D3F83021062A0ED1D3F87E
:103620003431033B032B02D82F4AD35C33B12F4AEA
:10363000D2F83C3743F48063C2F83C37264AD2F8CC
:10364000883043F47003C2F88830BFF34F8FBFF364
:103650006F8F4FF01023D3F80022002A03DBD3F83A
:103660000432002B2EDA224B0122C3F80425D3F8B2
:103670000024002AFBD04FF010221521C2F80012BE
:10368000D3F80024002AFBD04FF010231522C3F8F2
:103690000422174BD3F80024002AFBD00022C3F8E1
:1036A0000425D3F80024002AFBD0BFF34F8F0A492A
:1036B000104BCA6802F4E0621343CB60BFF34F8F34
:1036C00000BFFDE70C4B0D4A1A6008BD00300140F9
:1036D00000C007400DF0ADBA00ED00E00050004022
:1036E000F842000000C00040FC4200000010004012
:1036F00000E001400400FA05380000200090D003EB
:103700007F2805D8034A044B105C5B5C1840704767
:10371000002070471043000090430000A0F16103B7
:10372000192B98BF20387047A0F14103192B98BF7F
:10373000203070477F299ABF017001206FF02E0062
:10374000704700BF5AB10A787F2A0AD800B10260D8
:103750000021501AC3E9001118BF0120704710461C
:1037600070476FF02E007047A0F16103192B98BFCE
:1037700020387047A0F14103192B98BF20307047C3
:103780007F2805D8034A044B105C5B5C18407047E7
:10379000002070471043000090430000024B5B681C
:1037A0009B6808211B6818473C000020844640EABB
:1037B000010313F0030F18D18446202A0BD32DE9FF
:1037C000F007B1E8F807A0E8F807A2F12002202AE4
:1037D000F7D2BDE8F007042A07D351F8043B40F8BC
:1037E000043BA2F10402042AF7D2002A05D011F802
:1037F000013B00F8013B013AF9D16046704784462D
:10380000002A2DD010F0030F04D000F8011B013A5C
:1038100026D0F7E7C9B241EA012141EA0141202A55
:1038200012D3A2F120022DE9F0030B460C460D46FF
:103830000E460F4688468946A0E8FA03203AFBD296
:10384000BDE8F00320320BD0042A05D340F8041B56
:10385000043A05D0042AF9D200F8011B013AFBD141
:103860006046704710F0030F19D111F0030F16D105
:103870002DE970004FF001364FF0803350F8044BC3
:1038800051F8045BAC4205D1A4EB060525EA04051A
:103890001D40F3D0A0F10400A1F1040170BC10F8A8
:1038A000012B11F8013BD21A01D1002BF7D11046A0
:1038B000704700F1010110F0030F11D010F8012B37
:1038C000002A23D010F0030F0AD010F8012B002A91
:1038D0001CD010F0030F03D010F8012B002A15D0D4
:1038E0002DE970004FF001324FF0803350F8044B57
:1038F000A4EB020525EA04051D4000D1F6E7A0F17E
:10390000040070BC10F8012B002AFBD1A0EB0100D1
:023910007047FE
:103914007C1100203811002040000000010000004C
:0839240000000000D842000081
:10392C0000000000E43A000000000000AC40000081
:10393C00000000009C400000000000008C400000D3
:10394C00000000007C4000000000000088410000E6
:08395C0000000000C842000059
:1039640000000000000000007D11000000000000C5
:04397400000000004F
:10397800000000000000000000000000000000003F
:0C39880000000000000000000000000033
:103994000100060000000000500000201D0400008B
:1039A4000000000000000000000000000338FDD803
:1039B400704700000000FFFFDEC0ADDEFE011EF117
:1039C400DEC0ADDEFF011EF14261642061726775E5
:1039D4006D656E7420636F756E740025730D0A092E
:1039E4002D20456C656D656E742073697A653A099E
:1039F4002564202B202564206279746573206F660A
:103A040020646562756720696E666F726D617469A2
:103A14006F6E0D0A092D2055736167653A09257586
:103A2400252520282575206F7574206F662025753F
:103A340020656C656D656E7473290D0A092D204D22
:103A44006178696D756D3A092575252520282575D8
:103A5400206F7574206F6620257520656C656D6513
:103A64006E7473290D0A0D0A0062616C6C6F630039
:103A7400436F6D6D616E647320666F722042414CBA
:103A84004C4F43206D616E6167656D656E740073A4
:103A94007461747573005072696E74207374617408
:103AA4007573206F662062616C6C6F6320696E733E
:103AB40074616E6365732E0000000000C43A000058
:103AC400933A00009A3A0000000000001913000025
:103AD40000000000000000000000000000000000E2
:103AE4006D3A0000743A0000BC3A0000191300005B
:103AF4001B5B256443001B5B256444001B5B25643E
:103B040041001B5B256442002563006E6F742074C2
:103B140065726D696E617465643A2025630A003AC2
:103B240020636F6D6D616E64206E6F7420666F75B7
:103B34006E64002D68002D2D68656C7000506C65F6
:103B4400617365207370656369667920612073759C
:103B540062636F6D6D616E642E0A0054616220664B
:103B6400756E6374696F6E3A20636F6D6D616E6418
:103B74007320636F756E746572206F766572666C00
:103B84006F7765642E0A002020000A2573257300D0
:103B94000A2573004F7074696F6E733A0A0020200F
:103BA400252D2A733A0053686F7720636F6D6D611A
:103BB4006E642068656C702E0020202573257325A3
:103BC4007300537562636F6D6D616E64733A0A00BE
:103BD40025733A2077726F6E6720706172616D652C
:103BE40074657220636F756E740A0025733A2573C9
:103BF40025730A0020756E6B6E6F776E207061728C
:103C0400616D657465723A20004E6F207265737041
:103C14006F6E73652066726F6D20746865207465BD
:103C2400726D696E616C2C20617373756D656420AF
:103C340038307832342073637265656E2073697A24
:103C4400650A005B2533645D2025730A006F6E00EE
:103C54006F6666004563686F207374617475733AA8
:103C64002025730A004C6F7374206C6F67733A20BD
:103C740025750A4D6178206C6F67207175657565CF
:103C8400207574696C697A6174696F6E3A20257560
:103C94002525205B25752F25755D0A0072657369DE
:103CA4007A6500436F6E736F6C652067657473206B
:103CB4007465726D696E616C2073637265656E20E4
:103CC40073697A65206F7220617373756D657320F3
:103CD400383020696E2063617365207468652072D2
:103CE4006561646F7574206661696C732E20497414
:103CF400206D7573742062652065786563757465DD
:103D040064206166746572206561636820746572FD
:103D14006D696E616C207769647468206368616E94
:103D2400676520746F20656E7375726520636F72AA
:103D340072656374207465787420646973706C614F
:103D4400792E00686973746F727900436F6D6D61C9
:103D54006E6420686973746F72792E00636C6900F5
:103D640055736566756C2C206E6F7420556E69787A
:103D74002D6C696B6520434C4920636F6D6D616EDA
:103D840064732E00636C65617200436C656172201C
:103D940073637265656E2E0064656661756C74008C
:103DA400417373756D6520383020636861727320C8
:103DB40073637265656E20776964746820616E64EC
:103DC4002073656E64207468697320736574746904
:103DD4006E6720746F20746865207465726D696EF7
:103DE400616C2E00636F6C6F727300546F67676C45
:103DF4006520636F6C6F7265642073796E7461788B
:103E04002E006563686F00546F67676C6520434CD0
:103E140049206563686F2E00737461747300434CAA
:103E24004920737461746973746963732E007265D5
:103E340073657400526573657420434C4920737430
:103E4400617469737469637320666F722074686542
:103E5400204C6F67676572206D6F64756C652E000A
:103E640073686F770047657420434C49207374610D
:103E74007469737469637320666F72207468652053
:103E84004C6F67676572206D6F64756C652E0044B6
:103E9400697361626C6520434C49206563686F2EC9
:103EA400204172726F777320616E6420627574743E
:103EB4006F6E733A204261636B73706163652C208B
:103EC40044656C6574652C20456E642C20486F6DC8
:103ED400652C20496E7365727420617265206E6F63
:103EE400742068616E646C65642E00456E61626C5A
:103EF4006520434C49206563686F2E0044697361F3
:103F0400626C6520636F6C6F7265642073796E7484
:103F140061782E00456E61626C6520636F6C6F7210
:103F240065642073796E7461782E001B5B3F336C7B
:103F3400001B5B6D001B5B324A001B5B48001B5B74
:103F4400366E00202D200000000000000338FDD84C
:103F540070472D682C202D2D68656C7000000000C2
:103F6400000000006C3F0000E83D0000EF3D000051
:103F7400E43F0000851A0000063E00000B3E0000EE
:103F84001C400000CD1C00001C3E0000223E00002E
:103F9400AC3F0000C51A0000000000000000000053
:103FA400000000000000000000000000B43F00001A
:103FB400323E0000383E000000000000351D0000C5
:103FC400643E0000693E0000000000005D1D00002A
:103FD40000000000000000000000000000000000DD
:103FE40000000000EC3F0000543C0000003F0000D3
:103FF400000000004D1C0000513C0000183F000070
:10400400000000006D1C0000000000000000000023
:104014000000000000000000000000002440000038
:10402400543C0000933E0000000000008D1C000082
:10403400513C0000EF3E000000000000AD1C0000F9
:10404400000000000000000000000000000000006C
:10405400000000005C4000009C3D0000A43D000006
:1040640000000000091B0000000000000000000028
:104074000000000000000000883D00008E3D0000AC
:1040840000000000ED190000603D0000643D0000E8
:10409400643F00002D1A0000473D00004F3D000022
:1040A40000000000DD1B0000A03C0000A73C000055
:1040B40054400000351B00002C20003031323334D2
:1040C40035363738394142434445464F7665726642
:1040D4006C6F77004E6F206F766572666C6F770039
:1040E40025730D0A092D20456C656D656E7420736A
:1040F400697A653A0925640D0A092D2055736167AB
:10410400653A092575252520282575206F757420A5
:104114006F6620257520656C656D656E7473290D59
:104124000A092D204D6178696D756D3A092575254B
:104134002520282575206F7574206F66202575202D
:10414400656C656D656E7473290D0A092D204D6FBC
:1041540064653A090925730D0A0D0A0071756575C0
:1041640065005072696E7420737461747573206F86
:104174006620717565756520696E7374616E63651B
:10418400732E000060410000743A00009841000062
:10419400C922000000000000A0410000933A000082
:1041A4006641000000000000C92200000000000079
:1041B4000000000000000000000000003C4E554CD0
:1041C4004C3E0052756E6E696E670052756E6E617C
:1041D400626C650053757370656E64656400546148
:1041E400736B2025753A0D0A00094E616D653A0915
:1041F400272573270D0A0009537461636B3A09304C
:1042040078253038582D3078253038582075736526
:104214006420696E202575252520282575206F7555
:1042240074206F66202575206279746573290D0AE0
:104234000009537461636B3A093078253038582D7E
:104244003078253038580D0A000953746174653A82
:104254000925730D0A0009466C6167733A093078C1
:10426400253038580D0A0D0A007461736B5F6D6157
:104274006E6167657200636F6D6D616E6473206655
:104284006F72207461736B206D616E61676572007B
:104294007461736B7320696E666F00000000000028
:1042A400A84200009A42000094420000000000006E
:1042B4001D240000000000000000000000000000B9
:1042C400000000006D4200007A420000A04200009D
:1042D400000000006D5F72616E645F706F6F6C0050
:1042E400020002001013002030130020501300209D
:1042F4007013002000000101000000010100000013
:1043040043000000504F5349580000002020202053
:104314002020202020682828282820202020202031
:104324002020202020202020202020204810101091
:1043340010101010101010101010101084848484A9
:10434400848484848484101010101010108181815E
:1043540081818101010101010101010101010101C9
:10436400010101010101011010101010108282825C
:104374008282820202020202020202020202020299
:104384000202020202020210101010200007032091
:104394000417020108571040800000000443000085
:1043A400084400001C45000053756E004D6F6E00FC
:1043B4005475650057656400546875004672690059
:1043C40053617400000000004A616E00466562009B
:1043D4004D617200417072004D6179004A756E0042
:1043E4004A756C0041756700536570004F63740033
:1043F4004E6F76004465630000000000414D00509C
:104404004D000000404500003C4500003C450000D4
:104414003C4500003C4500003C4500003C45000094
:104424003C4500003C4500003C450000FFFFFFFF09
:10443400FFFFFFFFFFFFFFFFFFFF00007C440000C2
:10444400AC430000B8440000CC430000004400002A
:1044540060440000104500006C440000256D2F25C9
:10446400642F257900000000256120256220256540
:10447400202554202559000053756E646179004D40
:104484006F6E646179005475657364617900576572
:10449400646E6573646179005468757273646179DC
:1044A400004672696461790053617475726461795C
:1044B400000000004A616E7561727900466562729F
:1044C40075617279004D6172636800417072696C44
:1044D400004D6179004A756E65004A756C7900413A
:1044E40075677573740053657074656D62657200E9
:1044F4004F63746F626572004E6F76656D626572AC
:1045040000446563656D62657200000025483A25C4
:104514004D3A255300000000013700001D3700000C
:104524002937000081370000693700007537000023
:0E4534003537000045370000000000002E0063
:1045440000100140110004000090D003A0430000BB
:10455400A0430000A0430000A0430000A0430000CB
:040000030000037581
:00000001FF
